:020000040800F2
:10000000500800204D4B00087D4B0008814B000834
:10001000854B0008894B00088D4B0008000000004C
:10002000000000000000000000000000914B0008EC
:10003000954B000800000000994B0008E1480008BB
:100040009D4B0008A14B0008A54B0008A94B0008D8
:10005000AD4B0008B14B0008F7480008ED48000818
:10006000B54B0008B94B0008BD4B0008C14B000858
:10007000C54B0008C94B0008CD4B0008D14B000808
:10008000D54B0008D94B0008DD4B000800000000EC
:10009000000000000000000000000000E14B00082C
:1000A000E54B0008E94B0008ED4B0008F14B000858
:1000B000F54B0008F94B0008FD4B0008014C000807
:1000C000054C0008094C00080D4C0008114C0008B4
:1000D000154C0008194C00080149000800000000F8
:1000E000194900081D4C0008214C000800000000C0
:1000F000000000000000000000000000254C000887
:1001000000000000294C00082D4C0008314C00086C
:1001100000000000000000000000000000000000DF
:10012000354C0008394C00083D4C0008414C000893
:10013000454C000800000000000000000000000026
:10014000000000000000000000000000494C000812
:100150004D4C0008514C0008554C0008594C000803
:100160005D4C0008614C0008000000000000000029
:10017000000000000000000000000000000000007F
:1001800000000000654C00080000000000000000B6
:10019000694C0008002117E000220B00DBB21B01B4
:1001A000C25400220B00DBB21B0103445A60002240
:1001B0000B00DBB21B0103449A6000220B00DBB290
:1001C0001B010344DA60491C0A00D2B2022AE3DBB5
:1001D000704770B4039D049C0600F6B236018A5540
:1001E0000200D2B212010A4453600200D2B21201DC
:1001F0000A449560C0B200010844C46070BC7047F6
:10020000FEB504000D0016001F00DFF8581B08782B
:10021000002804D1012008702800FFF7BBFF0999CE
:100220000898019100903B003200D2B229002000D2
:10023000C0B2FFF7CEFFF7BDF0B4002400230AE000
:1002400000252600F6B28D55641C521C1500EDB237
:10025000022DF5DB5B1C1A00D2B2042A01DA00225F
:10026000F4E7002301E0FFE75B1C1A00D2B2022A88
:1002700080F2A081DFF8C0491A00D2B21201855C79
:100280000E22554304EB0502127B1C00E4B20A5512
:100290001A00D2B21201825C002A28D0022A5CD055
:1002A00026D3042A00F0968069D3062A00F0D18074
:1002B000C0F0A480082A00F00F81C0F0E2800A2A72
:1002C00000F07181C0F047810C2A00F06E81C0F00F
:1002D0006B810E2A00F06B81C0F06881102A00F05B
:1002E0006881C0F06581122ABDD0BDD3BCE7BBE7F1
:1002F0001424DFF8E8591A00D2B28E5C1A00D2B288
:100300001201024452686243AA5C16431A00D2B238
:100310008E541A00D2B212010244526804FB02F455
:1003200005EB0402927B01240FE02500EDB26D0085
:1003300055FA83F51E00F6B236010644B668171B5F
:10034000FFB2FF00FE404E55641C2500EDB21600C2
:10035000F6B2761CB542E8DB86E71A00D2B28C5CB6
:10036000DFF878591A00D2B21201024456681422FA
:100370005643AA5D14431A00D2B28C5474E71A0093
:10038000D2B28C5CDFF82C5B1A00D2B212010244AC
:1003900056680922564305EB0602127A14431A00E6
:1003A000D2B28C54012210E01400E4B2640054FA7A
:1003B00083F41D00EDB22D010544AD68D2F10306B2
:1003C000F6B2F600F5400D55521C1400E4B2042CB0
:1003D000EADB49E71A00D2B28C5CDFF8D85A1A007F
:1003E000D2B21201024456680922564305EB0602B6
:1003F000127A14431A00D2B28C5435E71A00D2B2E2
:100400008C5CDFF8B05A1A00D2B21201024456686E
:100410000922564305EB0602127A14431A00D2B29F
:100420008C54012210E01400E4B2640054FA83F406
:100430001D00EDB22D010544AD68D2F10306F6B200
:10044000F600F5400D55521C1400E4B2042CEADB12
:100450000AE7012210E01400E4B2640054FA83F4C5
:100460001D00EDB22D0105446D68D2F10306F6B210
:10047000F600F5400D55521C1400E4B2042CEADBE2
:10048000F2E61A00D2B28C5CDFF8285A1A00D2B217
:100490001201024456680922564305EB0602127AFD
:1004A00014431A00D2B28C54012210E01400E4B2BA
:1004B000640054FA83F41D00EDB22D010544AD68CB
:1004C000D2F10306F6B2F600F5400D55521C1400A9
:1004D000E4B2042CEADBC7E61A00D2B28C5CDFF887
:1004E00044591A00D2B212010244566805225643FA
:1004F00005EB0602127954EAC2041A00D2B28C54F7
:100500001A00D2B28C5CDFF8AC591A00D2B21201D8
:10051000024496680922564305EB0602127A1443F8
:100520001A00D2B28C54012210E01400E4B264002C
:1005300054FA83F41D00EDB22D010544ED68D2F1AB
:100540000306F6B2F600F5400D55521C1400E4B255
:10055000042CEADB88E61A00D2B28C5CDFF8C458BF
:100560001A00D2B21201024456680522564305EB26
:100570000602127954EAC2041A00D2B28C541A004C
:10058000D2B28C5CDFF82C591A00D2B212010244AC
:1005900096680922564305EB0602127A14431A00A4
:1005A000D2B28C5460E65FE65EE65DE65CE65BE652
:1005B0005AE659E6F0BC7047DFED5A0AB4EE600A1D
:1005C000F1EE10FA08D5DFED620A80EE200ABCEEEB
:1005D000C00A10EE100A00E000207047DFED5E0A4E
:1005E000B4EE600AF1EE10FA09D5DFED5A0A80EE9A
:1005F000200ABDEEC00A10EE100A80B200E0002012
:1006000070470000DFED540AB4EE600AF1EE10FA14
:1006100009D5DFED500A80EE200ABDEEC00A10EECB
:10062000100A80B200E0002070470000DFED620A8F
:10063000B4EE600AF1EE10FA09D5DFED5E0A80EE45
:10064000200ABDEEC00A10EE100A80B200E00020C1
:1006500070470000DFED700AB4EE600AF1EE10FAA8
:1006600009D5DFED6C0A80EE200ABDEEC00A10EE5F
:10067000100A80B200E0002070470000DFED740A2D
:10068000B4EE600AF1EE10FA0DD5DFED960A80EEB9
:10069000200AFEEE000A30EE200ABDEEC00A10EE7F
:1006A000100A80B200E0002070470000DFED8E0AE3
:1006B000B4EE600AF1EE10FA09D5DFED7C0A80EEA7
:1006C000200ABDEEC00A10EE100A80B200E0002041
:1006D00070470000DFED920AB4EE600AF1EE10FA06
:1006E00009D5DFEDAB0A80EE200ABDEEC00A10EEA0
:1006F000100AC0B200E0002070470000DFED880A59
:10070000B4EE600AF1EE10FA09D5DFEDA10A80EE31
:10071000200ABDEEC00A10EE100AC0B200E00020B0
:10072000704700001C247446DFED7D0AB4EE600AB9
:10073000F1EE10FA09D5DFED960A80EE200ABDEE43
:10074000C00A10EE100AC0B200E00020704700009E
:100750002A24743CFED4684172C66847DFED9C0AC7
:10076000B4EE600AF1EE10FA22D5DFED980A80EEC1
:10077000200AFDEEC00A10EE900AC0B200EE900A08
:10078000F8EE600A70EE600AB6EE001AF4EE410A66
:10079000F1EE10FA06D5BDEEC00A10EE100A401EAA
:1007A000C0B206E0BDEEC00A10EE100AC0B200E012
:1007B000002070470B24744103E77346DFEDAD0A58
:1007C000B4EE600AF1EE10FA22D5DFED9C0A80EE5D
:1007D000200AFDEEC00A10EE900AC0B200EE900AA8
:1007E000F8EE600A70EE600AB6EE001AF4EE410A06
:1007F000F1EE10FA06D5BDEEC00A10EE100A401E4A
:10080000C0B206E0BDEEC00A10EE100AC0B200E0B1
:10081000002070470124743EC01474443EB50B00A0
:10082000DFF8F449002101910092DBB2012221009E
:10083000C0B2FFF7E5FCDFF8E45929002000FFF71C
:10084000FBFCDFF8DC19280000F0FEFA37BD0000E1
:1008500081E17346FEB504000D00DFF8BC6900209D
:100860000190002000902B00DBB20222310020001A
:10087000C0B2FFF7C5FCDFF8A47939003000FFF7FC
:10088000DBFCDFF89C693100380000F0DDFADFF8AE
:100890009419EDB21420454301EB0500827BD2B2DE
:1008A00031002000C0B200F007FBFEBDF423743D10
:1008B0003EB50B00DFF86049002101910092DBB2E8
:1008C00003222100C0B2FFF79BFCDFF8505929003A
:1008D0002000FFF7B1FCDFF84819280000F0B4FA57
:1008E00037BD000000007441242074443EB50B0065
:1008F000DFF824490021019100210091DBB204229C
:100900002100C0B2FFF77CFCDFF81059290020005D
:10091000FFF792FCDFF80819280000F095FA37BDC0
:10092000DA11833B3EB50B00DFF8EC480021019162
:100930000092DBB205222100C0B2FFF761FCDFF8B4
:10094000DC5829002000FFF777FCDFF8D4182800D6
:1009500000F07AFA37BD3EB50B00B3F5800F15D223
:10096000DFF8B44800210191002100910622210006
:10097000C0B2FFF745FCDFF8A45829002000FFF7BC
:100980005BFCDFF89C18280000F05EFA37BD000021
:100990006E9583373EB50B00B2F5800F15D2DFF8A8
:1009A0007848002101910092DBB207222100C0B2F9
:1009B000FFF726FCDFF8645829002000FFF73CFC15
:1009C000DFF85C18280000F03FFA37BD0080BB4319
:1009D0000180BB453EB5DFF840480193D2B200929A
:1009E000C9B20B0008222100C0B2FFF709FCDFF8F2
:1009F0002C5829002000FFF71FFCDFF824182800DE
:100A000000F022FA37BD3EB50B00DFF80C4800219C
:100A10000191D2B20092DBB209222100C0B2FFF7ED
:100A2000EFFBDFF8F85729002000FFF705FCDFF89F
:100A3000F017280000F008FA37BD00000000FA4166
:100A40003EB5DFF8D4470021019100210091002339
:100A50000A222100C0B2FFF7D3FBDFF8C0572900FC
:100A60002000FFF7E9FBDFF8B817280000F0ECF9E9
:100A700037BD000001007A453EB5DFF89C470021F4
:100A800001910021009100230B222100C0B2FFF749
:100A9000B7FBDFF8885729002000FFF7CDFBDFF810
:100AA0008017280000F0D0F937BD3EB5DFF8684761
:100AB000002101910021009100230C222100C0B2ED
:100AC000FFF79EFBDFF8545729002000FFF7B4FB27
:100AD000DFF84C17280000F0B7F937BD3EB5DFF856
:100AE0003847002101910021009100230D222100AF
:100AF000C0B2FFF785FBDFF8245729002000FFF77D
:100B00009BFBDFF81C17280000F09EF937BD0000A2
:100B10003EB5DFF804470021019100210091002338
:100B20000E222100C0B2FFF76BFBDFF8F056290060
:100B30002000FFF781FBDFF8E816280000F084F9B9
:100B400037BD3EB5DFF8D04600210191002100916C
:100B500000230F222100C0B2FFF752FBDFF8BC5682
:100B600029002000FFF768FBDFF8B416280000F02A
:100B70006BF937BD3EB5DFF8A04600210191002199
:100B80000091002310222100C0B2FFF739FBDFF8EB
:100B90008C5629002000FFF74FFBDFF88416280051
:100BA00000F052F937BD3EB5DFF86C4600210191E7
:100BB00000210091002311222100C0B2FFF720FB89
:100BC000DFF8585629002000FFF736FBDFF85016F3
:100BD000280000F039F937BD7CB50400DFF838563D
:100BE0000020019000200090002312222900200004
:100BF000C0B2FFF705FBDFF8246631002800FFF7DD
:100C00001BFBDFF81C562900300000F01DF9022202
:100C100029002000C0B200F04FF980B276BDE0B5E7
:100C20000B00002101910092DBB20122DFF8E815F0
:100C3000C0B2FFF7E5FA07BDCC450008E0B50B00F0
:100C40000021019100210091DBB20222DFF8C815DA
:100C5000C0B2FFF7D5FA07BDE0B50B000021019146
:100C60000092DBB20322DFF8B015C0B2FFF7C8FA7A
:100C700007BDE0B50B000021019100210091DBB21E
:100C80000422DFF89415C0B2FFF7BAFA07BDE0B549
:100C90000B00002101910092DBB20522DFF87815EC
:100CA000C0B2FFF7ADFA07BDE0B50B00002101911E
:100CB000002100910622DFF86015C0B2FFF7A0FA0C
:100CC00007BDE0B50B00002101910092DBB20722C5
:100CD000DFF84415C0B2FFF793FA07BDD843000808
:100CE000E0B50193D2B20092C9B20B000822DFF83E
:100CF0002815C0B2FFF784FA07BDE0B50B0000214C
:100D00000191D2B20092DBB20922DFF80C15C0B219
:100D1000FFF776FA07BDE0B50021019100210091AF
:100D200000230A22DFF8F014C0B2FFF769FA07BD0A
:100D3000E0B5002101910021009100230B22DFF892
:100D4000D814C0B2FFF75CFA07BDE0B500210191ED
:100D50000021009100230C22DFF8BC14C0B2FFF781
:100D60004FFA07BD4A040020E0B50021019100219F
:100D7000009100230D22DFF8A014C0B2FFF740FA63
:100D800007BDE0B5002101910021009100230E2252
:100D9000DFF88414C0B2FFF733FA07BDE0B50021D5
:100DA00001910021009100230F22DFF86C14C0B2E2
:100DB000FFF726FA07BDE0B500210191002100915F
:100DC00000231022DFF85014C0B2FFF719FA07BD54
:100DD000E0B5002101910021009100231122DFF8EC
:100DE0003814C0B2FFF70CFA07BDE0B5002101913D
:100DF0000021009100231222DFF81C14C0B2FFF77B
:100E0000FFF907BD38B5DFF814442100DFF8080406
:100E1000FFF712FADFF808542900200000F014F858
:100E2000280032BD5C4B00080100C9B2002907D080
:100E30000100C9B2002905D00100C9B2022901DAB6
:100E4000C0B200E0FF207047F8B504000D0000209C
:100E5000DFF8D4130870002607E000BF0178491CB2
:100E6000017001781429F8DB761C3000C0B2042828
:100E70001FDADFF8B87300223989786800F094FB34
:100E80000A20009002233000C0B205EB400230007F
:100E9000C0B204EB4001DFF8980300F0BEFC012271
:100EA0003989786800F080FBDFF888030021017041
:100EB000D7E7F1BDF84A000870B4002301250CE023
:100EC0002C00E4B201EB44040600F6B2A65D541B0C
:100ED000E4B2E400A64033436D1C2C00E4B2042CC1
:100EE000EEDB180070BC704738B50C0000251821E7
:100EF000C0B2FFF7AFFCD0490A681080E4B2002C02
:100F000015D0022C1DD017D3042C24D01ED3062CB0
:100F10002BD025D3082C34D02CD30A2C3FD037D358
:100F20000C2C4AD042D30E2C55D04DD357E0086834
:100F3000057815F0010552E008680088C0F3400507
:100F40004DE008680088C0F3800548E00868008824
:100F5000C0F3C00543E008680088C0F300153EE018
:100F600008680088C0F3411539E008680088C0F3BC
:100F7000C01534E008680588ADB22D0A15F00105EA
:100F80002DE008680588ADB26D0A15F0010526E070
:100F900008680588ADB2AD0A15F001051FE00868C4
:100FA0000588ADB2ED0A15F0010518E0086805885E
:100FB000ADB22D0B15F0010511E008680588ADB242
:100FC0006D0B15F001050AE008680588ADB2AD0BA0
:100FD00015F0010503E008680588ADB2ED0B2800A7
:100FE000C0B232BD0100C9B2192906DA8D4AC0B2B9
:100FF000142148431044401C00E085A070470000C5
:1010000038B504000D0095ED050AFFF7E7FAA08357
:1010100095ED060AFFF7F6FAE08395ED070AFFF76C
:1010200005FB208495ED080AFFF714FB608495ED1D
:10103000090AFFF723FBA0849FED760AD5ED0A0A83
:1010400060EE800A95ED001AC0EE810AFDEEE00A1E
:1010500010EE900A84F82600D5ED0B0A60EE800AA7
:1010600095ED001AC0EE810AFDEEE00A10EE900A3E
:1010700084F82700D5ED0C0A60EE800A95ED001A81
:10108000C0EE810AFDEEE00A10EE900A84F8280016
:10109000D5ED0D0A20EE800AD5ED000A80EE200A7B
:1010A000BDEEC00A10EE100A84F8290095ED0E0A74
:1010B000FFF7FCFA608595ED0F0AFFF70BFB84F84C
:1010C0002C0095ED100AFFF719FB84F82D0095ED23
:1010D000110AFFF729FB84F82E0095F8480084F8E0
:1010E0002F0095ED130AFFF739FB84F8310095EDD9
:1010F000140AFFF763FB84F8320095F8540084F873
:10110000330095F8550084F83400B5F85600E086B1
:10111000A28B04212078A3681B689847E28B0521E5
:101120002078A3681B689847228C06212078A36842
:101130001B689847628C07212078A3681B68984732
:10114000A28C08212078A3681B68984794F8262071
:1011500009212078A3681B68984794F827200A2162
:101160002078A3681B68984794F828200B212078E2
:10117000A3681B68984794F829200C212078A3685D
:101180001B689847628D0D212078A3681B689847DB
:1011900094F82C200E212078A3681B68984794F8B7
:1011A0002D200F212078A3681B68984794F82E20E3
:1011B00010212078A3681B68984794F82F201121EC
:1011C0002078A3681B68984794F831201321207871
:1011D000A3681B68984794F8322014212078A368EC
:1011E0001B68984794F8332015212078A3681B6862
:1011F000984794F8342016212078A3681B689847F4
:10120000E28E17212078A3681B68984731BD000043
:101210000000000000008043FC0300203404002094
:101220003C040020D84300084A0400202804002081
:10123000640300204B040020940000202DE9FC47AB
:1012400004000E00002000200020DFF8C053AC4254
:1012500018D0DFF8BC03844214D0DFF8B80384420E
:1012600010D0DFF8B40384420CD0DFF8B00384421E
:1012700008D0DFF8AC03844204D0C521DFF8A40312
:1012800000F006FD3068000404D1C621DFF89403A5
:1012900000F0FEFC7068002831D0706801282ED064
:1012A000706811282BD07068022828D07068122826
:1012B00025D07068DFF87013884220D07068DFF89E
:1012C0006C1388421BD07068DFF86413884216D014
:1012D0007068DFF86013884211D07068DFF8581327
:1012E00088420CD07068DFF85413884207D07068C9
:1012F000032804D0C721DFF82C0300F0C9FCB06834
:1013000000280AD0B068012807D0B068022804D0AD
:10131000C821DFF8100300F0BBFC00273FE00523E5
:1013200004E0DFF8F8028442F9D10423DBB217F0BD
:101330000300C0B2800083401A433800800841F89F
:101340002020DFF8FC12086830EA09007268D20336
:1013500001D559EA00000860DFF8E812086830EAB1
:1013600009007268920301D559EA00000860DFF8AD
:10137000D812086830EA09007268D20201D559EA29
:1013800000000860DFF8C412086830EA09007268DB
:10139000920202D559EA0009484608607F1C102FC6
:1013A00080F000815FF0010818FA07F0D6F800908D
:1013B00010EA09098145F1D17068022802D07068ED
:1013C00012286AD1306900284FD0306909284CD0E2
:1013D0003069002849D03069002846D0306900289B
:1013E00043D03069002840D0306901283DD03069B1
:1013F00001283AD03069022837D03069022834D029
:101400003069022831D0306904282ED03069042890
:101410002BD03069042828D03069052825D03069C0
:10142000052822D0306906281FD0306905281CD035
:101430003069072819D03069072816D03069082884
:1014400013D030690A2810D0306909280DD03069CE
:1014500009280AD030690C2807D030690F2804D039
:10146000D921DFF8C00100F013FC3800C00804EBFC
:101470008000016A0F2217F00700C0B2800082408E
:101480009143326917F00700C0B2800082401143D7
:101490003800C00804EB8000016221685FF0030A95
:1014A0003800C0B240001AFA00F08143327912F0DD
:1014B00003023800C0B240008240114321607068CE
:1014C000012808D07068022805D07068112802D061
:1014D0007068122829D1F06800280DD0F068012822
:1014E0000AD0F068022807D0F068032804D0EC2165
:1014F000DFF8300100F0CCFBA1683800C0B240003A
:101500001AFA00F08143F2683800C0B2400082400D
:101510001143A160606818FA07F830EA08007168A2
:10152000C1F30011B94008436060E1683800C0B2FF
:1015300040001AFA00FA31EA0A01B2683800C0B273
:10154000400082401143E1607068C0007FF526AF23
:101550003F48016851F480410160006810F4804008
:10156000009000983B493800800851F820200F2354
:1015700017F00300C0B2800083409A43AC4201D10F
:101580000023D3E62248844201D10123CEE621483C
:10159000844201D10223C9E61F4884427FF4C1AED0
:1015A0000323C3E6BDE8F38770B505000E00140001
:1015B000300080B2002804D140F2B111194800F087
:1015C00067FB2000C0B2002808D02000C0B201286C
:1015D00004D04FF4D971134800F05AFBE4B2002C48
:1015E00002D0B6B2AE6102E0B6B23604AE6170BDF2
:1015F00080B519490A6803009BB21A4205D002005F
:1016000092B20A6080B200F012FD01BD00000240FB
:101610000004024000080240000C0240001002409A
:10162000001C02409047000800001110000021102B
:1016300000003110000012100000221000003210D3
:10164000003C0140043C0140083C01400C3C01408E
:101650004438024008380140143C014010B50400F1
:10166000002C01D10120D7E06068002808D0606814
:10167000B0F5827F04D0B821DFF80C0500F008FB3C
:10168000A06800280CD0A068B0F5806F08D0A068D2
:10169000B0F5004F04D0B921DFF8EC0400F0F8FAFF
:1016A000E068B0F5006F07D0E068002804D0BA21E8
:1016B000DFF8D40400F0ECFA2069002807D0206994
:1016C000022804D0BB21DFF8C00400F0E1FA606911
:1016D000002807D06069012804D0BC21DFF8A804E5
:1016E00000F0D6FAA069B0F5007F0BD0A069002801
:1016F00008D0A069B0F5802F04D0BD21DFF88804A0
:1017000000F0C6FAE069002819D0E069082816D070
:10171000E069102813D0E069182810D0E06920286B
:101720000DD0E06928280AD0E069302807D0E069A8
:10173000382804D0BE21DFF8500400F0A9FA206A4E
:10174000002807D0206A802804D0BF21DFF83804A1
:1017500000F09EFA606A002807D0606A102804D062
:10176000C021DFF8240400F093FAA06A002808D012
:10177000A06AB0F5005F04D0C121DFF80C0400F0CE
:1017800087FAE06A002803D0E06AB0F5803F04D30E
:10179000C221DFF8F40300F07BFA94F8510000282E
:1017A00005D1002084F85000200000F07AFC0220CF
:1017B00084F851002068006830F04000216808601B
:1017C0006168A0680143E0680143206901436069E2
:1017D0000143A06910F400700143E0690143206AED
:1017E0000143A06A014320680160A169090C11F05E
:1017F0000401606A014320684160E06A2168086171
:101800002068C06930F400602168C861002060650C
:10181000012084F85100002010BDF8B506000C002E
:1018200015001F000020002096F85100012802D06A
:10183000222840F0A681002C05D0002D03D03800CE
:1018400080B2002801D101209CE1B068002805D0B9
:101850004FF42671DFF8300300F01AFA96F85000C2
:10186000012801D102208DE1012086F8500096F870
:101870005100012802D1322086F851000020706505
:10188000B563B787F7873463B786F7860020B064FF
:101890000020F064B06AB0F5005F0BD130680068DA
:1018A00030F40050316808603068006850F400502F
:1018B0003168086030680068400605D43068006808
:1018C00050F0400031680860069CF068B0F5006F89
:1018D00040F087807068002806D07068B0F5827F7D
:1018E0000CD1F08E012809D1306B00883168C860B6
:1018F000306B801C3063F08E401EF086F08E002826
:1019000047D1B06AB0F5005F05D13068006850F487
:10191000805031680860230000220121300000F06F
:1019200035F9002801D003202CE13068C068B16B84
:101930000880B06B801CB063F08F401EF087CEE053
:10194000306B00883168C860306B801C3063F08E6B
:10195000401EF086F08E002809D1B06AB0F5005F15
:1019600005D13068006850F4805031680860230069
:1019700000220121300000F009F9002816D130685A
:10198000C068B16B0880B06B801CB063F08F401EE4
:10199000F087F08E00280BD02300002202213000B7
:1019A00000F0F4F80028CBD00320EBE00320E9E0BE
:1019B0007068002840F0938023000022012130004D
:1019C00000F0E4F8002801D00320DBE03068C068B4
:1019D000B16B0880B06B801CB063F08F401EF08745
:1019E0007DE07068002806D07068B0F5827F0BD16A
:1019F000F08E012808D1306B411C316300783168CA
:101A0000C860F08E401EF086F08E002842D1B06A89
:101A1000B0F5005F05D13068006850F4805031683F
:101A20000860230000220121300000F0AFF80028F8
:101A300001D00320A6E03068C068B16B0870F08F59
:101A4000401EF0874BE0306B411C316300783168F9
:101A5000C860F08E401EF086F08E002809D1B06A72
:101A6000B0F5005F05D13068006850F480503168EF
:101A70000860230000220121300000F087F80028D0
:101A800015D1B06B411CB1633168C9680170F08F2A
:101A9000401EF087F08E00280BD023000022022188
:101AA000300000F073F80028CDD003206AE0032056
:101AB00068E07068002812D1230000220121300064
:101AC00000F064F8002801D003205BE0B06B411CFB
:101AD000B1633168C9680170F08F401EF087B06A49
:101AE000B0F5005F13D1230000220121300000F087
:101AF0004DF8002805D0706D50F00200706503208D
:101B000040E03068C068ADF80000BDF80000230078
:101B100001228021300000F039F8002805D0706DD6
:101B200050F02000706503202CE0012086F8510061
:101B300030688068000910F00100B16AB1F5005FFB
:101B40001AD1002818D0706D50F002007065B06A8C
:101B5000B0F5005F0BD13068006830F40050316898
:101B600008603068006850F4005031680860002058
:101B700086F85000012005E0002086F85000002083
:101B800000E00220F2BD0000384800082DE9F041D5
:101B900005000E0090461C00002000F02DFB070001
:101BA0005FFA88F8B8F1000F32D1286880683040B9
:101BB000B04260D014F1010FF7D0002C04D000F037
:101BC0001BFBC01B8442F0D22868406830F0E00064
:101BD000296848602868006830F04000296808607B
:101BE000A86AB0F5005F0BD12868006830F4005097
:101BF000296808602868006850F400502968086067
:101C0000012085F85100002085F85000032033E0C2
:101C1000286880683040B0422DD114F1010FF7D010
:101C2000002C04D000F0E8FAC01B8442F0D22868EF
:101C3000406830F0E000296848602868006830F0AB
:101C4000400029680860A86AB0F5005F0BD12868D9
:101C5000006830F40050296808602868006850F473
:101C6000005029680860012085F85100002085F89F
:101C70005000032000E00020BDE8F08180B500F0B6
:101C800083FB00F0ACFD00F06BFE00F03FF8FEE7D8
:101C90007047F0B40246106895681318506803EB5B
:101CA0005004C0071DD54D441BE013F8017B05F817
:101CB000017B491EF9D1A0B1B60813F8011B06F04B
:101CC0000306032E08BF13F8016B01EB06214942FE
:101CD000801C294405D011F8016B05F8016B401EEA
:101CE000F9D1A3420ED013F8016B16F0030104BF23
:101CF00013F8011BC91C30090F28DAD113F8010BA6
:101D00000F30D6E7F0BC02F10C0070472DE9F04728
:101D1000BB4DBC49280000F052FE00F0F7FE00F079
:101D200077FF0400002710E03800C0B200F032FD59
:101D3000C0B200F0B7FD06003900C9B2B02041437F
:101D400004EB0100716888477F1C3800C0B200288E
:101D5000EAD0AD49280000F032FE00F0D7FE04259D
:101D6000002000F017FD824601E01AF1010A002070
:101D700000F010FD5146C9B288424FD35046C0B260
:101D800000F090FD06000020FFF74EF8070021E06C
:101D9000434601223900C9B25046C0B2D6F808C045
:101DA000DCF810C0E04701223900C9B25046C0B289
:101DB000B3689B6C98470028F5D04FF47A7000F018
:101DC0002BFF19F1010948462900C0B2C9B2884267
:101DD000DED37F1C0120FFF727F83900C9B2884203
:101DE000C3D35046C0B2400050FA87F15820414357
:101DF00004EB010898F85410022000F007F998ED60
:101E0000010ABCEEC00A10EE101A00FB01F0290016
:101E1000C9B2B0FBF1F85FF00009D4E740F6C41096
:101E200000F0FAFE002000F0B5FC050024E02800D8
:101E3000C0B2400050FA87F15820414304EB010042
:101E400090ED040AFEF7B8FB020001213800C0B291
:101E50003B00DBB206EB8303DB689B681B6D984796
:101E60007F1C0120FEF7E0FF3900C9B28842DED2B4
:101E7000B068C06C80476D1C002000F08BFC29000E
:101E8000C9B2884204D30020FEF7CEFF0700E8E77E
:101E900042F2107000F0C0FE002000F07BFC050054
:101EA00016E03800C0B23900C9B206EB8101C9683A
:101EB0008968D1F8801088477F1C0120FEF7B4FFA5
:101EC0003900C9B28842ECD2B068C06C80476D1C42
:101ED000002000F05FFC2900C9B2884204D3002032
:101EE000FEF7A2FF0700E8E70825002000F052FCFB
:101EF000824601E01AF1010A002000F04BFC514635
:101F0000C9B288424FD35046C0B200F0CBFC0600A5
:101F10000020FEF789FF070021E043460122390037
:101F2000C9B25046C0B2D6F808C0DCF810C0E047CD
:101F300001223900C9B25046C0B2B3689B6C9847C1
:101F40000028F5D04FF47A7000F066FE19F101090F
:101F500048462900C0B2C9B28842DED37F1C0120A6
:101F6000FEF762FF3900C9B28842C3D35046C0B2FF
:101F7000400050FA87F15820414304EB010898F8DB
:101F80005410022000F042F898ED010ABCEEC00A9D
:101F900010EE101A00FB01F02900C9B2B0FBF1F8F5
:101FA0005FF00009D4E7002000F0F4FB040016E025
:101FB0002800C0B22900C9B206EB8101C96889684E
:101FC000D1F8881088476D1C0120FEF72DFF2900ED
:101FD000C9B28842ECD2B068C06C8047641C002053
:101FE00000F0D8FB2100C9B2884204D30020FEF7DC
:101FF0001BFF0500E8E7002000F050FEBDE8F08779
:10200000BC030020244A0008444A000830B40200FF
:102010000120002403E01300DBB25843641C2300BA
:102020000D00DBB2EDB2AB42F5D330BC704780B5EA
:1020300080B2012807D0022808D0B0F5005F07D190
:1020400000F0E0FB04E000F0D9FB01E000F0D8FB79
:1020500001BD30B4002513E050F8042BD30744BF72
:10206000A9F101039A18091F042942F8045BFAD266
:1020700013468C0744BF15809B1CC90748BF1D70C1
:1020800050F8041B0029E7D130BC704780B5072009
:1020900000F0FFFE002200215FF0FF3000F00EFF95
:1020A00001BD80B586B001684E4A914239D14A4897
:1020B000016851F001010160016811F00101059111
:1020C0000599016851F002010160006810F00200FA
:1020D000059005984148016851F4805101600068FD
:1020E00010F4805005900598C020009002200190C7
:1020F00000200290032003900520049069463A488E
:10210000FFF79CF808200090022001900020029028
:10211000032003900520049069463148FFF78EF8AC
:1021200026E000683149884222D12B48016851F0ED
:1021300002010160006810F00200059005982C482B
:10214000016851F480410160006810F480400590FE
:1021500005984FF46040009002200190002002900A
:10216000032003900520049069461D48FFF766F898
:1021700007B000BD80B586B000681E49884229D1ED
:102180001548016851F001010160006810F001007C
:10219000009000981648016851F400310160006811
:1021A00010F40030009000980C2001900220029062
:1021B00000200390032004900720059001A90A48FD
:1021C000FFF73CF800220021262000F077FE2620B1
:1021D00000F093FE07B000BD3038024044380240A2
:1021E000000402400030014000000240003800407E
:1021F000403802400044004001480068704700BF7A
:102200004404002080B592B05848016851F08051D4
:102210000160006810F080500090009854480168F8
:1022200031F4404151F400410160006810F4404035
:1022300000900098022006900120099010200A903A
:1022400002200C9000200D9010200E904FF4A870EA
:102250000F90042010900720119006A800F08CFE2B
:102260000520019002200290002003904FF480503E
:10227000049000200590022101A801F0B3F813B0EA
:1022800000BD80B50121002000F028FD002000F0F5
:10229000D1FC01BD80B500F001F801BD10B5354C91
:1022A000354820604FF4827060600020A0600020FC
:1022B000E06002202061012060614FF40070A061A5
:1022C00000202062002060620020A06201F08BFAF2
:1022D0002A49B0FBF1F0010089B2022905DA002099
:1022E000E0612000FFF7BAF910BD010089B20429AE
:1022F00001DA0820F4E7010089B2082901DA102088
:10230000EEE7010089B2102901DA1820E8E70100A0
:1023100089B2202901DA2020E2E7010089B24029B0
:1023200001DA2820DCE7010089B2802901DA3020B7
:10233000D6E780B2B0F5807F01DA3820D0E7FEE73B
:1023400080B50F480F4901605FF4E1314160002121
:1023500081600021C160002101610C2141610021E7
:1023600081610021C16101F0A9FA01BD403802403C
:10237000007000406403002000300140404B4C00DE
:10238000BC0300200044004080B501F095FEFFF73B
:1023900039FFFFF776FFFFF77DFFFFF7D1FF40F230
:1023A000EE21032000F001F801BD70B504000D001E
:1023B000ADB26D0800260EE0002000F06FFC280092
:1023C00080B200F029FC002000F078FC280080B2E8
:1023D00000F022FC761C30002100C0B2C9B2884255
:1023E000EAD370BD30B585B0DFF80825DFF80845C1
:1023F000216810680143216010890090112001902C
:10240000002002900320039069465068FEF716FFF3
:10241000DFF8E824216810680143216010890090EA
:10242000DFF8DC5401950020029069465068FEF701
:1024300005FF00220021062000F040FDDFF8C42443
:1024400021681068014321601089009001950020E7
:10245000029069465068FEF7F1FE00220021072035
:1024600000F02CFD002000F095F9050020E0DFF8D9
:1024700098240C2321682800C0B258431058014307
:1024800021602800C0B25843104400890090012008
:102490000190002002900320039069462800C0B2FA
:1024A00003FB00F302EB03004068FEF7C7FE6D1C60
:1024B000002000F06FF92900C9B28842D7D205B0D8
:1024C00030BD38B5DFF82C44002221896068FFF761
:1024D0006BF8012221896068FFF766F8002000F0A0
:1024E00059F9040010E02800C0B2FEF7F7FA2800FE
:1024F000C0B2FEF771FB6D1C0120FEF795FC2900B0
:10250000C9B28842EFD2641C002000F043F92100D8
:10251000C9B288420FD32000C0B200F043F9DFF8FF
:10252000EC03012201894068FFF73EF80020FEF726
:102530007BFC0500E0E7002000F02CF9C0B200F0C1
:1025400031F931BD80B5C0B2012806D1062000F0B6
:10255000D4FC072000F0D1FC05E0062000F0DDFCF3
:10256000072000F0DAFC01BD70B50C0015001E005C
:10257000C0B200F017F9002806D032002900C9B215
:102580002000C0B2FEF74AF970BD38B50C00150046
:10259000C0B200F007F9002806D02900C9B2200017
:1025A000C0B2FEF757F900E0FF2032BD70B50C0055
:1025B00015001E00C0B200F0F5F8002806D0320069
:1025C0002900C9B22000C0B2FEF772F970BD38B55B
:1025D0000C001500C0B200F0E5F8002805D0290075
:1025E000C9B22000C0B2FEF781F931BD70B50C0050
:1025F00015001E00C0B200F0D5F8002806D0320049
:102600002900C9B22000C0B2FEF78CF970BD38B500
:102610000C001500C0B200F0C5F8002804D0290055
:102620002000C0B2FEF797F931BD70B50C0015005F
:102630001E00C0B200F0B6F8002806D03200290013
:10264000C9B22000C0B2FEF7A5F970BD70B50C008C
:1026500015001E00C0B200F0A5F8002808D0049BA9
:102660003200D2B22900C9B22000C0B2FEF7B2F9DE
:1026700070BD70B50C0015001E00C0B200F092F8DD
:10268000002807D03200D2B22900C9B22000C0B25F
:10269000FEF7B9F970BD10B50C00C0B200F082F8B9
:1026A000002803D02000C0B2FEF7CAF910BD10B553
:1026B0000C00C0B200F076F8002803D02000C0B2B1
:1026C000FEF7DAF910BD10B50C00C0B200F06AF8E0
:1026D000002803D02000C0B2FEF7E7F910BD10B506
:1026E0000C00C0B200F05EF8002803D02000C0B299
:1026F000FEF7F4F910BD10B50C00C0B200F052F8AE
:10270000002803D02000C0B2FEF702FA10BD10B5B9
:102710000C00C0B200F046F8002803D02000C0B280
:10272000FEF70FFA10BD10B50C00C0B200F03AF879
:10273000002803D02000C0B2FEF71CFA10BD10B56F
:102740000C00C0B200F02EF8002803D02000C0B268
:10275000FEF729FA10BD10B50C00C0B200F022F847
:10276000002804D02000C0B2FEF736FA00E00020B6
:1027700010BD38B50C001500C0B200F013F80028E9
:1027800006D02900C9B22000C0B2FEF7ADFB00E0C0
:10279000FF2032BD0100C9B2002901D1C0B200E062
:1027A000FF20704710B40100C9B2002914D1574965
:1027B0000C22554B0400E4B254431C590C60040035
:1027C000E4B254431C4464684C60C0B250431844A3
:1027D00000890881012000E0002010BC704780B50E
:1027E0000020FFF7D7FFC0B2FFF7DCFFFFF7FAFDCD
:1027F000FFF767FE0120FFF7A5FE01BD00BF704790
:1028000000BF704780B53B48002201894068FEF751
:10281000CBFEFEE780B501003D4800F091F801BD18
:1028200080B501003B4800F08BF801BD80B5010088
:10283000394800F085F801BD80B50100374800F047
:102840007FF801BD80B501003548FEF7D9FB01BD19
:1028500080B501003348FEF7D3FB01BD80B5010010
:102860003148FEF7CDFB01BD80B501002F48FEF7D2
:10287000C7FB01BD80B501002D48FEF7C1FB01BDBE
:1028800080B501002B48FEF7BBFB01BD80B5010000
:102890002948FEF7B5FB01BD80B501002748FEF7CA
:1028A000AFFB01BD38B5040025000020FFF772FF23
:1028B000EDB2854201D116481AE025000120FFF74C
:1028C00069FFEDB2854201D1124811E025000220D6
:1028D000FFF760FFEDB2854201D10F4808E0032009
:1028E000FFF758FFE4B2844201D10C4800E0002019
:1028F00032BD000034030020303802404003002085
:10290000000021104C030020580300202804002060
:10291000D4020020EC020020040300201C0300204D
:10292000F4000020300100206C010020A8010020EC
:10293000E4010020200200205C0200209802002018
:1029400038B504000D002078616988472800E168E7
:102950004968884715F1580021694968884731BDA1
:1029600010B53B4C3BA1200000F029F8DFF87012B5
:10297000200000F024F8DFF86C12200000F01FF8AF
:10298000DFF86412200000F01AF8DFF8601220006F
:1029900000F015F8DFF85812200000F010F86CA1D4
:1029A000200000F00CF8DFF84C12200000F007F8CF
:1029B000DFF84412200000F002F810BD000080B5DE
:1029C00000231A00531CD2B28A5C002AF9D15A1E85
:1029D0000A23D2B292B201F001F801BD10B5040091
:1029E00020684068E18D012902D0C0B20D282DD1A8
:1029F000E08D401CE085A06A401EA0620020A16A14
:102A0000087075A12000FFF7DAFF206800688006D3
:102A1000FBD42068C06830F020002168C86094F8BA
:102A20003900322803D1122084F839000EE02068E2
:102A3000C06830F480702168C86020684069400830
:102A4000400021684861012084F8390010BD000071
:102A5000BC0300200D0A00002DE9F04107000E0024
:102A60003800C0B2FFF79EFE00284DD0634C5AA537
:102A700029002000FFF7A3FF61492000FFF79FFF17
:102A800000213000C0B200F065F801002000FFF71F
:102A900096FF5C492000FFF792FF0021FFB238004B
:102AA00000F058F801002000FFF789FF5649200088
:102AB000FFF785FF00271FE03900C9B23000C0B220
:102AC000FDF7C8FE80463800C0B2FEF78BFA010061
:102AD0002000FFF774FF41A12000FFF770FF0321E2
:102AE000404600F037F801002000FFF768FF29009A
:102AF0002000FFF764FF7F1C3800C0B21928DBDB21
:102B000029002000FFF75BFFBDE8F08138B5002009
:102B1000FFF740FE04000EE02900C9B22000C0B259
:102B2000FFF79AFF6D1C0120FEF77EF92900C9B25C
:102B30008842F1D2641C0020FFF72CFE2100C9B2AC
:102B4000884204D30020FEF76FF90500EBE731BDA2
:102B5000200D0A0030B40022C9B2002905D0022994
:102B600007D004D3032906D006E0012204E00222A4
:102B700002E0042200E0082200211FE037330D00AC
:102B8000EDB2635519E0214C00230D00EDB2635501
:102B90000F25531E5B1ADBB29B0015FA03F30340AB
:102BA000551E6D1AEDB2AD00EB401D00EDB20A2DC1
:102BB000E4DA30330D00EDB26355491C0B0014000C
:102BC000DBB2E4B2A342DED310480022C9B24254C1
:102BD00030BC7047000000000D0A00003A200000E1
:102BE000E44A000834490008644900080C4B000816
:102BF0001C4B0008CC4A0008644A0008BC030020B3
:102C0000BC4900082C4B0008744B00081C04002031
:102C1000004870471841000811B581B00020FFF747
:102C2000EBFA0400FFF7E8FA001B01998842F9D398
:102C300013BD200070B586B004002000C0B200288B
:102C40000AD1DFF84401016851F001010160006818
:102C500010F0010000900098DFF830512000C0B261
:102C600035F810000190012002900120039002200D
:102C70000490DFF81C6101A92000C0B256F82000C2
:102C8000FEF7DCFA00222000C0B235F81010E4B2E2
:102C900056F82400FEF788FC06B070BD80B501220E
:102CA000DFF8E8100300DBB231F81310DFF8E03092
:102CB000C0B253F82000FEF777FC01BD80B50022BA
:102CC000DFF8C8100300DBB231F81310DFF8C030B2
:102CD000C0B253F82000FEF767FC01BD38B586B0DE
:102CE00004000D002000C0B200280AD1DFF89800CF
:102CF000016851F004010160006810F004000090C8
:102D000000982800C0B2002815D1DFF88800210003
:102D1000C9B230F811000190002002900220039007
:102D20000220049001A9DFF870002200D2B250F80E
:102D30002200FEF783FAEDB2012D23D1DFF8540013
:102D40002100C9B230F81100019000200390DFF893
:102D50004C00029001A9DFF840002200D2B250F8E6
:102D60002200FEF76BFADFF8385000220F21200016
:102D7000C0B2285640B200F0A1F8E4B2285740B2E1
:102D800000F0BBF807B030BD30380240322C0008EC
:102D900098000020762F00089C00002000002110E1
:102DA0001641000810F00700DFF898311A684FF656
:102DB000FF010A40DFF8901151EA00210A431A602E
:102DC0007047DFF880010068C0F3022070470122DD
:102DD00010F01F018A40DFF8741140B2400941F839
:102DE00020207047012210F01F018A40DFF8601197
:102DF00040B2400941F820207047020052B2002A38
:102E000009D50901DFF84C2140B210F00F00104441
:102E100000F8041C04E00901DFF83C2140B2115421
:102E2000704710B410F00700D0F10703052B01D351
:102E3000042301E0D0F10703041D072C01D2002078
:102E400000E0C01E012414FA03F35B1E1940814008
:102E500014FA00F0401E1040084310BC704780B5C3
:102E6000411EB1F1807F01D3012011E0401EDFF847
:102E7000EC1008600F215FF0FF30FFF7BEFF00206D
:102E8000DFF8DC1008600720DFF8D81008600020A9
:102E900002BD10B50400072C0CD0062C0AD0052C5E
:102EA00008D0042C06D0032C04D0A421DFF8B800ED
:102EB000FEF7EEFE2000FFF775FF10BD70B50400B1
:102EC0000D0016000020102E04D3BC21DFF898005E
:102ED000FEF7DEFE102D04D3BD21DFF88C00FEF7D7
:102EE000D7FEFFF76EFF32002900FFF79AFF0100BF
:102EF000200040B2FFF781FF70BD10B50400200034
:102F000040B2002804D5D021DFF85C00FEF7C0FEF7
:102F1000200040B2FFF75BFF10BD10B50400200099
:102F200040B2002804D5E021DFF83C00FEF7B0FEF7
:102F3000200040B2FFF756FF10BD80B5FFF78FFFAE
:102F400002BD00000CED00E00000FA0500E100E029
:102F500080E100E018ED00E000E400E014E000E0B3
:102F600018E000E010E000E03847000880B500F00D
:102F700001F801BD70470020F8B50400002020686A
:102F8000102805D34FF48071DFF82404FEF780FE8B
:102F90002078C00761D5606800280BD060680128E0
:102FA00008D06068052805D040F20511DFF800045C
:102FB000FEF76EFEDFF8FC03016811F00C01042936
:102FC00009D0006810F00C0008280ED1DFF8E803E3
:102FD0000068400209D5DFF8E403006880033CD5AF
:102FE0006068002839D10120E0E1DFF8D4630020D7
:102FF0003070FFF701F90700DFF8C053286880033D
:1030000008D5FFF7F9F8C01B41F289318842F3D3A4
:103010000320CBE160683070606800280ED0FFF7B5
:10302000EBF806002868800317D4FFF7E5F8801B4B
:1030300041F289318842F5D30320B7E1FFF7DCF88C
:1030400006002868800308D5FFF7D6F8801B41F2F8
:1030500089318842F5D30320A8E1207880073AD54A
:10306000E068002808D0E068012805D04FF4A3717B
:10307000DFF83C03FEF70CFE2069202805D340F260
:103080004711DFF82C03FEF703FEDFF82803016881
:1030900011F00C0F09D0006810F00C0008283CD18A
:1030A000DFF814030068400237D4DFF8100301682A
:1030B000890704D5E168012901D0012076E1016882
:1030C0005FF0F852B2FA82F231F0F801236913FA94
:1030D00002F2114301602078000761D56069002881
:1030E00007D06069012804D040F28711B048FEF78C
:1030F000CFFD6069002842D00120B2490860FFF787
:103100007BF80500B0480068800749D4FFF774F8E1
:10311000401B6528F6D3032048E1E06800281DD055
:103120000120AA490860FFF767F80500A348016875
:10313000890706D4FFF760F8401B6528F6D3032003
:1031400034E101685FF0F852B2FA82F231F0F8012E
:10315000236913FA02F211430160BCE700209B4986
:103160000860FFF749F80500944800688007B2D569
:10317000FFF742F8401B6528F6D3032016E1002034
:1031800090490860FFF738F805008F48006880070D
:1031900006D5FFF731F8401B6528F6D3032005E17B
:1031A000207840075ED5A06800280AD0A0680128D2
:1031B00007D0A068052804D040F2B1117C48FEF782
:1031C00067FD8348016851F080510160006810F08C
:1031D0008050009000987F4E306850F480703060CE
:1031E000FFF70AF805003068C00506D4FFF704F8B9
:1031F000401B6528F7D30320D8E0774D00202870C6
:10320000FEF7FAFF06002868800708D5FEF7F4FFEE
:10321000801B41F289318842F5D30320C6E0A068C3
:103220002870A06800280ED0FEF7E6FF0600286888
:10323000800717D4FEF7E0FF801B41F289318842F6
:10324000F5D30320B2E0FEF7D7FF06002868800719
:1032500008D5FEF7D1FF801B41F289318842F5D3B2
:103260000320A3E0A06900280AD0A069012807D0A4
:10327000A069022804D040F2F5114D48FEF708FD80
:10328000A069002800F091804A48006810F00C0006
:10329000082800F08880A069022873D1E06900281E
:1032A00008D0E069B0F5800F04D04FF4FF714048BA
:1032B000FEF7EEFC206A402804D340F2FF113C48A0
:1032C000FEF7E6FC606AC038F12804D34FF40071C1
:1032D0003748FEF7DDFCA06A02280DD0A06A04285A
:1032E0000AD0A06A062807D0A06A082804D040F2B5
:1032F00001212F48FEF7CCFCE06A001F0C2804D304
:1033000040F202212A48FEF7C3FC344E0020306010
:10331000FEF772FF0700294D2868800106D5FEF7E9
:103320006BFFC01B6528F6D303203FE02C48B0FAA2
:1033300080F14FF44040B0FA80F2F020B0FA80F310
:10334000E769206A0743606A10FA01F13943A06A0D
:103350004008401E10FA02F21143E06A10FA03F32B
:1033600019431548016001203060FEF745FF040055
:103370002868800119D4FEF73FFF001B6528F7D3AA
:10338000032013E0002015490860FEF735FF040014
:103390000A480068800108D5FEF72EFF001B65284B
:1033A000F6D3032002E0012000E00020F2BD00BFC0
:1033B000E447000808380240043802400038024060
:1033C00002380240800E47427438024000004742F3
:1033D00040380240007000407038024060004742B0
:1033E0000000FE032DE9F04105000C0000202868D4
:1033F000002802D02868102805D34FF41871DFF890
:103400000804FEF745FC002C13D0012C11D0022C2F
:103410000FD0032C0DD0042C0BD0052C09D0062C7A
:1034200007D0072C05D040F26121DFF8DC03FEF75E
:103430002FFCDFF8D863306810F00F00A04280F056
:10344000B2803470306810F00F00A04201D001202B
:10345000A4E12878800728D5A86800281DD0A8688E
:1034600080281AD0A868902817D0A868A02814D05F
:10347000A868B02811D0A868C0280ED0A868D028A5
:103480000BD0A868E02808D0A868F02805D040F242
:103490007721DFF87403FEF7FBFBDFF874130A688B
:1034A00032F0F002A86802430A602878C00740F1B1
:1034B0002C81686800280ED0686801280BD06868E5
:1034C000022808D06868032805D040F27E21DFF882
:1034D0003803FEF7DDFB6868012806D1DFF8340306
:1034E0000068800315D4012058E16868022802D0E2
:1034F0006868032806D1DFF81C030068800108D43F
:1035000001204BE1DFF80C030068800701D40120A3
:1035100044E1DFF8FC4221688908890068680143BA
:103520002160FEF769FE0600686801280ED1206858
:1035300010F00C00042800F0E880FEF75DFE801B10
:1035400041F289318842F2D3032027E168680228DA
:103550000ED1206810F00C00082800F0D680FEF78D
:103560004BFE801B41F289318842F2D3032015E1E2
:103570006868032809D12068FEF73EFE801B41F2EF
:1035800089318842F7D3032008E1206810F00C0F3E
:1035900000F0BB80FEF730FE801B41F2893188428B
:1035A000F3D30320FAE02878800728D5A8680028FC
:1035B0001DD0A86880281AD0A868902817D0A868BD
:1035C000A02814D0A868B02811D0A868C0280ED0B0
:1035D000A868D0280BD0A868E02808D0A868F028F0
:1035E00005D040F2D121DFF82002FEF751FBDFF8D1
:1035F00020120A6832F0F002A86802430A602878B4
:10360000C0077AD5686800280ED0686801280BD0FA
:103610006868022808D06868032805D04FF436711E
:10362000DFF8E401FEF734FB6868012806D1DFF813
:10363000E4010068800315D40120AFE06868022827
:1036400002D06868032806D1DFF8C801006880014D
:1036500008D40120A2E0DFF8BC010068800701D493
:1036600001209BE0DFF8A871396889088900686843
:1036700001433960FEF7C0FD8046686801280ED11D
:10368000386810F00C00042837D0FEF7B5FDB0EB19
:10369000080041F289318842F2D303207EE0686855
:1036A00002280ED1386810F00C00082825D0FEF74B
:1036B000A3FDB0EB080041F289318842F2D3032028
:1036C0006CE0686803280AD13868FEF795FDB0EB16
:1036D000080041F289318842F6D303205EE0386861
:1036E00010F00C0F09D0FEF787FDB0EB080041F297
:1036F00089318842F3D3032050E03470306810F0F1
:103700000F00A04201D0012048E0287840071ED5D4
:10371000E868002814D0E868B0F5805F10D0E86849
:10372000B0F5A05F0CD0E868B0F5C05F08D0E868DD
:10373000B0F5E05F04D040F232313348FEF7A8FA2A
:1037400033490A6832F4E052E86802430A60287894
:1037500000071FD52869002814D02869B0F5805FBC
:1037600010D02869B0F5A05F0CD02869B0F5C05F13
:1037700008D02869B0F5E05F04D040F23931224822
:10378000FEF786FA2248016831F460412A6951EA5D
:10379000C2010160002000F0A9FC0020BDE8F0811A
:1037A00010B500F03DF81A4909685FF07062B2FA8E
:1037B00082F2194B194C11F0F001D140615CC84004
:1037C0001860186810BD80B5FFF7EAFF1049096856
:1037D0005FF46012B2FA82F2104B11F4E051D14062
:1037E000595CC84002BD80B5FFF7DAFF0849096897
:1037F0005FF4E022B2FA82F2084B11F46041D1404A
:10380000595CC84002BD0000E4470008003C02408B
:103810000838024000380240A00000203C4B00085D
:1038200010B400200020002000201F48006810F085
:103830000C00002804D0042804D0082804D030E06C
:103840001A482FE01A482DE01A49086810F03F0086
:103850000A6852020CD50B68174AB2FA82F4144A6D
:10386000B2FBF0F247F6C0700340E3405A430BE06E
:103870000B68114AB2FA82F40C4AB2FBF0F247F636
:10388000C0700340E3405A4308684FF44041B1FA26
:1038900081F110F44030C840401C4000B2FBF0F011
:1038A00000E0024810BC7047083802400024F400D1
:1038B00000127A00043802400000FE0310B5040034
:1038C000002C01D1012088E0A069002828D02068C0
:1038D000DFF8301388420ED02068DFF82C138842BE
:1038E00009D02068DFF82413884204D0FC21DFF8D7
:1038F0002003FEF7CDF9A069002826D0A069B0F515
:10390000807F22D0A069B0F5007F1ED0A069B0F5FD
:10391000407F1AD0FD21DFF8F802FEF7B9F914E074
:103920002068DFF8E01288420FD02068DFF8D81254
:1039300088420AD02068DFF8D412884205D040F2CD
:103940000111DFF8CC02FEF7A3F9A068002809D026
:10395000A068B0F5805F05D040F20311DFF8B00237
:10396000FEF796F9E069002809D0E069B0F5004F4C
:1039700005D04FF48271DFF89802FEF789F994F8C8
:103980003900002805D1002084F838002000FEF717
:10399000F1FB022084F839002068C06830F4005040
:1039A0002168C860200000F05EFA2068006930F4E9
:1039B0009040216808612068406930F02A00216841
:1039C00048612068C06850F400502168C860002039
:1039D000E063012084F83900002010BD70B50500B7
:1039E0000C001E00002095F83900012801D0222883
:1039F00069D1002C03D0100080B2002801D1012031
:103A000062E095F83800012801D102205CE0012035
:103A100085F838000020E86395F83900222803D1A2
:103A2000322085F8390002E0122085F83900AA8496
:103A3000EA8403E0207829684860641CE88C002848
:103A400027D0E88C401EE884A868B0F5805F16D1C6
:103A5000330000228021280000F0DCF8002801D08B
:103A6000032031E020000088C005C00D29684860AF
:103A70002869002801D1A41CE0E7641CDEE73300BC
:103A800000228021280000F0C5F80028D2D00320B1
:103A90001AE0330000224021280000F0BBF8002883
:103AA00001D0032010E095F83900322803D12220FC
:103AB00085F8390002E0012085F83900002085F8FA
:103AC0003800002000E0022070BD1CB5040000207A
:103AD00000202068016811F001012068C06810F41E
:103AE000807000290CD000280AD02068006800905F
:103AF0002068406800900098E06B50F00100E0639F
:103B000020680168490811F001012068406910F03F
:103B1000010000290CD000280AD02068006800901D
:103B20002068406800900098E06B50F00400E0636B
:103B300020680168890811F001012068406910F0CF
:103B4000010000290CD000280AD0206800680090ED
:103B50002068406800900098E06B50F00200E0633D
:103B600020680168C90811F001012068406910F05F
:103B7000010000290CD000280AD0206800680090BD
:103B80002068406800900098E06B50F00800E06307
:103B900020680168490911F001012068C06810F02F
:103BA0002000002904D0002802D0200000F0FCF8FA
:103BB00020680168C90911F001012068C06810F08F
:103BC0008000002904D0002802D0200000F092F8E4
:103BD00020680168890911F001012068C06810F0AF
:103BE0004000002904D0002802D0200000F0BAF8DC
:103BF000E06B002805D0012084F83900200000F097
:103C000087FA13BD00100140004400400014014039
:103C10008C4800082DE9F04105000E0090461C007C
:103C20000020FEF7E9FA07005FFA88F8B8F1000F04
:103C30002ED1286800683040B04258D014F1010FEE
:103C4000F7D0002C04D0FEF7D7FAC01B8442F0D284
:103C50002868C06830F080002968C8602868C0689B
:103C600030F020002968C8602868C06830F480708F
:103C70002968C86028684069400840002968486190
:103C8000012085F83900002085F8380003202FE056
:103C9000286800683040B04229D114F1010FF7D0F4
:103CA000002C04D0FEF7A8FAC01B8442F0D228688A
:103CB000C06830F080002968C8602868C06830F0AB
:103CC00020002968C8602868C06830F480702968BE
:103CD000C8602868406940084000296848610120A0
:103CE00085F83900002085F83800032000E0002026
:103CF000BDE8F081002190F83910122901D0322955
:103D00002ED18168B1F5805F10D1016A0988C9059B
:103D1000C90D026851600169002903D1016A891C3B
:103D2000016209E0016A491C016205E0016A4A1C5E
:103D30000262097802685160C18C491EC184C18C3D
:103D400000290BD10168C96831F080010268D16097
:103D50000168C96851F040010068C160002000E0BE
:103D60000220704780B50168C96831F040010268DF
:103D7000D16090F83910322903D1222180F839100E
:103D80000EE00168C96831F480710268D160016891
:103D900049694908490002685161012180F83910D8
:103DA00000F0B7F9002002BD80B5002190F839106D
:103DB000222901D0322954D18168B1F5805F15D113
:103DC000826A0169002908D101684968C905C90DDD
:103DD0001180816A891C81621AE00168496801F0DA
:103DE000FF011180816A491C816211E0016900298B
:103DF00006D1816A4A1C8262026852680A7007E032
:103E0000816A4A1C82620268526812F07F020A705C
:103E1000C18D491EC185C18D002920D10168C968A5
:103E200031F020010268D16090F83910322903D1B5
:103E3000122180F839100EE00168C96831F48071F0
:103E40000268D16001684969490849000268516106
:103E5000012180F8391000F05DF9002002E0002017
:103E600000E0022002BD70B50400002060688F49A8
:103E7000884204D340F236718A48FDF709FFE068B2
:103E8000002808D0E068B0F5005F04D040F2377138
:103E90008448FDF7FDFE206900280CD02069B0F5AC
:103EA000806F08D02069B0F5C06F04D04FF4E7618F
:103EB0007C48FDF7EDFE60694FF6F371084202D1D0
:103EC0006069002804D140F239717648FDF7E0FEC0
:103ED0002068016931F44051E068014320680161C4
:103EE0002068C16872480140A26820690243606985
:103EF0000243E069024311432068C16020684169C0
:103F000031F44071A069014320684161E069B0F576
:103F1000004F63D120686449884203D02068654916
:103F200088422DD1FFF75FFC0600FFF75CFC05001F
:103F3000FFF759FC19214E4362685200B6FBF2F2BA
:103F40006423B2FBF3F24D4363685B00B5FBF3F30C
:103F500001FB00F160684000B1FBF0F06421B0FBB0
:103F6000F1F1642000FB1133180132306421B0FB01
:103F7000F1F010F00F0050EA02102168886090E024
:103F8000FFF721FC0600FFF71EFC0500FFF71BFCF6
:103F900019214E4362685200B6FBF2F26423B2FB71
:103FA000F3F24D4363685B00B5FBF3F301FB00F1F3
:103FB00060684000B1FBF0F06421B0FBF1F16420D7
:103FC00000FB1133180132306421B0FBF1F010F026
:103FD0000F0050EA02102168886062E020683249D0
:103FE000884203D02068334988422DD1FFF7FBFB7C
:103FF0000600FFF7F8FB0500FFF7F5FB19214E431C
:1040000062689200B6FBF2F26423B2FBF3F24D4316
:1040100063689B00B5FBF3F301FB00F1606880006F
:10402000B1FBF0F06421B0FBF1F1642000FB11332F
:10403000180132306421B0FBF1F010F00F0050EAAB
:104040000210216888602CE0FFF7BDFB0600FFF737
:10405000BAFB0500FFF7B7FB19214E4362689200D7
:10406000B6FBF2F26423B2FBF3F24D4363689B00AC
:10407000B5FBF3F301FB00F160688000B1FBF0F0E9
:104080006421B0FBF1F1642000FB113318013230E0
:104090006421B0FBF1F010F00F0050EA021021682B
:1040A000886070BD8C48000800100140A137A00056
:1040B000F369FFFF0014014080B50B48016851F41B
:1040C00000710160016851F480610160016851F480
:1040D000807101600320FEF7DCFE002000F006F88E
:1040E000FDF7D4FF002002BD003C024010B50400E3
:1040F000FFF756FB4FF47A71B0FBF1F0FEF71DFFAE
:10410000002221005FF0FF30FEF7D8FE002010BD36
:104110007047704770472800000010410000C843F6
:104120009A99D93F0AD74340000070430000C84322
:104130000000C8430000A04300000000CDAC1644BE
:104140000AD743400AD743400AD743400AD74340DF
:104150007B147642689ACD393598283A3598283AB2
:10416000000000000060524500403F4507FF882ED8
:10417000000010410000C8439A99D93F0AD7434034
:10418000000070430000C8430000C8430000A04383
:1041900000000000CDAC16440AD743400AD7434084
:1041A0000AD743400AD743407B147642689ACD39F8
:1041B0003598283A3598283A0000000000605245AA
:1041C00000403F4507FF882E000010410000C84313
:1041D0009A99D93F0AD74340000070430000C84372
:1041E0000000C8430000A04300000000CDAC16440E
:1041F0000AD743400AD743400AD743400AD743402F
:104200007B147642689ACD393598283A3598283A01
:10421000000000000060524500403F4507FF882E27
:10422000000010410000C8439A99D93F0AD7434083
:10423000000070430000C8430000C8430000A043D2
:1042400000000000CDAC16440AD743400AD74340D3
:104250000AD743400AD743407B147642689ACD3947
:104260003598283A3598283A0000000000605245F9
:1042700000403F4507FF882E000010410000C84362
:104280009A99D93F0AD74340000070430000C843C1
:104290000000C8430000A04300000000CDAC16445D
:1042A0000AD743400AD743400AD743400AD743407E
:1042B0007B147642689ACD393598283A3598283A51
:1042C000000000000060524500403F4507FF882E77
:1042D000000010410000C8439A99D93F0AD74340D3
:1042E000000070430000C8430000C8430000A04322
:1042F00000000000CDAC16440AD743400AD7434023
:104300000AD743400AD743407B147642689ACD3996
:104310003598283A3598283A000000000060524548
:1043200000403F4507FF882E000010410000C843B1
:104330009A99D93F0AD74340000070430000C84310
:104340000000C8430000A04300000000CDAC1644AC
:104350000AD743400AD743400AD743400AD74340CD
:104360007B147642689ACD393598283A3598283AA0
:10437000000000000060524500403F4507FF882EC6
:10438000000010410000C8439A99D93F0AD7434022
:10439000000070430000C8430000C8430000A04371
:1043A00000000000CDAC16440AD743400AD7434072
:1043B0000AD743400AD743407B147642689ACD39E6
:1043C0003598283A3598283A000000000060524598
:1043D00000403F4507FF882E014142535F504F5335
:1043E00000000000001603000000000002454C5FC2
:1043F000504F5300000000000009020000000000C0
:10440000034D41524B000000000000000016030065
:104410000000000004535045454400000000000027
:1044200000140300000000000541434300000000A9
:1044300000000000000C02008A0000000644454312
:104440000000000000000000000C02008A000000D4
:10445000074D41585F53504545440000000A020093
:1044600041000000084D494E5F535045454400004F
:10447000000D0200000000001546535F5350440039
:1044800000000000000A020027000000094B56410E
:104490004C5F484F4C440000000801002900000018
:1044A0000A4B56414C5F52554E0000000008010077
:1044B000290000000B4B56414C5F41434300000074
:1044C00000080100290000000C4B56414C5F444598
:1044D0004300000000080100290000000D494E546F
:1044E0005F53504545440000000E020008040000E0
:1044F0000E53545F534C50000000000000080100B0
:10450000190000000F464E5F534C505F414343007B
:10451000000801002900000010464E5F534C505F18
:10452000444543000008010029000000114B5F547E
:104530004845524D0000000000040100000000004A
:10454000124144435F4F5554000000000005010034
:1045500000000000134F43445F5448000000000077
:104560000004010008000000145354414C4C5F54F7
:1045700048000000000701004000000016535445A9
:10458000505F4D4F44450000000801000700000047
:1045900017414C41524D5F454E000000000801009C
:1045A000FF00000018434F4E46494700000000003E
:1045B00000100200882E0000195354415455530036
:1045C0000000000000100200000000004E4F5000EC
:1045D000000000000000000000005345545041520C
:1045E000414D000000000002474554504152414DEA
:1045F00000000000200152554E00000000000000A5
:104600000000500253544550434C4F434B000000B0
:1046100058014D4F564500000000000000004002C8
:10462000474F544F00000000000000006001474F5A
:10463000544F5F444952000000006802474F554EF6
:1046400054494C0000000000820352454C45415340
:104650004553570000009202474F484F4D45000018
:10466000000000007000474F4D41524B0000000019
:10467000000078005245534554504F53000000004D
:10468000D800524553455444455649434500C0005F
:10469000534F465453544F5000000000B00048415F
:1046A000524453544F5000000000B800534F46543A
:1046B00048495A0000000000A000484152444849BF
:1046C0005A0000000000A800474554535441545577
:1046D00053000000D00000000F48016851F4700141
:1046E00001600E49086850F00100086000200C4A83
:1046F00010600A680B4802400A600B480B4A1060C1
:10470000086830F4802008600020094908605FF0E4
:10471000006008490860704788ED00E000380240FA
:1047200008380240FFFFF6FE103000240438024033
:104730000C38024008ED00E0433A5C5F5F4F776E53
:1047400050726F6A656374735C782D637562652D52
:1047500073706E325C447269766572735C53544D4B
:104760003332463478785F48414C5F4472697665ED
:10477000725C5372635C73746D3332663478785F45
:1047800068616C5F636F727465782E63000000006F
:10479000433A5C5F5F4F776E50726F6A6563747304
:1047A0005C782D637562652D73706E325C4472693E
:1047B000766572735C53544D3332463478785F4873
:1047C000414C5F4472697665725C5372635C7374CA
:1047D0006D3332663478785F68616C5F6770696FDB
:1047E0002E630000433A5C5F5F4F776E50726F6AD2
:1047F000656374735C782D637562652D73706E32BA
:104800005C447269766572735C53544D333246343E
:1048100078785F48414C5F4472697665725C537288
:10482000635C73746D3332663478785F68616C5F93
:104830007263632E63000000433A5C5F5F4F776EE4
:1048400050726F6A656374735C782D637562652D51
:1048500073706E325C447269766572735C53544D4A
:104860003332463478785F48414C5F4472697665EC
:10487000725C5372635C73746D3332663478785F44
:1048800068616C5F7370692E63000000433A5C5F7F
:104890005F4F776E50726F6A656374735C782D63D7
:1048A0007562652D73706E325C44726976657273E1
:1048B0005C53544D3332463478785F48414C5F4402
:1048C00072697665725C5372635C73746D333266C1
:1048D0003478785F68616C5F756172742E63000074
:1048E00080B500F01FF8FEF741FB01BD80B5022046
:1048F000FCF77EFE01BD80B50120FCF779FE01BD0D
:1049000010B5044C2000FFF7E0F82000FEF766F831
:1049100010BD0000BC03002080B54FF40050FCF730
:1049200067FE01BD02480168491C0160704700BF75
:1049300044040020202D2D2D2D2D2D2D2D2D2D2D00
:104940002D2D2D2D2D2D2D2D2D2D2D2D2D2D2D2D97
:104950002D2D2D2D2D2D2D2D2D2D2D2D2D2D2D2D87
:104960000D0A0000204475616C204C36343730202D
:10497000457870616E73696F6E20426F617264205A
:10498000666F722053544D3332204E55434C454F81
:104990000D0A000010B5074979441831064C7C44D3
:1049A000163404E00A68081D114488470146A142F4
:1049B000F8D110BD500000006C00000056616C750D
:1049C0006573206F6620746865207265676973740B
:1049D000657273206F66204C363437305F230000D9
:1049E0004EF68851CEF20001086840F4700008606D
:1049F000BFF34F8FBFF36F8F4FF00070E1EE100ADF
:104A0000704700004FD6FFFFE8000000640300205D
:104A1000000000007FD2FFFF54020000920200005D
:104A200000000020496E697469616C2076616C75C4
:104A3000657320666F72207265676973746572733F
:104A40003A0D0A00437573746F6D2076616C75655D
:104A50007320666F72207265676973746572733A4A
:104A60000D0A00002053544D6963726F656C6563D5
:104A700074726F6E6963732C20323031350D0A0DFC
:104A80000A00000000F00DF8002801D0FFF782FFB7
:104A9000AFF300800020AFF30080FDF7EFF800F0E7
:104AA00002F80120704700F001B8000007463846C0
:104AB00000F002F8FBE7000080B5AFF30080024A87
:104AC00011001820ABBEFBE72600020020582D4342
:104AD0005542452D53504E322076312E312E310D18
:104AE0000A00000020582D4E55434C454F2D494893
:104AF0004D303241310D0A00524556000000000091
:104B0000004657440000000000010000205374617B
:104B1000636B6564206F6E20000000004E55434CAF
:104B2000454F2D463430315245000000206F66203D
:104B30004578704272645F230000000000000000AE
:104B40000102030401020304060708090148804723
:104B500001480047D9460008694B000852535400E9
:104B60000043505900010000AFF30080FFF738FF09
:104B7000FFF788FF0D0A0D0A00000000FFF7FEBFD7
:104B8000FFF7FEBFFFF7FEBFFFF7FEBFFFF7FEBF59
:104B9000FFF7FEBFFFF7FEBFFFF7FEBFFFF7FEBF49
:104BA000FFF7FEBFFFF7FEBFFFF7FEBFFFF7FEBF39
:104BB000FFF7FEBFFFF7FEBFFFF7FEBFFFF7FEBF29
:104BC000FFF7FEBFFFF7FEBFFFF7FEBFFFF7FEBF19
:104BD000FFF7FEBFFFF7FEBFFFF7FEBFFFF7FEBF09
:104BE000FFF7FEBFFFF7FEBFFFF7FEBFFFF7FEBFF9
:104BF000FFF7FEBFFFF7FEBFFFF7FEBFFFF7FEBFE9
:104C0000FFF7FEBFFFF7FEBFFFF7FEBFFFF7FEBFD8
:104C1000FFF7FEBFFFF7FEBFFFF7FEBFFFF7FEBFC8
:104C2000FFF7FEBFFFF7FEBFFFF7FEBFFFF7FEBFB8
:104C3000FFF7FEBFFFF7FEBFFFF7FEBFFFF7FEBFA8
:104C4000FFF7FEBFFFF7FEBFFFF7FEBFFFF7FEBF98
:104C5000FFF7FEBFFFF7FEBFFFF7FEBFFFF7FEBF88
:104C6000FFF7FEBFFFF7FEBFFFF7FEBF10031D08F3
:104C70000008550412B10412ED04100325090008C0
:104C8000570412950412D5041003070A00084104C2
:104C900012790412AB0412DD041003110B00084357
:104CA0000412750412A70412D90410031F0C000883
:104CB0003D04125904127304128F0412A90412C382
:104CC0000412E10412FB041003170D000831041252
:104CD0004B04126904128304129D0412B70412D10A
:104CE0000412EB04100CE90E000848040020000038
:104CF0000240000804100624F400692500088B0413
:104D000012AD0412CF0412ED0410030F2600082B7D
:104D100004124D0412730412970412AF0412C70454
:104D200012DF0412F70410030F2700082704123FB4
:104D3000041257041273041205601200013345284F
:104D400008F31E200001120131F226513C2101F22C
:104D50002A5D78F22A6978F22A7578F22A8178F247
:104D60002A8D78F22A997812153C12A43C12F40488
:104D7000140330010020A5FC2154522118126C1498
:104D800052A818120218522D1812E41443200218C7
:104D9000120318523918125C148398023020020052
:104DA0000402409922040C19A892010C2120211020
:054DB00029C4121008E7
:0400000508004B693B
:00000001FF
