:020000040800F2
:10000000B00A0020AD010008B5010008B7010008E2
:10001000B9010008BB010008BD0100080000000094
:10002000000000000000000000000000BF01000808
:10003000C101000800000000C3010008914700084A
:10004000C7010008C7010008C7010008C701000870
:10005000C7010008C7010008310C00086D0C00083A
:10006000730C0008790C00087F0C0008C701000819
:10007000C7010008C7010008C7010008C701000840
:10008000C7010008C7010008C70100080000000000
:10009000000000000000000000000000850C0008C7
:1000A000C7010008C7010008C7010008C701000810
:1000B000C7010008C7010008C7010008C701000800
:1000C000C7010008C7010008C7010008C7010008F0
:1000D000C7010008C7010008DD4C0008000000004F
:1000E000370C0008C7010008C70100080000000025
:1000F000000000000000000000000000C701000830
:1001000000000000C7010008C7010008C70100087F
:1001100000000000000000000000000000000000DF
:10012000C7010008C7010008C7010008C70100088F
:10013000C7010008000000000000000000000000EF
:10014000000000000000000000000000C7010008DF
:10015000C7010008C7010008C7010008F54C0008E6
:10016000C7010008C70100080000000000000000EF
:10017000000000000000000000000000000000007F
:1001800000000000C701000800000000000000009F
:10019000C7010008DFF810D000F0D6F9004800478A
:1001A00091530008AFF30080B00A00200648804752
:1001B00006480047FEE7FEE7FEE7FEE7FEE7FEE74C
:1001C000FEE7FEE7FEE7FEE7194800089501000894
:1001D000D2B201E000F8012B491EFBD27047002289
:1001E000F6E710B513460A4604461946FFF7F0FF36
:1001F000204610BD2DE9FE4F81EA030404F00044BF
:1002000021F0004100944FF0000B23F0004350EA2E
:1002100001045ED052EA03045BD0C3F30A54C1F375
:100220000A552C44A4F2F3340194A0FB0254C1F308
:10023000130141F48011C3F3130343F4801301FB52
:10024000024400FB034E840A970A44EA815447EAB9
:100250008357A4FB076802958D0A05FB07854FEAC3
:10026000932C04FB0C542705029D4FEA065847EADD
:100270001637B5EB08056EEB070C870E920E47EAB2
:10028000811742EA8312A7FB0201B6EB0B0164EB74
:1002900000042B0D43EA0C335E1844EB1C50DA4685
:1002A0005146E7FB0201C5F313044FEA0B3343EA5F
:1002B00014534FEA0432019C43EA0603A4F10C04F0
:1002C0000294009CCDE900B400F0F0F803B0BDE862
:1002D000F08F00200146F9E70EB5C10F80EAE0700B
:1002E0000844CA07002140F233438DE80E000A4655
:1002F0000B4600F0DBF803B000BD0EB540F2334111
:1003000002910021CDE900110A460B4600F0CEF81B
:1003100003B000BD70B5C1F30A5201F000450024DE
:10032000C1F3130140F2FF3341F480119A4201DA24
:10033000002070BD40F233439A42A2F2334203DC04
:10034000524200F05DF800E090402C43F1D0404272
:1003500070BDC1F30A5210B5C1F3130140F2FF336F
:1003600041F480119A4201DA002010BD40F233437B
:100370009A42A2F2334203DC524200F041F810BD2F
:10038000904010BD00F0004230F000400AD0C10D96
:1003900001F56071C0F3160042EA0151C20840073E
:1003A0001143704700200146704701F0004330B40C
:1003B00021F0004150EA010206D00A0DA2F5607258
:1003C000C1F31301002A02DC30BC00207047440F47
:1003D00044EAC104C100E01830BC00EBC25000F098
:1003E0001FB8202A04DB203A00FA02F100207047EF
:1003F0009140C2F1200320FA03F319439040704763
:10040000202A04DB203A21FA02F00021704721FA69
:1004100002F3D040C2F120029140084319467047D0
:100420000029A8BF7047401C490008BF20F0010008
:10043000704710B4B0FA80FC00FA0CF050EA0104E6
:1004400004BF10BC704749B1CCF1200421FA04F478
:1004500011FA0CF118BF012121430843A3EB0C0151
:10046000CB1D4FEA00614FEA102042BF002010BCB4
:10047000704700EBC35010440029A4BF10BC704764
:10048000401C490008BF20F0010010BC704710B5A7
:10049000141E73F1000408DA401C41F100019218A7
:1004A0005B411A4301D120F0010010BD2DE9F04D50
:1004B00092469B4611B1B1FA81F202E0B0FA80F2A5
:1004C00020329046FFF78DFF04460F4640EA0A00AF
:1004D00041EA0B0153465A46084313D0114653EAEA
:1004E000010019D0C8F140025046FFF789FF0546C8
:1004F0000E46504659464246FFF773FF084305D063
:10050000012004E020463946BDE8F08D0020054377
:1005100046EAE0762C4337430A986305E40AA0EBE9
:1005200008000022FD0A44EA47540A3002D50020A0
:100530000146E9E7010510196941DDE9084500199F
:100540006941BDE8F04DA2E7064C074D06E0E068C2
:1005500040F0010394E8070098471034AC42F6D30A
:10056000FFF71CFE345C0008545C000870B58C1862
:1005700010F8015B15F0070301D110F8013B2A11B7
:1005800006D110F8012B03E010F8016B01F8016BA4
:100590005B1EF9D12B0705D40023521E0DD401F8A0
:1005A000013BFAE710F8013BCB1A921C03E013F869
:1005B000015B01F8015B521EF9D5A142D8D300209E
:1005C00070BDB0F5001F01D3A0F58000704700009A
:1005D000B0F5805F08D200EE100ADFED050AB8EE34
:1005E000400A20EE200A70479FED020A7047000083
:1005F000FED46841000000000146014800F014B834
:10060000EC0200200146014800F00EB8040300206F
:100610000146014800F008B81C03002001460148CB
:1006200000F002B83403002070B504460D4662693C
:1006300020789047E06842682846904720694268E1
:1006400005F15800BDE87040104700000348002243
:100650000189406800F0F2FEFEE700004C03002034
:1006600000B50146002000F0DFFA884201D10E48B3
:1006700000BD012000F0D8FA884202D10A481830A3
:1006800000BD022000F0D0FA884202D10648303086
:1006900000BD032000F0C8FA884202D10248483069
:1006A00000BD002000BD0000EC02002010B50128B4
:1006B00007D0062000F022FFBDE81040072000F020
:1006C0001DBF062000F030FFBDE81040072000F0FD
:1006D0002BBF10B5002000F0A7FA00F079FA00F067
:1006E000C9F900F0C3F8BDE810400120FFF7DEBFF4
:1006F0000146014802F014B90C01002001460148EE
:1007000002F00EB9480100200146014802F008B984
:10071000840100200146014802F002B9C001002016
:100720000146014802F0FCB8FC01002001460148E6
:1007300002F0F6B8380200200146014802F0F0B895
:10074000740200200146014802F0EAB8B00200201D
:1007500000BF704770B50C46154600F039FA28B155
:1007600029462046BDE8704002F094B8FF2070BDD5
:1007700000BF704770B50C46154600F029FA28B145
:1007800029462046BDE8704002F01EBAFF2070BD29
:1007900010B50C4600F01CFA20B12046BDE8104010
:1007A00002F04CBA002010BD10B50C4600F010FA53
:1007B000002804D02046BDE8104002F05FBA10BD0A
:1007C00010B50C4600F004FA002804D02046BDE81D
:1007D000104002F06BBA10BD70B50C46154600F023
:1007E000F7F9002805D029462046BDE8704002F000
:1007F00075BA70BD70B50C4615461E4600F0E8F996
:10080000002806D0324629462046BDE8704002F056
:1008100081BA70BD2DE9F0410C4615461E46069F73
:1008200000F0D6F9002807D03B463246294620463C
:10083000BDE8F04102F08ABABDE8F08110B50C467F
:1008400000F0C6F9002804D02046BDE8104002F0B0
:1008500095BA10BD10B50C4600F0BAF9002804D0C6
:100860002046BDE8104002F0A1BA10BD70B51C4C86
:1008700000222189606800F0E1FD21890122606881
:1008800000F0DCFD002000F0CFF905461CE0284612
:1008900000F09EF9134801220189406800F0CEFD66
:1008A000002002F09BFA044607E0204602F0EEFC2E
:1008B000204602F0C3F9641CE4B2012002F08EFA73
:1008C000A042F2D26D1CEDB2032000F0ADF9A842B7
:1008D000DDD2002000F0A8F9BDE8704000F078B942
:1008E0004C0300206404002070B50C4615461E46DB
:1008F00000F06EF9002806D0324629462046BDE8B1
:10090000704002F071BA70BD70B50C4615461E46B7
:1009100000F05EF9002806D0324629462046BDE8A0
:10092000704002F08DBC70BD10B50C4600F050F95F
:10093000002804D02046BDE8104002F0A7BC10BD3E
:1009400010B50C4600F044F9002804D02046BDE85C
:10095000104002F0B3BC10BD70B50C4615461E46E3
:1009600000F036F9002806D0324629462046BDE878
:10097000704002F0BBBC70BD70B50C4615461E46FB
:1009800000F026F9002806D0324629462046BDE868
:10099000704002F0C3BC70BD10B50C4600F018F9F1
:1009A000002804D02046BDE8104002F0CFBC10BDA6
:1009B00010B50C4600F00CF9002804D02046BDE824
:1009C000104002F0DBBC10BD70B50C46154600F0BF
:1009D000FFF8002805D029462046BDE8704002F007
:1009E000E5BC70BD70B586B00446002C08D1104837
:1009F000016841F001010160006800F00100009011
:100A00000C4D35F814000190012002900390022053
:100A10000490094E01A956F8240000F0C9FB35F8EE
:100A2000141056F82400002200F008FD06B070BD36
:100A300030380240F4570008B00000200449054A4D
:100A400031F8101052F82000002200F0F7BC00002E
:100A5000F4570008B00000200449054A31F810108E
:100A600052F82000012200F0E9BC0000F457000811
:100A7000B00000202DE9F04385B0304D29683048A2
:100A8000026811432960018900911121019100261A
:100A90000296032703974068694600F089FB29689E
:100AA00027480C3002681143296001890091254CC8
:100AB000019402964068694600F07AFB00221146D4
:100AC000062000F047FD29681D48183002681143D0
:100AD000296001890091019402964068694600F0FE
:100AE00067FB00221146072000F034FD002000F0D3
:100AF0009BF80446DFF848804FF0010908F124080C
:100B000014E0296804EB440058F8202011432960C0
:100B100008EB800001890091CDF8049002960397BC
:100B20004068694600F044FB641CE4B2032000F016
:100B30007BF8A042E5D205B0BDE8F0833038024032
:100B40004C030020000021102DE9F04186B004463E
:100B50000D46002C08D11A48016841F004010160DB
:100B6000006800F004000090164EDFF85C8000275B
:100B70005DB936F8140001900297022003900490AA
:100B800058F8240001A900F013FB012D14D136F808
:100B90001400019003970D48029058F8240001A911
:100BA00000F006FB074D00222D1F0F21285700F0F3
:100BB000D1FC285700F0B8FC06B0BDE8F081000079
:100BC00030380240F6570008B40000200000211021
:100BD00004280ED2084A00EB4000084952F82030A1
:100BE0000B6002EB800042684A60008908810120A6
:100BF000704700207047000070030020640400204C
:100C0000B0F5805F08D200EE100ADFED050AB8EEFD
:100C1000400A20EE200A70479FED020A704700004C
:100C2000FED4684100000000042800D3FF20704774
:100C3000012000F0B1BA10B54FF4005000F0ACFA4A
:100C40004FF4806000F0A8FA4FF4006000F0A4FABE
:100C50004FF4805000F0A0FA4FF4804000F09CFA6E
:100C6000BDE810404FF4004000F096BA022000F0BA
:100C700093BA042000F090BA082000F08DBA10203A
:100C800000F08ABA10B5202000F086FA802000F02B
:100C900083FA4FF4807000F07FFABDE810404FF403
:100CA000007000F079BA000000487047085800084A
:100CB00031B500F0DFFB044600F0DCFB0099001BBF
:100CC0008842F9D338BD00002DE9F0412DED028BAB
:100CD00000279FEDF98AF94E01244FF00208A6F192
:100CE0008005B0F5807F7CD02DDC08287ED016DC16
:100CF000012860D0022864D004280CD10020FFF71E
:100D0000AFFC306001210020FFF7A4FD68680128D6
:100D10005DD06C616C64BDEC028BBDE8F081102885
:100D20007ED020287DD08028F5D10020FFF798FCC8
:100D3000306001210846FFF78DFDE868012871D079
:100D4000EC62EC65E7E7B0F5805F6CD016DCB0F5DF
:100D5000007F69D0B0F5806F67D0B0F5006FDAD151
:100D60000020FFF77DFC306000210120FFF772FDBD
:100D7000A86801287DD0AC62AC65CCE7B0F5005F17
:100D800013D0B0F5804F75D0B0F5004FC3D100201F
:100D9000FFF766FC306000210120FFF75BFDA868CB
:100DA000012869D0AC61AC64B5E7BDEC028BBDE84D
:100DB000F041FFF74BBCBDEC028BBDE8F041FFF703
:100DC000C7BCBDEC028BBDE8F041FFF7D1BCB0EE73
:100DD000480A03F0C9FCF0600022034601211046D6
:100DE00001E0D2E002E0FFF7B7FD93E76868012871
:100DF00091D10020FFF734FC306001210020FFF783
:100E000029FD686BA8B1012885D1686E98B30128C7
:100E100081D1C5F8048001210020FFF791FD05E094
:100E20003EE057E0A5E00AE1C9E0E2E06F666F64EA
:100E300071E7686E50B1012884D1C5F804800121A2
:100E40000020FFF77DFD6F666F6564E715220121C5
:100E50000020FFF78FFCC1B2022004F013FBA96F42
:100E6000002200FB01F301211046FFF73DFD6C66F7
:100E700051E7D8E037E100E082E1152200210120AE
:100E8000FFF778FCC1B2022004F0FCFAA96F01223E
:100E900000FB01F311460020FFF726FD6C663AE7E0
:100EA0000020FFF7DDFB306000210846FFF7D2FC91
:100EB0002868012802D02C622C652CE7B0EE480A85
:100EC00003F052FCF0600346002101220846FFF7C0
:100ED00043FDF1E728680128AAD10020FFF7C0FBF5
:100EE000306000210846FFF7B5FC286B70B101287F
:100EF0009ED1286E50B301289AD1C5F800800021F8
:100F00000846FFF71DFD2F662F6404E7286E50B1D9
:100F100001288DD1C5F8008000210846FFF710FD9B
:100F20002F662F65F7E6152200210120FFF722FC2E
:100F3000C1B2022004F0A6FAA96F002200FB01F35F
:100F400011461046FFF7D0FC2C66E4E6002115227E
:100F50000846FFF70FFCC1B2022004F093FAA96F14
:100F6000012200FB01F300210846FFF7BDFC2C66BF
:100F7000D1E6B0EE480A03F0F7FBF0600122034629
:100F800011461046FFF7E8FCDBE60020FFF768FBA0
:100F9000306000210846FFF75DFC2868012802D078
:100FA0002C612C64B7E6B0EE480A03F0DDFBF0607C
:100FB0000022034611461046FFF7CEFCF1E7002061
:100FC000FFF74EFB306001210020FFF743FC68680B
:100FD000012802D06C626C659DE6B0EE480A03F011
:100FE000C3FBF0600346012211460020FFF7B4FC6A
:100FF000F1E70020FFF734FB306001210846FFF7DE
:1010000029FCE868012802D0EC61EC6483E6B0EECC
:10101000480A03F0A9FBF0600346012100220846BC
:10102000FFF79AFCF1E7B0EE480A03F09DFBF06091
:101030000346012200211046FFF78EFC9CE6E8687B
:10104000012895D10020FFF70BFB306001210846F5
:10105000FFF700FCE86B70B1012889D1E86E50B34E
:10106000012885D1C5F80C8001210846FFF768FCEE
:10107000EF66EF644FE6E86E50B1012892D1C5F8F3
:101080000C8001210846FFF75BFCEF66EF6542E646
:10109000152200210120FFF76DFBC1B2022004F0F0
:1010A000F1F9A96F002200FB01F301210846FFF7C7
:1010B0001BFCEC662FE603E000001643280400202A
:1010C000012115220846FFF755FBC1B2022004F0AA
:1010D000D9F9A96F012200FB01F311461046FFF771
:1010E00003FCEC6617E6A86801288FD10020FFF703
:1010F000B7FA306000210120FFF7ACFBA86B68B1A4
:101100000128B7D1A86E40B30128B3D1C5F8088033
:101110000021FFF715FCAF66AF64FCE5A86E48B18F
:101120000128A7D1C5F808800021FFF709FCAF66A8
:10113000AF65F0E5152200210120FFF71BFBC1B2CE
:10114000022004F09FF9A96F002200FB01F3114671
:101150000120FFF7C9FBAC66DDE515220021012067
:10116000FFF708FBC1B2022004F08CF9A96F01223D
:1011700000FB01F300211046FFF7B6FBAC66CAE5A1
:10118000B0EE480A03F0F0FAF06003460022114680
:101190000120FFF7E1FB06E610B504490A680242A8
:1011A00002D00860FFF790FD10BD0000143C014024
:1011B0002DE9F84F04460D469048844212D09048DD
:1011C00084420FD08F4884420CD08F48844209D08B
:1011D0008E48844206D08E48844203D0C5218D4873
:1011E00003F0A1FE28880004000C03D1C621894821
:1011F00003F099FE6868F8B101281DD011281BD0B2
:10120000022819D0122817D08349884214D0834964
:10121000884211D0824988420ED0824988420BD040
:101220008149884208D08149884205D0032803D0EB
:10123000C721784803F077FEA86838B1012805D0A7
:10124000022803D0C821734803F06DFE00264FF03A
:101250000F084FF0010A0AFA06FA2F6807EA0A0790
:1012600057457CD16868022801D0122828D1286906
:10127000C8B1092817D0012815D0022813D0042896
:1012800011D005280FD006280DD007280BD008282C
:1012900009D00A2807D00C2805D00F2803D0D9215F
:1012A0005C4803F040FEF00804EB8000036A71071D
:1012B000C90E08FA01F293432A698A401A4302626E
:1012C00020684FEA460B4FF0030909FA0BF920EAB0
:1012D0000900297901F0030101FA0BF101432160B2
:1012E0006868012805D0022803D0112801D01228EF
:1012F0001CD1E86848B1012807D0022805D003288E
:1013000003D0EC21434803F00EFEA06820EA090058
:10131000E96801FA0BF10143A160606820EA0A0064
:101320002979C1F30011B14001436160E06820EA0E
:101330000900A96801FA0BF10143E1606868C00087
:1013400056D53B48016841F480410160006800F4D3
:1013500080400090374826F00301014400E047E058
:10136000D1F80838B007020F08FA02F08343234887
:10137000844201D1002014E02148844201D101209F
:101380000FE02048844201D102200AE01E48844236
:1013900001D1032005E01D48844201D1042000E072
:1013A000052090401843C1F8080823490868B8434D
:1013B0006A68D20300D5384308601F49091D0868D0
:1013C000B8436A68920300D5384308601A49083167
:1013D0000868B8436A68D20200D5384308601649E5
:1013E0000C310868B8436A68920200D53843086037
:1013F000761C102EFFF42DAFBDE8F88F00000240E0
:101400000004024000080240000C024000100240AC
:10141000001C0240145B00080000111000002110A5
:1014200000003110000012100000221000003210E5
:101430004438024000300140003C014070B506468F
:101440000C461546002C04D140F2B111084803F0B7
:101450006AFD35B1012D04D04FF4D971044803F071
:1014600062FD0DB1B46170BD2004B06170BD0000BB
:10147000145B00080148006870470000A4030020C6
:1014800002480168491C016070470000A403002065
:1014900010B50B48016841F400710160016841F426
:1014A00080610160016841F480710160032000F0F7
:1014B00085F8002000F006F800F015F8002010BDB7
:1014C000003C024010B5044600F03AFA4FF47A723C
:1014D000B0FBF2F000F097FF00222146501E00F012
:1014E00039F8002010BD10B5072000F067F8002281
:1014F000BDE810401146501E00F02CB810B504464F
:10150000002C03DAE021074803F00DFD04F01F0171
:10151000012088406109890001F1E021C1F88001C2
:1015200010BD0000C85A000810B50446002C03DAAC
:10153000D021074803F0F7FC04F01F010120884088
:101540006109890001F1E021C1F8000110BD00002E
:10155000C85A00082DE9F04107460D461646102EE0
:1015600003D3BC21134803F0DEFC102D03D3BD21AF
:10157000104803F0D8FC10480068C0F30223C3F100
:101580000704042C00D90424181D072801D20023C5
:1015900000E0DB1E012000FA04F1491E29409940B9
:1015A0009840401E304001433846BDE8F04102F00B
:1015B000BDBF0000C85A00080CED00E010B504469D
:1015C000072C0BD0062C09D0052C07D0042C05D0F5
:1015D000032C03D0A421084803F0A5FC04F0070164
:1015E000064A10684FF6FF03184040EA01200449FC
:1015F0000843106010BD0000C85A00080CED00E060
:101600000000FA052DE9F04704460D462068401E0B
:101610000E2804D94FF41871C64803F084FC95B124
:10162000012D10D0022D0ED0032D0CD0042D0AD088
:10163000052D08D0062D06D0072D04D040F26121DB
:10164000BC4803F070FCDFF8F0A2DAF80000BB4FF2
:1016500000F00F00DFF8E482083705F0FF0941F2DF
:101660008836A84270D28AF80090DAF8000000F0BC
:101670000F00A84202D00120BDE8F0872078800743
:101680001CD5A068A0B1802812D0902810D0A02826
:101690000ED0B0280CD0C0280AD0D02808D0E0281E
:1016A00006D0F02804D040F27721A24803F03BFC9A
:1016B0003868A16820F0F000084338602078C0073F
:1016C00041D0606850B1012808D0022806D0032814
:1016D00004D040F27E21974803F025FC6068012881
:1016E00009D002280DD003280BD0D8F800108907A4
:1016F0000DD40120C0E7D8F80010890307D40120D9
:10170000BAE7D8F80010890101D40120B4E739689C
:1017100021F0030101433960FFF7ACFE0546606824
:1017200001280BD0022817D003281DD02AE0FFF78C
:10173000A1FE401BB04201D903209DE73868C0F3E9
:1017400081000128F3D1B7E021E0FFF793FE401BB1
:10175000B04201D903208FE73868C0F38100022826
:10176000F3D1A9E0032087E73868FFF783FE401B29
:10177000B042F9D9F6E7FFF77DFE401BB04201D930
:10178000032079E7386810F00C0FF4D194E020784A
:1017900080071CD5A068A0B1802812D0902810D056
:1017A000A0280ED0B0280CD0C0280AD0D02808D04D
:1017B000E02806D0F02804D040F2D1215D4803F0A3
:1017C000B2FB3868A16820F0F00008433860207848
:1017D000C00767D0606850B1012808D0022806D041
:1017E000032804D04FF43671524803F09CFB606824
:1017F000012809D002280DD003280BD0D8F80010FA
:1018000089070DD4012037E7D8F80010890307D4E1
:10181000012031E7D8F80010890101D401202BE71D
:10182000396821F0030101433960FFF723FE804648
:10183000606801280CD0022818D003281ED02DE0A3
:10184000FFF718FEA0EB0800B04201D9032013E710
:101850003868C0F381000128F2D123E0FFF70AFEC7
:10186000A0EB0800B04201D9032005E73868C0F3B7
:1018700081000228F2D115E00320FDE63868FFF769
:10188000F9FDA0EB0800B042F8D9F5E7FFF7F2FD4B
:10189000A0EB0800B04201D90320EDE6386810F053
:1018A0000C0FF3D18AF80090DAF8000000F00F0076
:1018B000A84201D00120DFE620784FF48055400790
:1018C0004FF4A0564FF4C0584FF4E05914D5E068D7
:1018D00060B1A8420AD0B04208D0404506D0484581
:1018E00004D040F23231134803F01DFB3868E16840
:1018F00020F4E050084338602078000715D52069AF
:1019000060B1A8420AD0B04208D0404506D0484550
:1019100004D040F23931074803F005FB38682169EB
:1019200020F4604040EAC10038600020FFF7CAFDA3
:101930000020A1E65C5B0008003C02400038024049
:1019400010B500F043F808490968F02292FAA2F2B3
:1019500001F0F001B2FA82F2D140044A515CC84071
:101960000349086010BD000008380240F85700081D
:10197000A003002010B5FFF7E3FF074909684FF403
:10198000E05292FAA2F201F4E051B2FA82F2D140AE
:10199000024A515CC84010BD08380240F8570008A0
:1019A00010B5FFF7CDFF074909684FF4604292FA7E
:1019B000A2F201F46041B2FA82F2D140024A515CD3
:1019C000C84010BD08380240F857000830B51D481F
:1019D000006810F00C011C481AD04410042916D0DD
:1019E000082915D1174A121F116801F03F01136829
:1019F0005D0247F6C0730CD5B4FBF1F011681940D5
:101A000093FAA3F3B3FA83F3D94048430BE020469B
:101A100030BDB0FBF1F01168194093FAA3F3B3FAAB
:101A200083F3D940484311684FF4403292FAA2F24E
:101A300001F44031B2FA82F2D140491C4900B0FBB6
:101A4000F1F030BD083802400024F4002DE9F84FD1
:101A5000044620680F2804D94FF48071FE4803F033
:101A600062FA2078DFF8F493FD4DC0074FF00006CE
:101A700041F2883859D0606840B1012806D0052865
:101A800004D040F20511F44803F04DFAD9F80000F3
:101A9000C0F3810001280AD0D9F80000C0F381000A
:101AA00002280CD1ED48001F0068400207D52868C5
:101AB00080033AD5606848BB0120BDE8F88FDFF8A5
:101AC000A0A30AF1020A8AF80060FFF7D3FC0746D8
:101AD00006E0FFF7CFFCC01B404501D90320ECE72F
:101AE00028688003F5D420798AF80000606870B116
:101AF000FFF7C0FC074606E0FFF7BCFCC01B4045F3
:101B000001D90320D9E728688003F5D50DE0FFF758
:101B1000B1FC074606E0FFF7ADFCC01B404501D90C
:101B20000320CAE728688003F5D42078CD4F8007CA
:101B300065D5E06830B1012804D04FF4A371C648E0
:101B400003F0F1F920691F2804D940F24711C24877
:101B500003F0E9F9D9F800004FF0F80B10F00C0F82
:101B60000AD0D9F80000C0F38100022818D1BB4880
:101B7000001F0068400213D42868800704D5E0687D
:101B8000012801D0012098E728689BFAABF221696F
:101B9000B2FA82F220F0F8009140084328602EE06B
:101BA000E068E0B101203860FFF764FC824607E09E
:101BB000FFF760FCA0EB0A00642801D903207CE752
:101BC00028688007F4D528689BFAABF22169B2FA3D
:101BD00082F220F0F8009140084328600FE03E6058
:101BE000FFF748FC824607E0FFF744FCA0EB0A0041
:101BF000642801D9032060E728688007F4D420789E
:101C0000000733D5606930B1012804D040F2871154
:101C1000914803F088F9DFF844B2934861690BF109
:101C20006C0B91B101210160FFF724FC824607E0B3
:101C3000FFF720FCA0EB0A00642801D903203CE751
:101C4000DBF800008007F3D510E00660FFF712FC18
:101C5000824607E0FFF70EFCA0EB0A00642801D9DA
:101C600003202AE7DBF800008007F3D42078400740
:101C700068D5A06840B1012806D0052804D040F2FC
:101C8000B111754803F04FF974483830016841F0DC
:101C900080510160006800F080500090DFF8CCB106
:101CA000DBF8000040F48070CBF80000FFF7E2FBA7
:101CB000824607E0FFF7DEFBA0EB0A00642801D9AB
:101CC0000320FAE6DBF80000C005F3D5DFF88CB19D
:101CD0000BF1680B8BF80060FFF7CCFB824607E046
:101CE000FFF7C8FBA0EB0A00404501D90320E4E65A
:101CF000DBF800008007F3D4207A8BF80000A0689E
:101D000080B1FFF7B7FB824607E0FFF7B3FBA0EB1C
:101D10000A00404501D90320CFE6DBF80000800728
:101D2000F3D50FE0FFF7A6FB824607E0FFF7A2FB23
:101D3000A0EB0A00404501D90320BEE6DBF8000015
:101D40008007F3D4A06940B1012806D0022804D04E
:101D500040F2F511404803F0E6F8A069E8B3D9F87D
:101D60000010C1F38101022974D0022804D03E661C
:101D7000FFF780FB04468DE0E06938B1B0F5800FD5
:101D800004D04FF4FF71344803F0CDF8206A3F28A7
:101D900004D940F2FF11304803F0C5F8606AC0383A
:101DA000F02804D94FF400712B4803F0BCF8A06A66
:101DB00002280AD0042808D0062806D0082804D013
:101DC00040F20121244803F0AEF8E06A001F0B281E
:101DD00006D940F20221204800E05EE003F0A3F8BB
:101DE0003E66FFF747FB064606E0FFF743FB801B16
:101DF000642801D9032060E628688001F5D4D4E97D
:101E00000701084347F6C07292FAA2F2616AB2FA79
:101E100082F29140A26A4FF0FF3303EB52024FF47B
:101E2000403393FAA3F3B3FA83F39A401143084380
:101E30004FF0706292FAA2F2E16AB2FA82F2914035
:101E400008430649091F086001203866FFF712FBA6
:101E5000044614E023E000005C5B00080838024000
:101E60000038024000004742800E474200700040A8
:101E7000FFF700FB001B642801D903201DE628683A
:101E80008001F5D509E0FFF7F5FA001B642801D9B8
:101E9000032012E628688001F5D400200DE6012019
:101EA0000BE6000070B50446002C76D0606830B1B7
:101EB000B0F5827F03D0B821554803F034F8A0680C
:101EC00048B1B0F5806F06D0B0F5004F03D0B9210E
:101ED0004F4803F028F8E068B0F5006F04D018B15F
:101EE000BA214B4803F01FF8206928B1022803D01B
:101EF000BB21474803F017F8606928B1012803D0D7
:101F0000BC21434803F00FF8A069B0F5007F07D06B
:101F100030B1B0F5802F03D0BD213D4803F003F868
:101F2000E06988B108280FD010280DD018280BD0F0
:101F3000202809D0282807D0302805D0382803D0F9
:101F4000BE21334802F0EFFF206A28B1802803D079
:101F5000BF212F4802F0E7FF606A28B1102803D0A4
:101F6000C0212B4802F0DFFFA06A30B1B0F5005F5E
:101F700003D0C121264802F0D6FFE06A4FF6FE7179
:101F8000401E884203D9C221214802F0CCFF94F8B8
:101F90005100002518B107E0FFE7012070BD84F86B
:101FA0005050204600F036F8022084F85100206896
:101FB000016821F040010160D4E901010843D4E93E
:101FC00003121143084361690843218B01F4007136
:101FD0000843E1690843216A0843A16A084321686C
:101FE0000860A069042101EA1040616A0843216881
:101FF00048602168E06A08612068C16921F40061D5
:10200000C1616565012084F85100002070BD0000A9
:10201000A45B00082DE9F04186B002682D48002538
:102020002D49022403260527DFF8B080824230D1F3
:10203000086840F001000860086800F001000090A6
:10204000086840F002000860086800F00200009094
:1020500021481430016841F480510160006800F4A7
:1020600080500090C020019002940395049605973B
:1020700001A91B48FFF79CF80820019002940395E2
:102080000496059701A94046FFF792F806B0BDE80F
:10209000F08114488242F9D1086840F002000860DB
:1020A000086800F0020000900B481030016841F40D
:1020B00080410160006800F4804000909000019031
:1020C000029403950496059701A94046FFF770F81E
:1020D000DCE70000003001403038024000040240DC
:1020E00000000240003800402DE9F84F0446DDF8BA
:1020F0002880894692461D4694F85100012804D054
:10210000222802D00220BDE8F88FB9F1000F16D0C6
:10211000BAF1000F13D095B1A06820B14FF4267129
:10212000B74802F000FF94F85000012809D00127B9
:1021300084F8507094F85100012804D006E0012082
:10214000E1E70220DFE7322084F8510000266665CF
:10215000C4F838A0A587E587C4F83090A586E58641
:10216000A664E664A06A4FF40055A84209D120682D
:10217000016821F4005101602068016841F40051B8
:10218000016020680168490603D4016841F04001FC
:102190000160E0684FF48271B0F5006F08D06068AC
:1021A000002875D0884202D1E08E01287CD084E0DE
:1021B000606820B188420CD1E08E012809D1206BE3
:1021C00021680088C860206B801C2063E08E401E60
:1021D000E086E08EE8BBA06AA84204D120680168CE
:1021E00041F480510160434600220121204602F063
:1021F000BBF908B1032086E72068C068A16B08809E
:10220000A06B801CA063E08F401EE087B6E04346D1
:1022100000220221204602F0A7F908B1032072E74C
:10222000206B21680088C860206B801C2063E08ED2
:10223000401E80B2E08638B9A06AA84204D1206866
:10224000016841F48051016000224346012120468B
:1022500000E00EE002F088F908B1032053E720689F
:10226000C068A16B0880A06B801CA063E08F401E3B
:10227000E087E08E0028CAD1606800287ED14346FE
:1022800000220121204602F06FF910B103203AE745
:102290000AE02068C068A16B0880A06B801CA06366
:1022A000E08F401EE08769E0206B411C21632168BC
:1022B0000078C860E08E401EE086E08EE8BBA06A31
:1022C000A84204D12068016841F48051016043466E
:1022D00000220121204602F047F908B1032012E74D
:1022E0002068C068A16B0870E08F401EE08745E061
:1022F000434600220221204602F036F908B10320AD
:1023000001E7206B411C216321680078C860E08EE2
:10231000401E80B2E08638B9A06AA84204D1206885
:10232000016841F4805101604346002201212046AA
:1023300002F01AF910B10320E5E608E02068C16850
:10234000A06B421CA2630170E08F401EE087E08E0C
:102350000028CDD1606888B943460022012120467B
:1023600002F002F908B10320CDE62068C168A06B35
:10237000421CA2630170E08F401EE087A06AA84261
:1023800011D1434600220121204602F0EDF828B188
:10239000606D40F0020060650320B4E62068C0680C
:1023A0000090BDF80000434601228021204602F043
:1023B000DBF828B1606D40F0200060650320A2E6E4
:1023C00084F8517020688168C1F30011A26AAA42A2
:1023D00011D181B1616D41F002016165016821F4A3
:1023E000005101602068016841F40051016084F8E7
:1023F0005060012087E684F85060002083E60000EA
:10240000A45B0008704710B5401EB0F1807F01D377
:10241000012010BD4FF0E02460610F21601702F031
:1024200085F80020A06107202061002010BD10B5B4
:10243000FFF7E8FF10BD704738B50446216808680B
:10244000C0F30000CA6802F48072002807D032B1DD
:10245000086848680090E06B40F00100E06308689D
:10246000C0F340004A6902F0010238B132B1086895
:1024700048680090E06B40F00400E0630868C0F337
:102480008002486900F001003AB130B1086848683C
:102490000090E06B40F00200E0630868C0F3C00009
:1024A0004A6902F0010238B132B108684868009008
:1024B000E06B40F00800E0630868C0F34010C968B2
:1024C00001F0200118B111B1204602F0EEF92068A8
:1024D0000168C1F3C011C06800F0800019B110B1EB
:1024E000204602F063FB20680168C1F38011C068D8
:1024F00000F0400019B110B1204602F0B7F9E06BCE
:10250000002805D0012084F839002046FFF793FF0A
:1025100038BD000070B50446002C1FD03549364A3E
:10252000364BA069E0B12068884207D0904205D0C0
:10253000984203D0FC21324802F0F5FCA069D8B1E2
:10254000B0F5807F18D0B0F5007F15D0B0F5407F92
:1025500012D0FD212A4802F0E6FC0DE0012070BDFA
:102560002068884208D0904206D0984204D040F2B9
:102570000111234802F0D7FCA06838B1B0F5805FA4
:1025800004D040F203111E4802F0CDFCE06938B1DE
:10259000B0F5004F04D04FF48271194802F0C3FC2B
:1025A00094F83900002520B984F83850204600F00E
:1025B00029F8022084F839002068C16821F400510C
:1025C000C160204602F0CAF92068016921F49041F7
:1025D00001612068416921F02A0141612068C168D8
:1025E00041F40051C160E563012084F83900002006
:1025F00070BD000000100140004400400014014084
:10260000EC5B00082DE9F04186B005462D492868AD
:1026100000262D4C02274FF00308884225D1206860
:1026200040F001002060206800F001000090264981
:102630001031086840F400300860086800F4003089
:1026400000900C20019002970396CDF8108007208F
:10265000059001A91D48FEF7ABFD0022114626207A
:10266000FEF778FF2620FEF75FFF194928688842A9
:1026700025D1206840F004002060206800F00400AC
:10268000009011481430016841F020010160006899
:1026900000F020000090C020019002970396CDF832
:1026A00010800820059001A90A48FEF781FD00224C
:1026B00011464720FEF74EFF4720FEF735FF06B0D4
:1026C000BDE8F08100440040303802400000024084
:1026D00000140140000802402DE9F04104460D4677
:1026E000984694F83900012804D0122802D002201C
:1026F000BDE8F0819DB192B194F83800012810D066
:10270000012684F838600027E76394F8390012281E
:1027100009D0222084F83900A285E28536E0012024
:10272000E6E70220E4E7322084F83900F4E7401EAF
:10273000E085A068B0F5805F08D0434600222021E4
:10274000204602F068FAC8B10320D1E743460022D0
:102750002021204602F05FFA08B10320C8E7206973
:1027600028B120684068C1B229806D1C0EE0206845
:102770004068C0F308012980AD1C07E0206990B1D2
:102780002068406800F07F0005F8010BE08D00280C
:10279000CDD194F8390032280AD084F8396084F811
:1027A00038700020A4E72068406805F8010BEDE7C9
:1027B000122084F83900F2E770472DE9F041044611
:1027C0000D46984694F83900012804D0222802D0FA
:1027D0000220BDE8F0819DB192B194F83800012843
:1027E00010D0012684F838600027E76394F8390098
:1027F000222809D0122084F83900A284E2842EE035
:102800000120E6E70220E4E7322084F83900F4E70B
:10281000401EE084A068B0F5805F08D043460022E7
:102820008021204602F0F7F9A8B10320D1E7434602
:1028300000228021204602F0EEF908B10320C8E70B
:1028400028882168C0F308004860206908B16D1C21
:1028500005E0AD1C03E0216815F8010B4860E08C31
:102860000028D5D1434600224021204602F0D3F96A
:1028700008B10320ADE794F83900322805D084F878
:10288000396084F838700020A3E7222084F83900EA
:10289000F7E7704770B50D460024182100F094F951
:1028A0001E4A80B2526810800F2D34D2DFE805F046
:1028B000080B0E1114171A1D202326292C2F320065
:1028C00000F0010427E0C0F3400424E0C0F38004DA
:1028D00021E0C0F3C0041EE0C0F300141BE0C0F30D
:1028E000411418E0C0F3C01415E0C0F3002412E056
:1028F000C0F340240FE0C0F380240CE0C0F3C024F8
:1029000009E0C0F3003406E0C0F3403403E0C0F354
:10291000803400E0C40B204670BD0000940000200D
:1029200010B504460A46383212ED090A01F094FE49
:1029300024F81C0F12ED080A01F0A4FE608012EDCD
:10294000070A01F0E5FEA08012ED060A01F0F6FE8E
:10295000E08012ED050A01F0ABFE208152ED040A81
:102960009FED6D0A12ED0E1A60EE800AC0EE811A1C
:10297000FCEEE10A10EE900AA07252ED030A12ED8D
:102980000E1A60EE800AC0EE811AFCEEE10A10EE2B
:10299000900AE07252ED020A12ED0E1A60EE800A01
:1029A000C0EE811AFCEEE10A10EE900A207352ED9F
:1029B000010A20EE800A52ED0E0A80EE201ABCEECB
:1029C000C10A10EE100A607392ED000A01F08AFE4F
:1029D000E08192ED010A02F03FFD207492ED020ABF
:1029E00002F00EFD607492ED030A02F01FFDA07468
:1029F000107CE07492ED050A02F07AFC607592EDAD
:102A0000060A02F09DFCA075107FE075507F2076CD
:102A1000D08B60831C3CA168A28B20780B680421BA
:102A20009847A168E28B20780B6805219847A16838
:102A3000228C20780B6806219847A168628C207848
:102A40000B6807219847A168A28C20780B680821A1
:102A50009847A16894F8262020780B6809219847A8
:102A6000A16894F8272020780B680A219847A1686C
:102A700094F8282020780B680B219847A16894F8D7
:102A8000292020780B680C219847A168628D207856
:102A90000B680D219847A16894F82C2020780B68CA
:102AA0000E219847A16894F82D2020780B680F21FB
:102AB0009847A16894F82E2020780B681021984739
:102AC000A16894F82F2020780B6811219847A168FD
:102AD00094F8312020780B6813219847A16894F866
:102AE000322020780B6814219847A16894F833208D
:102AF00020780B6815219847A16894F83420207835
:102B00000B6816219847A168E28E20780B68BDE813
:102B10001040172118470000000080432DE9F84FAE
:102B200005460E46184F4FF0000987F80090002424
:102B3000DFF858804FF00A0A0022B8F80810D8F8D9
:102B40000400FEF77BFC06EB440205EB4401022384
:102B50000F48CDF800A0FFF7C7FAB8F80810012217
:102B6000D8F80400FEF76AFC87F8019000BF787877
:102B7000401CC2B27A70142AF8D3641CE4B2042C4C
:102B8000DAD3BDE8F88F0000940000206404002030
:102B9000B404002070B504460020012301EB430576
:102BA000D61A2D5DF600B54028435B1CDBB2032B23
:102BB000F4D970BD30B5DDE9035401EB00100270AB
:102BC00043608560C46030BD7CB505460C4600227C
:102BD00000920192234602220D49284600F02EF968
:102BE0000C490B4800F048F90A490A480831FFF738
:102BF00095FF094A04EB840102EB8100827B02B05D
:102C00002846BDE8704003490831FFF7C3BF000004
:102C1000440400209C000020D8540008192806D243
:102C2000044900EB800001EB8000401C704702A0CB
:102C300070470000D8540008000000001CB504468E
:102C4000002100910B46019112220A49204600F012
:102C5000F5F80949074800F00FF907490648083117
:102C6000FFF75CFF0449022208312046FFF792FF7C
:102C700080B21CBD440400209C0000201CB5002133
:102C800000910B4601910A22064900F0D7F8064947
:102C9000044800F0F1F8BDE81C400349024808313F
:102CA000FFF73CBF440400209C0000201CB500211D
:102CB00000910B4601910B22064900F0BFF806492E
:102CC000044800F0D9F8BDE81C4003490248083127
:102CD000FFF724BF440400209C0000201CB5B1F580
:102CE000800F12D2002200920B4601920622074961
:102CF00000F0A4F80649054800F0BEF8BDE81C4005
:102D0000034903480831FFF709BF1CBD44040020F4
:102D10009C0000201CB5B2F5800F12D20024CDE932
:102D200000240B460722074900F088F806490548A9
:102D300000F0A2F8BDE81C40034903480831FFF742
:102D4000EDBE1CBD440400209C0000201CB5CDE954
:102D500000230B460822074900F070F80649054891
:102D600000F08AF8BDE81C40034903480831FFF72A
:102D7000D5BE0000440400209C0000201CB50021AA
:102D800000910B4601911122064900F057F80649BF
:102D9000044800F071F8BDE81C40034902480831BE
:102DA000FFF7BCBE440400209C0000201CB500219D
:102DB00000910B4601910F22064900F03FF80649A9
:102DC000044800F059F8BDE81C40034902480831A6
:102DD000FFF7A4BE440400209C000020002802D07D
:102DE000012800D0FF2070471CB50024CDE9002445
:102DF0000B460522064900F021F80649044800F078
:102E00003BF8BDE81C40034902480831FFF786BE85
:102E1000440400209C00002010B50649064800F03C
:102E20002BF8044903480831FFF778FE01480830C1
:102E300010BD00009C000020440400202DE9FC4748
:102E40008046DDE90A650F4691469A46094C20788E
:102E5000002804D101202070384600F009FACDE99D
:102E6000006553464A4639464046FFF7A3FEBDE893
:102E7000FC870000940000202DE9F04F002300247F
:102E8000002500221E465B1CDBB28D55521CD2B2BF
:102E9000022AF7D3641CE4B2042CF2D30022DFF838
:102EA000ECC1ACF5FA7606F2FE2505F1120700EB4F
:102EB00002131C78C4EBC4040CEB4404247B8C5434
:102EC00093F80080B8F10A0F2AD2DFE808F0D7059E
:102ED0002A324E567284A0C6D3F8048008EB8808C4
:102EE00016F8288044EA08048C545C6804EB8404D7
:102EF00006EB840494F80E80012408F1010A0DE029
:102F0000A8EB040BD3F808904FEACB0B29FA0BF986
:102F100002EB440B01F80B90641CE4B25445EFD370
:102F2000ACE05B6803EB830316F823301C438C543E
:102F3000A4E0D3F8048008EBC808A84498F80880F7
:102F400044EA08048C540124C4F10309D3F808802E
:102F50004FEAC90928FA09F802EB440901F8098087
:102F6000641CE4B2042CEFD388E05B6803EBC3037A
:102F70002B441B7A1C438C5480E0D3F8048008EB6C
:102F8000C808A84498F8088044EA08048C5401242E
:102F9000C4F10309D3F808804FEAC90928FA09F8EF
:102FA00002EB440901F80980641CE4B2042CEFD35D
:102FB00064E00124C4F10309D3F804804FEAC9098D
:102FC00028FA09F802EB440901F80980641CE4B20C
:102FD000042CEFD352E0D3F8048008EBC808A844CF
:102FE00098F8088044EA08048C540124C4F10309C9
:102FF000D3F808804FEAC90928FA09F802EB440916
:1030000001F80980641CE4B2042CEFD336E0D3F855
:10301000048008EB8808B84498F8048044EAC8049F
:103020008C54D3F8088008EBC808A84498F80880A6
:1030300044EA08048C540124C4F10309D3F80C8039
:103040004FEAC90928FA09F802EB440901F8098096
:10305000641CE4B2042CEFD310E0D3F8048008EB36
:103060008808B84498F8048044EAC8048C549B68E3
:1030700003EBC3032B441B7A1C438C54521CD2B267
:10308000022AFFF414AFBDE8F08F0000CC56000810
:103090000CB5002200920B46019202220149FFF773
:1030A000CDFE0CBD440400200CB5002100910B4660
:1030B000019112220149FFF7C1FE0CBD440400201A
:1030C0000CB5002100910B4601910A220149FFF73E
:1030D000B5FE0CBD440400200CB5002100910B4648
:1030E00001910B220149FFF7A9FE0CBD4404002009
:1030F0000CB5002200920B46019206220149FFF70F
:103100009DFE0CBD440400201CB50024CDE9002424
:103110000B4607220149FFF791FE1CBD4404002025
:103120000CB5CDE900230B4608220249FFF786FEC5
:103130000CBD0000440400200CB5002100910B469A
:10314000019111220149FFF779FE0CBD44040020D2
:103150000CB5002100910B4601910F220149FFF7A8
:103160006DFE0CBD440400201CB50024CDE90024F4
:103170000B4605220149FFF761FE1CBD44040020F7
:103180001CB50024CDE900240B4609220149FFF7B4
:1031900055FE1CBD440400200CB5002100910B46D7
:1031A00001910D220149FFF749FE0CBD44040020A6
:1031B0000CB5002100910B4601910C220149FFF74B
:1031C0003DFE0CBD440400201CB50024CDE90024C4
:1031D0000B4603220149FFF731FE1CBD44040020C9
:1031E0001CB50024CDE900240B4601220149FFF75C
:1031F00025FE1CBD440400200CB5002100910B46A7
:10320000019110220149FFF719FE0CBD4404002072
:103210000CB5002100910B4601910E220149FFF7E8
:103220000DFE0CBD440400200CB5002200920B469C
:10323000019204220149FFF701FE0CBD4404002065
:103240001CB50024CDE900240B4609220649FFF7EE
:10325000F5FD06490448FFF70FFEBDE81C40034991
:1032600002480831FFF75ABC440400209C000020AB
:103270000021002300EB0112137053609360D360B0
:10328000491CC9B20229F5D3704700001CB50021C2
:1032900000910B4601910D220649FFF7CFFD06492B
:1032A0000448FFF7E9FDBDE81C4003490248083126
:1032B000FFF734BC440400209C0000201CB5002112
:1032C00000910B4601910C220649FFF7B7FD064914
:1032D0000448FFF7D1FDBDE81C400349024808310E
:1032E000FFF71CBC440400209C0000201CB50024F7
:1032F000CDE900240B4603220649FFF79FFD06494E
:103300000448FFF7B9FDBDE81C40034902480831F5
:10331000FFF704BC440400209C0000201CB50024DE
:10332000CDE900240B4601220649FFF787FD064937
:103330000448FFF7A1FDBDE81C40034902480831DD
:10334000FFF7ECBB440400209C0000201CB50021CA
:1033500000910B46019110220649FFF76FFD0649C7
:103360000448FFF789FDBDE81C40034902480831C5
:10337000FFF7D4BB440400209C0000201CB50021B2
:1033800000910B4601910E220649FFF757FD0649B1
:103390000448FFF771FDBDE81C40034902480831AD
:1033A000FFF7BCBB440400209C0000201CB5002299
:1033B00000920B46019204220649FFF73FFD0649A1
:1033C0000448FFF759FDBDE81C4003490248083195
:1033D000FFF7A4BB440400209C00002010B500228D
:1033E0001D4B002804D0012809D18878D8B11CE0F1
:1033F000887808B9CC780CB110B104E01A6410BD1B
:10340000CC78012C02D0012802D003E05A6410BD10
:10341000CC7834B10128FAD1C8780128F7D1DA6420
:1034200010BD9A6410BDCC780CB110B103E01A65E0
:1034300010BDCC7814B1012802D003E05A6510BD4C
:10344000CC7834B10128FAD1C8780128F7D1DA65EF
:1034500010BD9A6510BD0000A803002070B586B0AD
:10346000142101A8FCF7BBFE41F63C5001902A4D07
:1034700002950024039401A92848FDF799FE4FF412
:103480000070019002950394254E01A93046FDF786
:103490008FFE4FF4404101910295039401A93046FB
:1034A000FDF786FE802001900295039401A91D4836
:1034B000FDF77EFE002211460820FEF74BF808209B
:1034C000FEF732F8002211460920FEF743F80920E2
:1034D000FEF72AF8002211460A20FEF73BF80A20E0
:1034E000FEF722F8002211461720FEF733F81720C6
:1034F000FEF71AF8002211462820FEF72BF82820A4
:10350000FEF712F801210020FDF71EFB0020FDF759
:1035100069FA06B070BD00000000211000080240EA
:10352000000002400004024010B5204C1E482060FC
:103530004FF4827060600020A060E0600221216191
:10354000012161614902A16120626062A062FEF70F
:1035500027FA1749B0FBF1F080B2022801D200200F
:103560001AE0042801D2082016E0082801D2102011
:1035700012E0102801D218200EE0202801D22020CD
:103580000AE0402801D2282006E0802801D230201D
:1035900002E0FF2806D83820E061BDE8104003486B
:1035A000FEF780BCFEE7000000300140B4040020BC
:1035B000404B4C00FFF7B8BF0848074901604FF483
:1035C000E131416000218160C16001610C224261F2
:1035D0008161C161FEF79EBF00440040700500207C
:1035E0000848074901604FF4E131416000218160E2
:1035F000C16001610C2242618161C161FEF78ABF35
:10360000001401406C060020B0F5806F08D200EE77
:10361000100ADFED050AB8EE400A20EE200A7047D6
:103620009FED020A704700000B2474410000000067
:103630002DED028B8AB00021084601F0BBFBFDF79F
:1036400033FBFE4C606000252846FDF7EDFAFDF7E0
:1036500007F8206005EB4501626801EBC50102EB4C
:103660000111A1604268084690476D1CEDB2042D1F
:10367000EAD301F081FBF14E00250127803E01F0E5
:1036800053FCEFA0D0E900128068CDE90712099041
:10369000EEA0D0E900128068CDE904120690EEA0F9
:1036A000D0E900128068CDE901120390FF230A22BD
:1036B00007A9EC48FFF710F80028E0D107A904AAF1
:1036C0000B5C1354401C0928FADB9DF81C0055289C
:1036D000D5D19DF81D0009287DD009DC0928CED25E
:1036E000DFE800F005FDFCFBFAF9F8F7F600C6E7A5
:1036F000242871D00CDC0A286FD022286ED0232811
:10370000BDD19DF82000002869D0012868D0E7E3EA
:10371000AA2866D0BB2865D0CC28B0D19DF81E0061
:10372000FCF79EFF20609DF81F009DF81E1000EB27
:10373000410000EB400101EBC000616801EBC000FB
:10374000A0608DF81E508DF81F508DF820502A462D
:1037500029462846FDF70EF8FCF7CFFD41EC100B8B
:1037600051EC100BFCF7F5FDFCF72BFFFCF7B4FD5B
:1037700041EC100B51EC100BFCF7CCFD07A901F04C
:10378000A3FEFF230A2207A9B648FFF716F80A206E
:10379000FDF78EFA4FF003088DF820809DF81F107A
:1037A0009DF81E004246FCF7E5FFFCF7A6FD41EC44
:1037B000100B51EC100BFCF7CCFD00F041FF10EEAC
:1037C000100AFCF7DFFD41EC100B51EC100BFCF77D
:1037D000A1FD07A907E09AE2FEE3D1E2FDE3FDE3E4
:1037E000FDE3F4E2FCE301F06FFEFF230A2207A9E8
:1037F0009C48FEF7E2FF0A20FDF75AFA4FF018093D
:103800008DF820909DF81F109DF81E004A46FCF789
:10381000B1FFFCF772FD41EC100B51EC100BFCF703
:1038200079FD07A901F050FEFF230A2207A98D4860
:10383000FEF7C3FF0A20FDF73BFA8DF81E508DF806
:103840001F708DF820502A4639462846FCF792FF13
:10385000FCF753FD41EC100B51EC100BFCF779FD1C
:10386000FCF7AFFEFCF738FD41EC100B51EC100BF0
:10387000FCF750FD07A901F027FEFF230A2207A944
:103880007848FEF79AFF0A20FDF712FA8DF820809B
:103890009DF81F109DF81E004246FCF76BFFFCF7D9
:1038A0002CFD41EC100B51EC100BFCF752FD00F01D
:1038B000C7FE10EE100AFCF765FD41EC100B51EC51
:1038C000100BFCF727FD07A901F0FEFDFF2307E021
:1038D00001E2C9E1ACE18FE172E155E138E11AE1C1
:1038E0000A2207A95F48FEF768FF0A20FDF7E0F902
:1038F0008DF820909DF81F109DF81E004A46FCF799
:1039000039FFFCF7FAFC41EC100B51EC100BFCF703
:1039100001FD07A901F0D8FDFF230A2207A951489C
:10392000FEF74BFF0A20FDF7C3F98DF81E708DF8E6
:103930001F508DF820502A4629463846FCF71AFFBA
:10394000FCF7DBFC41EC100B51EC100BFCF701FD1C
:10395000FCF737FEFCF7C0FC41EC100B51EC100BF0
:10396000FCF7D8FC07A901F0AFFDFF230A2207A945
:103970003C48FEF722FF0A20FDF79AF98DF82080D7
:103980009DF81F109DF81E004246FCF7F3FEFCF761
:10399000B4FC41EC100B51EC100BFCF7DAFC00F01E
:1039A0004FFE10EE100AFCF7EDFC41EC100B51EC51
:1039B000100BFCF7AFFC07A901F086FDFF230A22DC
:1039C00007A92848FEF7F9FE0A20FDF771F98DF8DE
:1039D00020909DF81F109DF81E004A46FCF7CAFE75
:1039E000FCF78BFC41EC100B51EC100BFCF792FC3C
:1039F00007A901F069FDFF230A2207A91948FEF76C
:103A0000DCFE0A20FDF754F98DF81E708DF81F704A
:103A10008DF820502A4639463846FCF7ABFEFCF7B5
:103A20006CFC41EC100B51EC100BFCF792FCFCF71A
:103A3000C8FDFCF751FC41EC100B15E028040020F8
:103A4000FFFFFFFFFFFFFFFFFFFF0000AAA04503EE
:103A5000AAABACADAEA0000000020304050607153A
:103A6000180000007005002051EC100BFCF752FC10
:103A700007A901F029FDFF230A2207A9FE48FEF746
:103A80009CFE0A20FDF714F98DF820809DF81F1088
:103A90009DF81E004246FCF76DFEFCF72EFC41EC43
:103AA000100B51EC100BFCF754FC00F0C9FD10EEAC
:103AB000100AFCF767FC41EC100B51EC100BFCF703
:103AC00029FC07A901F000FDFF230A2207A9EA4803
:103AD000FEF773FE0A20FDF7EBF88DF820909DF8B5
:103AE0001F109DF81E004A46FCF744FEFCF705FC3B
:103AF00041EC100B51EC100BFCF70CFC07A901F08A
:103B0000E3FCFF230A2207A9DB48FEF756FE0A2042
:103B1000FDF7CEF8B3E59DF81E00FCF7A1FD20608F
:103B200007A801F0C7F9306700F010FD70679DF835
:103B30001EC003469DF820209DF81F106046FCF72C
:103B4000D3FEFF230A2207A9CB48FEF736FE96E5EF
:103B50009DF81E00FCF784FD20609DF81F109DF865
:103B60001E0001EB400202EB420303EBC20263685A
:103B700003EBC202A260FCF717FEFF230A2207A98B
:103B8000BD48FEF71AFE7AE59DF81E00FCF768FDB9
:103B900020609DF81F109DF81E0001EB400202EB13
:103BA000420303EBC202636803EBC202A260FCF7AC
:103BB00051FEFF230A2207A9AF48FEF7FEFD5EE58E
:103BC0009DF81E00FCF74CFD20609DF81F109DF82D
:103BD0001E0001EB400202EB420303EBC2026368EA
:103BE00003EBC202A260FCF7E3FEFF230A2207A94F
:103BF000A148FEF7E2FD42E59DF81E00FCF730FD0E
:103C000020609DF81F109DF81E0001EB400202EBA2
:103C1000420303EBC202636803EBC202A260FCF73B
:103C2000BBFEFF230A2207A99348FEF7C6FD26E53F
:103C30009DF81E00FCF714FD20609DF81F109DF8F4
:103C40001E0001EB400202EB420303EBC202636879
:103C500003EBC202A260FCF7F1FDFF230A2207A9D1
:103C60008548FEF7AAFD0AE59DF81E00FCF7F8FC62
:103C700020609DF81F009DF81E1000EB410000EB36
:103C8000400101EBC000616801EBC000A06007A823
:103C900001F010F9FCF731FB41EC100B9DF820000E
:103CA00028B951EC100B81F0004141EC100B51ECA4
:103CB000100BFCF72FFB00F049FC02469DF81F108B
:103CC0009DF81E00FCF788FDFF230A2207A96A4819
:103CD000FEF773FDD3E49DF81E00FCF7C1FC2060E5
:103CE0009DF81F109DF81E0001EB400202EB4203FD
:103CF00003EBC202636803EBC202A260FCF760FD43
:103D0000FF230A2207A95C48FEF757FDB7E49DF898
:103D10001E00FCF7A5FC20609DF81F009DF81E10FA
:103D200000EB410000EB400101EBC000616801EBDA
:103D3000C000A06007A801F0BDF8FCF7DEFA41EC76
:103D4000100B51EC100BFCF730FB00EE100A00F0EA
:103D50000BFDFCF7D2FA41EC100B51EC100BFCF709
:103D6000F8FA03469DF81F109DF81E000022FCF78C
:103D7000F3FDFF230A2207A93F48FEF71EFD7EE45C
:103D80009DF81E00FCF76CFC20609DF81F109DF84C
:103D90001E0001EB400202EB420303EBC202636828
:103DA00003EBC202A260FCF7F3FCFCF7A6FA41ECBD
:103DB000100B51EC100BFCF7ADFA07A901F084FBD6
:103DC000FF230A2207A92C48FEF7F7FC57E49DF8C9
:103DD000200040B3022861D003287CD004287BD087
:103DE00005287AD0062879D0072878D015288DD1D3
:103DF00007A801F05FF8FCF780FA41EC100B51ECDA
:103E0000100BFCF7A6FA03469DF820209DF81F1022
:103E10009DF81E00FCF7B0FDFF230A2207A91648F3
:103E2000FEF7CBFC2BE407A801F044F8FCF765FA99
:103E300041EC100B9DF8210038B1012805D151EC5F
:103E4000100B81F0004141EC100B51EC100BFCF712
:103E500061FA00F07BFBFCF750FA41EC180B51ECD7
:103E6000180BFCF776FA03469DF820209DF81F10EA
:103E70009DF81E0002E0000070050020FCF77CFDAC
:103E800051EC180BFCF746FA07A901F01DFBFF23C4
:103E90000A2207A9FE48FEF790FC28E407A801F0D3
:103EA00009F8FCF72AFA41EC100B51EC100BFCF767
:103EB00031FA00F04BFBFCF720FA41EC100B51EC0F
:103EC000100BFCF746FA03469DF820209DF81F10C2
:103ED0009DF81E0005E030E056E0A8E0F4E040E187
:103EE000D3E2FCF749FD3220FCF7E2FE9DF82020EA
:103EF0009DF81F109DF81E00FCF73CFCFCF7FDF937
:103F000041EC100B51EC100BFCF723FAFCF759FBBA
:103F1000FCF7E2F941EC100B51EC100BFCF7FAF94D
:103F200007A901F0D1FAFF230A2207A9D848FEF712
:103F300044FC3220FCF7BCFEECE507A800F0BAFF19
:103F4000FCF7DBF941EC100B51EC100BFCF72DFAF0
:103F500000EE100A00F008FCFCF7CFF941EC100B62
:103F600051EC100BFCF7F5F903469DF820209DF865
:103F70001F109DF81E00FCF7FFFCFF230A2207A973
:103F8000C348FEF71AFCC5E507A800F093FFFCF74D
:103F9000B4F941EC100B51EC100BFCF706FA00EEF3
:103FA000100A00F059FBFCF7A8F941EC100B51EC9A
:103FB000100BFCF7CEF903469DF820209DF81F104A
:103FC0009DF81E00FCF7D8FC3220FCF771FE9DF82E
:103FD00020209DF81F1004E077E2E8E153E255E26B
:103FE0000CE19DF81E00FCF7C5FBFCF786F941ECDF
:103FF000100B51EC100BFCF7ACF980B2FCF7E8FAAF
:1040000010EE100AFCF7BEF941EC100B51EC100B4E
:10401000FCF780F907A901F057FAFF230A2207A944
:104020009B48FEF7CAFB3220FCF742FE72E507A868
:1040300000F040FFFCF761F941EC100B51EC100B64
:10404000FCF7B3F900EE100A00F01CFBFCF755F981
:1040500041EC100B51EC100BFCF77BF903469DF87B
:1040600020209DF81F109DF81E00FCF785FC3220D3
:10407000FCF71EFE9DF820209DF81F109DF81E00E5
:10408000FCF778FBFCF739F941EC100B51EC100B05
:10409000FCF75FF980B2FCF7B3FD10EE100AFCF7F5
:1040A00071F941EC100B51EC100BFCF733F907A937
:1040B00001F00AFAFF230A2207A97548FEF77DFBE3
:1040C0003220FCF7F5FD25E507A800F0F3FEFCF72C
:1040D00014F941EC100B51EC100BFCF766F900EEF3
:1040E000100A00F015FBFCF708F941EC100B51EC3D
:1040F000100BFCF72EF903469DF820209DF81F10A9
:104100009DF81E00FCF738FC3220FCF7D1FD9DF82D
:1041100020209DF81F109DF81E00FCF72BFBFCF7DC
:10412000ECF841EC100B51EC100BFCF712F980B2DB
:10413000FFF76AFA10EE100AFCF724F941EC100BB5
:1041400051EC100BFCF7E6F807A901F0BDF9FF23CD
:104150000A2207A94E48FEF730FB3220FCF7A8FDE3
:10416000D8E407A800F0A6FEFCF7C7F841EC100B56
:1041700051EC100BFCF719F900EE100A00F0DEFA12
:10418000FCF7BBF841EC100B51EC100BFCF7E1F81D
:1041900003469DF820209DF81F109DF81E00FCF797
:1041A000EBFB3220FCF784FD9DF820209DF81F10CA
:1041B0009DF81E00FCF7DEFAFCF79FF841EC100BAF
:1041C00051EC100BFCF7C5F880B200F087F910EE47
:1041D000100AFCF7D7F841EC100B51EC100BFCF770
:1041E00099F807A901F070F9FF230A2207A92848C6
:1041F000FEF7E3FA3220FCF75BFD8BE49DF81E002E
:10420000FCF72EFA20609DF81F109DF81E0001EBB0
:10421000400202EB420303EBC202636803EBC202FB
:10422000A26004228DF82020FCF7A4FAFCF765F8C0
:1042300041EC100B51EC100BFCF78BF880B2FCF743
:10424000C7F910EE100AFCF79DF841EC100B51EC89
:10425000100BFCF75FF807A901F036F9FF230A22DB
:1042600007A90B48FEF7A9FA3220FCF721FD052229
:104270008DF820209DF81F109DF81E00FCF77AFA9B
:10428000FCF73BF841EC100B51EC100B02E0000086
:1042900070050020FCF75DF880B2FCF7B1FC10EE71
:1042A000100AFCF76FF841EC100B51EC100BFCF707
:1042B00031F807A901F008F9FF230A2207A9854868
:1042C000FEF77BFA3220FCF7F3FC06228DF8202063
:1042D0009DF81F109DF81E00FCF74CFAFCF70DF836
:1042E00041EC100B51EC100BFCF733F880B2FFF7E8
:1042F0008BF910EE100AFCF745F841EC100B51EC6D
:10430000100BFCF707F807A901F0DEF8FF230A22DB
:1043100007A97048FEF751FA3220FCF7C9FC0722C2
:104320008DF820209DF81F109DF81E00FCF722FA42
:10433000FBF7E3FF41EC100B51EC100BFCF709F815
:1043400080B200F0CBF810EE100AFCF71BF841EC3D
:10435000100B51EC100BFBF7DDFF07A901F0B4F8CF
:10436000FF230A2207A95B48FEF727FA3220FCF751
:104370009FFC15228DF820209DF81F109DF81E002F
:10438000FCF7F8F9FBF7B9FF41EC100B51EC100BFF
:10439000FBF7C0FF07A901F097F8FF230A2207A93E
:1043A0004C48FEF70AFA3220FCF782FC07E49DF83D
:1043B0001E00FCF755F920609DF81F009DF81E10A7
:1043C00000EB410202EB420303EBC202636803EB22
:1043D000C202A26051B948B937609DF8212012B1DC
:1043E000012A02D002E0356300E0376359B90128A1
:1043F00009D177609DF8212012B1012A02D002E094
:10440000756300E0776301290AD148B9B7609DF868
:10441000212012B1012A02D002E0B56300E0B763A7
:1044200001290BD1012809D1F7609DF8210010B1B5
:10443000012802D002E0F56300E0F7639DF8200058
:1044400010B1012803D004E04FF0000801E04FF064
:10445000010807A800F02EFDB0679FED1F0A00F0CD
:1044600083F9FBF74AFF41EC100B51EC100BFBF703
:1044700070FF034608F0FF029DF81F109DF81E0014
:10448000FCF76AFA26E44FF0010801E04FF000085B
:1044900007A94046FEF7A2FF07A800F00BFD306712
:1044A00000F054F8706700F051F8034608F0FF027E
:1044B0009DF81F109DF81E00FCF716FAFF230A2234
:1044C00007A90448FEF779F904E407A800F0F2FC14
:1044D000F0671BE47005002000001643B0F5805F14
:1044E00008D200EE100ADFED050AB8EE400A20EE11
:1044F000200A70479FED020A704700000124743EB5
:104500000000000010B5FCF7C3FF00F049F9FEF70A
:10451000A5FFFFF74FF8FFF74FF8FFF761F8BDE889
:10452000104040F2EE21032000F0D8BC0907090E2C
:10453000002806DA00F00F0000F1E02080F8141DDA
:10454000704700F1E02080F8001470474FF400122B
:10455000904205D300F50011914202D200F580008F
:1045600070474FF4800070472DE9F05F04460F4616
:1045700093461D46FCF77EFF06464FF000084FF4B9
:10458000005A4FF00109BBF1000F26D050E0681C23
:1045900023D025B1FCF76EFF801BA8421DD92068EF
:1045A000416821F0E00141602068016821F040018C
:1045B0000160A06A504509D12068016821F40051CA
:1045C00001602068016841F40051016084F8519055
:1045D00084F850800320BDE8F09F2068806837EAA7
:1045E0000000D4D129E0681C22D025B1FCF742FF9D
:1045F000801BA8421CD92068416821F0E00141607D
:104600002068016821F040010160A06A504509D18D
:104610002068016821F4005101602068016841F4BC
:104620000051016084F8519084F850800320D2E753
:104630002068806837EA0000D5D00020CBE7000072
:1046400000EE100ADFED030AB8EE400A20EE200A61
:10465000704700002A24743C10EE100A0749884273
:1046600009DCDFED070A80EE201ABCEEC10A10EE6D
:10467000100A80B2704700207047000071C668477A
:10468000FED4684110EE100A0749884209DCDFEDCC
:10469000070A80EE201ABCEEC10A10EE100A80B2A2
:1046A000704700207047000071C66847FED468411B
:1046B00010EE100A094988420DDC9FED091AC0EE80
:1046C000010AB6EE000A30EEC00ABCEEC00A10EED7
:1046D000100A80B2704700207047000080E17346E6
:1046E0000000744110EE100A0749884209DCDFED32
:1046F000070A80EE201ABCEEC10A10EE100A80B242
:10470000704700207047000023207444F423743D58
:1047100010EE100A0749884209DCDFED070A80EE37
:10472000201ABCEEC10A10EE100A80B270470020B9
:104730007047000002E773460B24744110EE100A24
:104740000749884209DCDFED070A80EE201ABCEE3B
:10475000C10A10EE100A80B27047002070470000B6
:10476000BF1474440124743E10EE100A06498842B6
:1047700008DCDFED060A80EE201ABCEEC10A10EE5E
:10478000100A7047002070471B2474462A24743C8A
:1047900010B5FCF775FEBDE81040FDF748BE0000FF
:1047A00030B593B01A48016841F08051016000684B
:1047B00000F0805001901748016821F4404141F415
:1047C00000410160006800F4404001900224079419
:1047D00001200A9010200B900D9400250E950F904B
:1047E0004FF4A8701090042011900720129007A891
:1047F000FDF72CF90520029003940495E002059042
:104800000695022102A8FCF7FDFE13B030BD0000A2
:1048100040380240007000401048016841F47001C7
:1048200001600F48016841F0010101600C4A00215C
:104830000832116002680B4B1A400260031D0A4ADD
:104840001A60026822F48022026005480C30016080
:1048500002495806803908607047000088ED00E082
:1048600000380240FFFFF6FE1030002410B501684A
:10487000CA6822F04002CA6090F83910322910D07C
:104880000168CA6822F48072CA6001684A6922F02D
:1048900001024A61012180F83910FDF7FAFF00207A
:1048A00010BD222180F83910F7E710B590F83910C3
:1048B000222903D0322901D0022010BD8168B1F530
:1048C000805F11D0016919B30168496801F07F0365
:1048D000816A4A1C82620B70C18D491E0904090C51
:1048E000C1851CD0002010BD816A02693AB10268FE
:1048F0005268D2B20A80816A491C8162ECE7026880
:104900005268C2F308020A80816A891C8162E3E767
:1049100001684A68816A4B1C83620A70DCE701689F
:10492000CA6822F02002CA6090F83910322910D0EB
:104930000168CA6822F48072CA6001684A6922F07C
:1049400001024A61012180F83910FDF735FF00208E
:1049500010BD122180F83910F7E700002DE9F04171
:1049600004468E496068884204D340F236718C4810
:1049700000F0D9FAE06838B1B0F5005F04D040F239
:104980003771874800F0CFFA206950B1B0F5806FD9
:1049900007D0B0F5C06F04D04FF4E761804800F055
:1049A000C2FA60694FF6F371084200D120B940F2B3
:1049B00039717B4800F0B7FA2068016921F4405151
:1049C000E2680A4302612068C26849F20C618A43C6
:1049D0002369A168E569194363692B4319431143AE
:1049E000C1602068416921F44072A16911434161AD
:1049F000E0696C4A6C4964253226B0F5004F35D029
:104A00002068884201D090427ED1FCF7C9FF00EBBC
:104A1000C00101EB001061688900B0FBF1F0B0FB50
:104A2000F5F7FCF7BDFF00EBC00101EB001061687A
:104A30008900B0FBF1F8FCF7B3FF00EBC00101EB1C
:104A4000001061688900B0FBF1F0B0FBF5F06FF089
:104A50001801484308EB800006EB0010B0FBF5F0AE
:104A6000216867F31F108860BDE8F08120688842E4
:104A700001D090422FD1FCF793FF00EBC00101EB76
:104A8000001061684900B0FBF1F0B0FBF5F7FCF7EE
:104A900087FF00EBC00101EB001061684900B0FB2B
:104AA000F1F8FCF77DFF00EBC00101EB001061683D
:104AB0004900B0FBF1F0B0FBF5F06FF0180148438E
:104AC00008EB800006EB0010B0FBF5F0216867F3FF
:104AD0001F108860C8E7FCF74DFF00EBC00101EB39
:104AE000001061684900B0FBF1F0B0FBF5F7FCF78E
:104AF00041FF00EBC00101EB001061684900B0FB11
:104B0000F1F8FCF737FF00E017E000EBC00101EB24
:104B1000001061684900B0FBF1F0B0FBF5F06FF0F8
:104B20001801484308EB800006EB0010B0FBF5F0DD
:104B3000216867F31F10886096E7FCF71BFF00EB06
:104B4000C00101EB001061688900B0FBF1F0B0FB1F
:104B5000F5F7FCF70FFF00EBC00101EB00106168F7
:104B60008900B0FBF1F8FCF705FF00EBC00101EB99
:104B7000001061688900B0FBF1F0B0FBF5F06FF058
:104B80001801484308EB800006EB0010B0FBF5F07D
:104B9000216867F31F10886066E70000A137A00056
:104BA000EC5B0008001401400010014090F839103F
:104BB000122903D0322901D0022070478168B1F553
:104BC000805F0CD0016A4A1C026202680978516059
:104BD000C18C491E0904090CC18410D019E0016A76
:104BE00002680988C1F308015160016919B1016ABD
:104BF000491C0162ECE7016A891C0162E8E701686F
:104C0000CA6822F08002CA600068C16841F04001B1
:104C1000C160002070472DE9F04704460F469246D8
:104C20001D46FCF727FC06464FF000084FF001092F
:104C3000BAF1000F23D04AE0681C20D025B1FCF760
:104C400019FC801BA8421AD92068C16821F0800194
:104C5000C1602068C16821F02001C1602068C1687E
:104C600021F48071C1602068416921F00101416136
:104C700084F8399084F838800320BDE8F0872068F4
:104C8000006837EA0000D7D126E0681C1FD025B1A4
:104C9000FCF7F0FB801BA84219D92068C16821F0FD
:104CA0008001C1602068C16821F02001C1602068D6
:104CB000C16821F48071C1602068416921F001015F
:104CC000416184F8399084F838800320D5E7206862
:104CD000006837EA0000D8D00020CEE710B50448BD
:104CE000FDF7AAFBBDE81040014800F00FB8000036
:104CF0007005002010B50448FDF79EFBBDE810408C
:104D0000014800F003B800006C06002010B504460E
:104D100020684068C1B2E08D012801D00D2923D15F
:104D2000401CE085A06A401EA0620021017011A114
:104D3000204600F0B3F8206801688906FCD4C168F9
:104D400021F02001C16094F8390032280DD020688C
:104D5000C16821F48071C1602068416921F00101BE
:104D60004161012084F8390010BD122084F8390017
:104D700010BD00000D0A000070B50020FBF754FFC5
:104D8000054611E00020FEF729F8044605E021461B
:104D9000284600F00FF8641CE4B20120FEF71EF86C
:104DA000A042F4D26D1CEDB20320FBF73DFFA842F8
:104DB000E8D270BD70B504460D462046FBF708FFEB
:104DC000002846D023A1244800F068F823A12248F7
:104DD00000F064F80021284600F0E2FA01461E487F
:104DE00000F05CF826A11C4800F058F8002120468D
:104DF00000F0D6FA0146184800F050F824A11648F1
:104E000000F04CF8002421462846FDF7DDFE06465A
:104E10002046FDF703FF01460F4800F03FF81EA1B2
:104E20000D4800F03BF80321304600F0B9FA014686
:104E3000094800F033F807A1074800F02FF8641C78
:104E4000E4B2192CDFD3BDE8704002A1024800F0A3
:104E500025B870BD0D0A00007005002056616C7504
:104E60006573206F66207468652072656769737466
:104E7000657273206F66204C363437305F23000034
:104E8000206F66204578704272645F230000000046
:104E90000D0A0D0A000000003A200000002213460F
:104EA000521CCB5CD2B2002BF9D1521ED2B20A23D3
:104EB000FDF783BC2DE9F041064600244FF48077CE
:104EC000E1B2384600F0DEFA3119897901FB00556C
:104ED000641C042CF4DB2846BDE8F08170B505465F
:104EE0004E0800240DE00020FBF7B6FD3046FBF72E
:104EF000DFFE0020FBF7A2FD3046FBF7D9FE641C65
:104F0000E4B2AC42EFD370BD02E008C8121F08C182
:104F1000002AFAD170477047002001E001C1121F3A
:104F2000002AFBD1704770472DE9F047DFF8B883BE
:104F300000255526D8F810004FF0200908F19004FC
:104F400001280FD1267084F80190A570E570FF2329
:104F50000A222146E548FDF730FCC8F810500A2027
:104F6000FBF7A6FED8F814000127012810D12670FF
:104F700084F80190A570E770DB49FF230A22903185
:104F8000DA48FDF71AFC0A20FBF792FEC8F8145025
:104F9000D8F81800012810D1267084F80190A77065
:104FA000E570D149FF230A229031D048FDF705FC76
:104FB0000A20FBF77DFEC8F81850D8F81C0001281D
:104FC00010D1267084F80190A770E770C649FF23BE
:104FD0000A229031C548FDF7F0FB0A20FBF768FE76
:104FE000C8F81C50D8F820004FF02109012810D132
:104FF000267084F80190A570E570BB49FF230A2252
:105000009031BA48FDF7D9FB0A20FBF751FEC8F8EA
:105010002050D8F82400012810D1267084F801907F
:10502000A570E770B049FF230A229031AF48FDF721
:10503000C4FB0A20FBF73CFEC8F82450D8F828002F
:10504000012810D1267084F80190A770E570A64958
:10505000FF230A229031A548FDF7AFFB0A20FBF79A
:1050600027FEC8F82850D8F82C00012810D1267047
:1050700084F80190A770E7709B49FF230A229031C2
:105080009A48FDF79AFB0A20FBF712FEC8F82C504D
:10509000D8F800004FF02209022810D1C8F80050BB
:1050A000267084F80190A570E5708F49FF230A22CD
:1050B00090318E48FDF781FB0A20FBF7F9FDD8F807
:1050C0000400022810D1C8F80450267084F801901A
:1050D000A570E7708449FF230A2290318348FDF7C9
:1050E0006CFB0A20FBF7E4FDD8F8080002280DD17C
:1050F000C8F80850267084F80190A770E5707A49C6
:10510000FF230A2290317948FDF757FBD8F80C00AD
:10511000022810D1C8F80C50267084F80190A770AE
:10512000E7707149FF230A2290317048FDF745FB73
:105130000A20FBF7BDFD002105220846FBF70AFB0C
:1051400070BBD8F86000012802D1D8F8301011B136
:10515000012811D024E000210846FBF77BFB98EDE5
:105160001F0AB8EEC00AFFF7FFFA0346002101222A
:105170000846FBF7F1FB13E0D8F8300001280FD107
:1051800000210846FBF766FB98ED1F0AB8EEC00A3F
:10519000FFF7EAFA0022034611461046FBF7DCFB54
:1051A000052201210020FBF7D5FA70BBD8F8640076
:1051B000012802D1D8F8341011B1012811D024E00F
:1051C00001210020FBF746FB98ED1F0AB8EEC00A4C
:1051D000FFF7CAFA0346012211460020FBF7BCFB89
:1051E00013E0D8F8340001280FD101210020FBF78B
:1051F00031FB98ED1F0AB8EEC00AFFF7B5FA034677
:10520000002201211046FBF7A7FB05220021012007
:10521000FBF7A0FA68BBD8F86800012802D1D8F8DB
:10522000381011B1012811D023E000210120FBF733
:1052300011FB98ED1F0AB8EEC00AFFF795FA034676
:10524000012200211046FBF787FB12E0D8F8380056
:1052500001280ED10021FBF7FDFA98ED1F0AB8EEE8
:10526000C00AFFF781FA0346002211460120FBF72E
:1052700073FB012105220846FBF76CFA002830D1A8
:10528000D8F86C00012802D1D8F83C10B9B1012837
:1052900027D1D8F83C00012823D101210846FBF78B
:1052A000D9FA98ED1F0AB8EEC00AFFF75DFABDE81B
:1052B000F0470022034601210846FBF74DBB0121C0
:1052C0000846FBF7C7FA98ED1F0AB8EEC00AFFF7C9
:1052D0004BFABDE8F0470122034611461046FBF7A2
:1052E0003BBBBDE8F0870000A8030020700500204C
:1052F00010EE100A104988421CDC9FED101AC0EE17
:10530000010ABCEEE00A10EE100AC0B201EE100A6B
:10531000B8EE411A70EEC10A10EE900AB0F17C5F4F
:1053200004DA10EE100A401EC0B2704710EE100AE8
:10533000C0B27047002070470080BB450080BB436F
:1053400010EE100A104988421CDC9FED101AC0EEC6
:10535000010ABCEEE00A10EE100AC0B201EE100A1B
:10536000B8EE411A70EEC10A10EE900AB0F17C5FFF
:1053700004DA10EE100A401EC0B2704710EE100A98
:10538000C0B270470020704700007A450000FA4123
:10539000FFF7B8F8FBF79DF9FEF74AF9FEE70000C2
:1053A00070B50022002906D0012906D0022906D0B6
:1053B000032907D105E0012204E0022202E00422D1
:1053C00000E00822002100260C4C11E06654531A1C
:1053D0005B1E9B000F259D400540DD40EBB20A2B74
:1053E00002D23033635401E037336354491CC9B2ED
:1053F0009142EBD36654014870BD00006405002063
:1054000010EE100A0749884209DCDFED070A80EE3A
:10541000201ABCEEC10A10EE100AC0B2704700207C
:1054200070470000D911833B6E95833710EE100A48
:105430000749884209DCDFED070A80EE201ABCEE3E
:10544000C10A10EE100AC0B2704700207047000079
:10545000D911833B6E95833710EE100A07498842B5
:1054600009DCDFED070A80EE201ABCEEC10A10EE5F
:10547000100AC0B27047002070470000D911833B6A
:105480006E95833770B506462DED028B0D469FED68
:105490000C8B00240AE03046FAF72FFF53EC182B50
:1054A000FAF7A8FE41EC180B641CA4B2AC42F2D38C
:1054B00051EC180BBDEC028BBDE87040FAF749BF08
:1054C000000000000000F03F8871020ACA71020C5F
:1054D0000A72000E48727047014142535F504F53A9
:1054E00000000000001603000000000002454C5FB1
:1054F000504F5300000000000009020000000000AF
:10550000034D41524B000000000000000016030054
:105510000000000004535045454400000000000016
:105520000014030000000000054143430000000098
:1055300000000000000C02008A0000000644454301
:105540000000000000000000000C02008A000000C3
:10555000074D41585F53504545440000000A020082
:1055600041000000084D494E5F535045454400003E
:10557000000D0200000000001546535F5350440028
:1055800000000000000A020027000000094B5641FD
:105590004C5F484F4C440000000801002900000007
:1055A0000A4B56414C5F52554E0000000008010066
:1055B000290000000B4B56414C5F41434300000063
:1055C00000080100290000000C4B56414C5F444587
:1055D0004300000000080100290000000D494E545E
:1055E0005F53504545440000000E020008040000CF
:1055F0000E53545F534C500000000000000801009F
:10560000190000000F464E5F534C505F414343006A
:10561000000801002900000010464E5F534C505F07
:10562000444543000008010029000000114B5F546D
:105630004845524D00000000000401000000000039
:10564000124144435F4F5554000000000005010023
:1056500000000000134F43445F5448000000000066
:105660000004010008000000145354414C4C5F54E6
:105670004800000000070100400000001653544598
:10568000505F4D4F44450000000801000700000036
:1056900017414C41524D5F454E000000000801008B
:1056A000FF00000018434F4E46494700000000002D
:1056B00000100200882E0000195354415455530025
:1056C0000000000000100200000000004E4F5000DB
:1056D00000000000000000000000534554504152FB
:1056E000414D000000000002474554504152414DD9
:1056F00000000000200152554E0000000000000094
:105700000000500253544550434C4F434B0000009F
:1057100058014D4F564500000000000000004002B7
:10572000474F544F00000000000000006001474F49
:10573000544F5F444952000000006802474F554EE5
:1057400054494C0000000000820352454C4541532F
:105750004553570000009202474F484F4D45000007
:10576000000000007000474F4D41524B0000000008
:10577000000078005245534554504F53000000003C
:10578000D800524553455444455649434500C0004E
:10579000534F465453544F5000000000B00048414E
:1057A000524453544F5000000000B800534F465429
:1057B00048495A0000000000A000484152444849AE
:1057C0005A0000000000A800474554535441545566
:1057D00053000000D0005245560000000000004673
:1057E0005744000000000001525354000043505938
:1057F0000001280020000020000000000102030436
:105800000102030406070809000010410000C84314
:105810009A99D93F0AD74340000070430000C8431B
:105820000000C8430000A04300000000CDAC1644B7
:105830000AD743400AD743400AD743400AD74340D8
:105840007B147642689ACD393598283A3598283AAB
:10585000000000000060524500403F4507FF882ED1
:10586000000010410000C8439A99D93F0AD743402D
:10587000000070430000C8430000C8430000A0437C
:1058800000000000CDAC16440AD743400AD743407D
:105890000AD743400AD743407B147642689ACD39F1
:1058A0003598283A3598283A0000000000605245A3
:1058B00000403F4507FF882E000010410000C8430C
:1058C0009A99D93F0AD74340000070430000C8436B
:1058D0000000C8430000A04300000000CDAC164407
:1058E0000AD743400AD743400AD743400AD7434028
:1058F0007B147642689ACD393598283A3598283AFB
:10590000000000000060524500403F4507FF882E20
:10591000000010410000C8439A99D93F0AD743407C
:10592000000070430000C8430000C8430000A043CB
:1059300000000000CDAC16440AD743400AD74340CC
:105940000AD743400AD743407B147642689ACD3940
:105950003598283A3598283A0000000000605245F2
:1059600000403F4507FF882E000010410000C8435B
:105970009A99D93F0AD74340000070430000C843BA
:105980000000C8430000A04300000000CDAC164456
:105990000AD743400AD743400AD743400AD7434077
:1059A0007B147642689ACD393598283A3598283A4A
:1059B000000000000060524500403F4507FF882E70
:1059C000000010410000C8439A99D93F0AD74340CC
:1059D000000070430000C8430000C8430000A0431B
:1059E00000000000CDAC16440AD743400AD743401C
:1059F0000AD743400AD743407B147642689ACD3990
:105A00003598283A3598283A000000000060524541
:105A100000403F4507FF882E000010410000C843AA
:105A20009A99D93F0AD74340000070430000C84309
:105A30000000C8430000A04300000000CDAC1644A5
:105A40000AD743400AD743400AD743400AD74340C6
:105A50007B147642689ACD393598283A3598283A99
:105A6000000000000060524500403F4507FF882EBF
:105A7000000010410000C8439A99D93F0AD743401B
:105A8000000070430000C8430000C8430000A0436A
:105A900000000000CDAC16440AD743400AD743406B
:105AA0000AD743400AD743407B147642689ACD39DF
:105AB0003598283A3598283A000000000060524591
:105AC00000403F4507FF882E2E2E2F2E2E2F2E2EE4
:105AD0002F2E2E2F2E2E2F2E2E2F4472697665728A
