:020000040800F2
:10000000200A0020AD010008B5010008B701000872
:10001000B9010008BB010008BD0100080000000094
:10002000000000000000000000000000BF01000808
:10003000C101000800000000C3010008D12D000824
:10004000C7010008C7010008C7010008C701000870
:10005000C7010008C7010008710800087F080008F0
:10006000C7010008C7010008C7010008C701000850
:10007000C7010008C7010008C7010008C701000840
:10008000C7010008C7010008C70100080000000000
:10009000000000000000000000000000C701000890
:1000A000C7010008C7010008C7010008C701000810
:1000B000C7010008C7010008C7010008C701000800
:1000C000C7010008C7010008C7010008C7010008F0
:1000D000C7010008C70100081D3300080000000028
:1000E00077080008C7010008C701000800000000E9
:1000F000000000000000000000000000C701000830
:1001000000000000C7010008C7010008C70100087F
:1001100000000000000000000000000000000000DF
:10012000C7010008C7010008C7010008C70100088F
:10013000C7010008000000000000000000000000EF
:10014000000000000000000000000000C7010008DF
:10015000C7010008C7010008C701000835330008BF
:10016000C7010008C70100080000000000000000EF
:10017000000000000000000000000000000000007F
:1001800000000000C701000800000000000000009F
:10019000C7010008DFF810D000F01AF80048004747
:1001A000113A0008AFF30080200A0020064880477B
:1001B00006480047FEE7FEE7FEE7FEE7FEE7FEE74C
:1001C000FEE7FEE7FEE7FEE7592E0008950100086E
:1001D000064C074D06E0E06840F0010394E8070094
:1001E00098471034AC42F6D3FFF7D8FF64420008BA
:1001F0008442000870B58C1810F8015B15F00703F5
:1002000001D110F8013B2A1106D110F8012B03E0AF
:1002100010F8016B01F8016B5B1EF9D12B0705D4B7
:100220000023521E0DD401F8013BFAE710F8013B00
:10023000CB1A921C03E013F8015B01F8015B521E1C
:10024000F9D5A142D8D3002070BD00000146014875
:1002500000F014B8EC0200200146014800F00EB88E
:10026000040300200146014800F008B81C030020E8
:100270000146014800F002B83403002070B504467E
:100280000D46626920789047E068426828469047AA
:100290002069426805F15800BDE870401047000031
:1002A000034800220189406800F05CFCFEE7000082
:1002B0004C03002000B50146002000F0D5FA88422A
:1002C00001D10E4800BD012000F0CEFA884202D1D3
:1002D0000A48183000BD022000F0C6FA884202D158
:1002E0000648303000BD032000F0BEFA884202D13B
:1002F0000248483000BD002000BD0000EC02002094
:1003000010B5012807D0062000F08CFCBDE8104095
:10031000072000F087BC062000F09AFCBDE81040E2
:10032000072000F095BC10B5002000F09DFA00F009
:1003300083FA00F0D3F900F0C3F8BDE810400120C3
:10034000FFF7DEBF0146014801F00EBE0C010020A0
:100350000146014801F008BE48010020014601485D
:1003600001F002BE840100200146014801F0FCBDFD
:10037000C00100200146014801F0F6BDFC0100204B
:100380000146014801F0F0BD380200200146014855
:1003900001F0EABD740200200146014801F0E4BD0D
:1003A000B002002000BF704770B50C46154600F043
:1003B00043FA28B129462046BDE8704001F08EBDC1
:1003C000FF2070BD00BF704770B50C46154600F0A9
:1003D00033FA28B129462046BDE8704001F018BF25
:1003E000FF2070BD10B50C4600F026FA20B1204663
:1003F000BDE8104001F046BF002010BD10B50C460E
:1004000000F01AFA002804D02046BDE8104001F0A0
:1004100059BF10BD10B50C4600F00EFA002804D0EC
:100420002046BDE8104001F065BF10BD70B50C4618
:10043000154600F001FA002805D029462046BDE8FF
:10044000704001F06FBF70BD70B50C4615461E467A
:1004500000F0F2F9002806D0324629462046BDE8D1
:10046000704001F07BBF70BD2DE9F0410C46154690
:100470001E46069F00F0E0F9002807D03B463246B2
:1004800029462046BDE8F04101F084BFBDE8F08177
:1004900010B50C4600F0D0F9002804D02046BDE885
:1004A000104001F08FBF10BD10B50C4600F0C4F92C
:1004B000002804D02046BDE8104001F09BBF10BDCD
:1004C00070B51C4C00222189606800F04BFB21892B
:1004D0000122606800F046FB002000F0C5F90546E7
:1004E0001CE0284600F0A8F9134801220189406861
:1004F00000F038FB002001F095FF044607E020469D
:1005000002F0E8F9204601F0BDFE641CE4B20120CF
:1005100001F088FFA042F2D26D1CEDB2032000F082
:10052000A3F9A842DDD2002000F09EF9BDE870409A
:1005300000F082B94C030020D403002070B50C46B3
:1005400015461E4600F078F9002806D032462946A6
:100550002046BDE8704001F06BBF70BD10B500F0E3
:100560006BF918B1BDE8104001F07ABF002010BD52
:1005700070B50C4615461E4600F05EF9002806D000
:10058000324629462046BDE8704002F07DB970BD74
:1005900010B50C4600F050F9002804D02046BDE804
:1005A000104002F097B910BD10B50C4600F044F9A8
:1005B000002804D02046BDE8104002F0A3B910BDC9
:1005C00070B50C4615461E4600F036F9002806D0D8
:1005D000324629462046BDE8704002F0ABB970BDF6
:1005E00070B50C4615461E4600F026F9002806D0C8
:1005F000324629462046BDE8704002F0B3B970BDCE
:1006000010B50C4600F018F9002804D02046BDE8CB
:10061000104002F0BFB910BD10B50C4600F00CF947
:10062000002804D02046BDE8104002F0CBB910BD30
:1006300070B50C46154600F0FFF8002805D0294695
:100640002046BDE8704002F0D5B970BD70B586B0E7
:100650000446002C08D11048016841F001010160F6
:10066000006800F0010000900C4D35F81400019076
:1006700001200290039002200490094E01A956F82F
:10068000240000F029F935F8141056F8240000224F
:1006900000F068FA06B070BD30380240243E000811
:1006A000B00000200449054A31F8101052F820002B
:1006B000002200F057BA0000243E0008B0000020DD
:1006C0000449054A31F8101052F82000012200F0C8
:1006D00049BA0000243E0008B00000202DE9F04394
:1006E00085B0304D2968304802681143296001897E
:1006F000009111210191002602960327039740687B
:10070000694600F0E9F8296827480C30026811436F
:10071000296001890091254C019402964068694640
:1007200000F0DAF800221146062000F0A7FA296846
:100730001D48183002681143296001890091019415
:1007400002964068694600F0C7F80022114607206B
:1007500000F094FA002000F087F80446DFF84880A3
:100760004FF0010908F1240814E0296804EB440063
:1007700058F820201143296008EB8000018900917E
:10078000CDF80490029603974068694600F0A4F8FB
:10079000641CE4B2032000F067F8A042E5D205B083
:1007A000BDE8F083303802404C03002000002110E7
:1007B0002DE9F04186B004460D46002C08D11A48B8
:1007C000016841F004010160006800F0040000903D
:1007D000164EDFF85C8000275DB936F814000190F2
:1007E000029702200390049058F8240001A900F019
:1007F00073F8012D14D136F81400019003970D48B9
:10080000029058F8240001A900F066F8074D002274
:100810002D1F0F21285700F031FA285700F018FA41
:1008200006B0BDE8F081000030380240263E0008E6
:10083000B40000200000211004280ED2084A00EB6A
:100840004000084952F820300B6002EB80004268FB
:100850004A6000890881012070470020704700002D
:1008600070030020D4030020042800D3FF20704729
:10087000012000F025B84FF4005000F021B802200C
:1008800000F01EB800487047383E000831B500F04F
:1008900085F9044600F082F90099001B8842F9D3DB
:1008A00038BD012806D0022806D0B0F5005F05D17A
:1008B000FFF7F6BCFFF776BDFFF784BD7047000079
:1008C00010B504490A68024202D00860FFF7E9FF48
:1008D00010BD0000143C01402DE9F84F04460D46C0
:1008E0009048844212D0904884420FD08F4884426E
:1008F0000CD08F48844209D08E48844206D08E485E
:10090000844203D0C5218D4803F030F828880004C4
:10091000000C03D1C621894803F028F86868F8B1B3
:1009200001281DD011281BD0022819D0122817D059
:100930008349884214D08349884211D08249884231
:100940000ED0824988420BD08149884208D0814923
:10095000884205D0032803D0C721784803F006F861
:10096000A86838B1012805D0022803D0C8217348EF
:1009700002F0FCFF00264FF00F084FF0010A0AFAC0
:1009800006FA2F6807EA0A0757457CD168680228EB
:1009900001D0122828D12869C8B1092817D0012808
:1009A00015D0022813D0042811D005280FD006280E
:1009B0000DD007280BD0082809D00A2807D00C280A
:1009C00005D00F2803D0D9215C4802F0CFFFF008F2
:1009D00004EB8000036A7107C90E08FA01F2934321
:1009E0002A698A401A43026220684FEA460B4FF098
:1009F000030909FA0BF920EA0900297901F003013A
:100A000001FA0BF1014321606868012805D0022832
:100A100003D0112801D012281CD1E86848B1012860
:100A200007D0022805D0032803D0EC21434802F068
:100A30009DFFA06820EA0900E96801FA0BF1014373
:100A4000A160606820EA0A002979C1F30011B14071
:100A500001436160E06820EA0900A96801FA0BF12E
:100A60000143E1606868C00056D53B48016841F425
:100A700080410160006800F480400090374826F013
:100A80000301014400E047E0D1F80838B007020F45
:100A900008FA02F083432348844201D1002014E085
:100AA0002148844201D101200FE02048844201D135
:100AB00002200AE01E48844201D1032005E01D48BF
:100AC000844201D1042000E0052090401843C1F881
:100AD000080823490868B8436A68D20300D5384338
:100AE00008601F49091D0868B8436A68920300D569
:100AF000384308601A4908310868B8436A68D20266
:100B000000D53843086016490C310868B8436A6854
:100B1000920200D538430860761C102EFFF42DAFEA
:100B2000BDE8F88F000002400004024000080240C7
:100B3000000C024000100240001C0240444100082A
:100B400000001110000021100000311000001210F0
:100B500000002210000032104438024000300140F2
:100B6000003C014070B506460C461546002C04D1E9
:100B700040F2B111084802F0F9FE35B1012D04D060
:100B80004FF4D971044802F0F1FE0DB1B46170BDAB
:100B90002004B06170BD00004441000801480068B5
:100BA00070470000A403002002480168491C01604E
:100BB00070470000A403002010B50B48016841F401
:100BC00000710160016841F480610160016841F4D5
:100BD00080710160032000F085F8002000F006F825
:100BE00000F015F8002010BD003C024010B504468E
:100BF00000F03AFA4FF47A72B0FBF2F000F097FF8F
:100C000000222146501E00F039F8002010BD10B51A
:100C1000072000F067F80022BDE810401146501E82
:100C200000F02CB810B50446002C03DAE021074888
:100C300002F09CFE04F01F01012088406109890038
:100C400001F1E021C1F8800110BD0000F84000086A
:100C500010B50446002C03DAD021074802F086FEC6
:100C600004F01F01012088406109890001F1E021A1
:100C7000C1F8000110BD0000F84000082DE9F04166
:100C800007460D461646102E03D3BC21134802F02A
:100C90006DFE102D03D3BD21104802F067FE1048F1
:100CA0000068C0F30223C3F10704042C00D9042414
:100CB000181D072801D2002300E0DB1E012000FAE6
:100CC00004F1491E294099409840401E304001439C
:100CD0003846BDE8F04101F055BF0000F84000087B
:100CE0000CED00E010B50446072C0BD0062C09D003
:100CF000052C07D0042C05D0032C03D0A4210848D0
:100D000002F034FE04F00701064A10684FF6FF03B4
:100D1000184040EA012004490843106010BD00005B
:100D2000F84000080CED00E00000FA052DE9F0475E
:100D300004460D462068401E0E2804D94FF4187151
:100D4000C64802F013FE95B1012D10D0022D0ED031
:100D5000032D0CD0042D0AD0052D08D0062D06D069
:100D6000072D04D040F26121BC4802F0FFFDDFF8FE
:100D7000F0A2DAF80000BB4F00F00F00DFF8E482C9
:100D8000083705F0FF0941F28836A84270D28AF888
:100D90000090DAF8000000F00F00A84202D0012015
:100DA000BDE8F087207880071CD5A068A0B1802816
:100DB00012D0902810D0A0280ED0B0280CD0C02877
:100DC0000AD0D02808D0E02806D0F02804D040F27D
:100DD0007721A24802F0CAFD3868A16820F0F0002F
:100DE000084338602078C00741D0606850B10128BE
:100DF00008D0022806D0032804D040F27E2197486C
:100E000002F0B4FD6068012809D002280DD0032843
:100E10000BD0D8F8001089070DD40120C0E7D8F80E
:100E20000010890307D40120BAE7D8F8001089011F
:100E300001D40120B4E7396821F00301014339608E
:100E4000FFF7ACFE0546606801280BD0022817D0DA
:100E500003281DD02AE0FFF7A1FE401BB04201D9B4
:100E600003209DE73868C0F381000128F3D1B7E083
:100E700021E0FFF793FE401BB04201D903208FE72A
:100E80003868C0F381000228F3D1A9E0032087E786
:100E90003868FFF783FE401BB042F9D9F6E7FFF749
:100EA0007DFE401BB04201D9032079E7386810F07D
:100EB0000C0FF4D194E0207880071CD5A068A0B175
:100EC000802812D0902810D0A0280ED0B0280CD0A6
:100ED000C0280AD0D02808D0E02806D0F02804D0B6
:100EE00040F2D1215D4802F041FD3868A16820F050
:100EF000F000084338602078C00767D0606850B1C0
:100F0000012808D0022806D0032804D04FF43671F7
:100F1000524802F02BFD6068012809D002280DD04C
:100F200003280BD0D8F8001089070DD4012037E72B
:100F3000D8F80010890307D4012031E7D8F8001051
:100F4000890101D401202BE7396821F00301014315
:100F50003960FFF723FE8046606801280CD0022824
:100F600018D003281ED02DE0FFF718FEA0EB0800D4
:100F7000B04201D9032013E73868C0F3810001288B
:100F8000F2D123E0FFF70AFEA0EB0800B04201D93E
:100F9000032005E73868C0F381000228F2D115E08C
:100FA0000320FDE63868FFF7F9FDA0EB0800B0422A
:100FB000F8D9F5E7FFF7F2FDA0EB0800B04201D940
:100FC0000320EDE6386810F00C0FF3D18AF800909A
:100FD000DAF8000000F00F00A84201D00120DFE69F
:100FE00020784FF4805540074FF4A0564FF4C05876
:100FF0004FF4E05914D5E06860B1A8420AD0B0427D
:1010000008D0404506D0484504D040F2323113485C
:1010100002F0ACFC3868E16820F4E0500843386026
:101020002078000715D5206960B1A8420AD0B042E7
:1010300008D0404506D0484504D040F23931074831
:1010400002F094FC3868216920F4604040EAC10055
:1010500038600020FFF7CAFD0020A1E68C4100089F
:10106000003C02400038024010B500F043F8084947
:101070000968F02292FAA2F201F0F001B2FA82F2CB
:10108000D140044A515CC8400349086010BD0000CB
:1010900008380240283E0008A003002010B5FFF7E2
:1010A000E3FF074909684FF4E05292FAA2F201F413
:1010B000E051B2FA82F2D140024A515CC84010BD00
:1010C00008380240283E000810B5FFF7CDFF074959
:1010D00009684FF4604292FAA2F201F46041B2FA58
:1010E00082F2D140024A515CC84010BD083802402B
:1010F000283E000830B51D48006810F00C011C485F
:101100001AD04410042916D0082915D1174A121FE5
:10111000116801F03F0113685D0247F6C0730CD5FA
:10112000B4FBF1F01168194093FAA3F3B3FA83F317
:10113000D94048430BE0204630BDB0FBF1F01168C8
:10114000194093FAA3F3B3FA83F3D94048431168E3
:101150004FF4403292FAA2F201F44031B2FA82F234
:10116000D140491C4900B0FBF1F030BD08380240C5
:101170000024F4002DE9F84F044620680F2804D914
:101180004FF48071FE4802F0F1FB2078DFF8F49311
:10119000FD4DC0074FF0000641F2883859D0606815
:1011A00040B1012806D0052804D040F20511F448CA
:1011B00002F0DCFBD9F80000C0F3810001280AD05E
:1011C000D9F80000C0F3810002280CD1ED48001FBF
:1011D0000068400207D5286880033AD5606848BB9C
:1011E0000120BDE8F88FDFF8A0A30AF1020A8AF80F
:1011F0000060FFF7D3FC074606E0FFF7CFFCC01BFB
:10120000404501D90320ECE728688003F5D4207914
:101210008AF80000606870B1FFF7C0FC074606E07E
:10122000FFF7BCFCC01B404501D90320D9E7286863
:101230008003F5D50DE0FFF7B1FC074606E0FFF7A8
:10124000ADFCC01B404501D90320CAE728688003D4
:10125000F5D42078CD4F800765D5E06830B10128FE
:1012600004D04FF4A371C64802F080FB20691F2808
:1012700004D940F24711C24802F078FBD9F80000C7
:101280004FF0F80B10F00C0F0AD0D9F80000C0F3A3
:101290008100022818D1BB48001F0068400213D407
:1012A0002868800704D5E068012801D0012098E76C
:1012B00028689BFAABF22169B2FA82F220F0F800BA
:1012C0009140084328602EE0E068E0B101203860DA
:1012D000FFF764FC824607E0FFF760FCA0EB0A0022
:1012E000642801D903207CE728688007F4D52868A2
:1012F0009BFAABF22169B2FA82F220F0F800914039
:10130000084328600FE03E60FFF748FC824607E094
:10131000FFF744FCA0EB0A00642801D9032060E732
:1013200028688007F4D42078000733D5606930B18D
:10133000012804D040F28711914802F017FBDFF832
:1013400044B2934861690BF16C0B91B101210160CA
:10135000FFF724FC824607E0FFF720FCA0EB0A0021
:10136000642801D903203CE7DBF800008007F3D5AF
:1013700010E00660FFF712FC824607E0FFF70EFC64
:10138000A0EB0A00642801D903202AE7DBF800005B
:101390008007F3D42078400768D5A06840B10128C1
:1013A00006D0052804D040F2B111754802F0DEFAEB
:1013B00074483830016841F080510160006800F0E5
:1013C00080500090DFF8CCB1DBF8000040F4807072
:1013D000CBF80000FFF7E2FB824607E0FFF7DEFBF9
:1013E000A0EB0A00642801D90320FAE6DBF800002C
:1013F000C005F3D5DFF88CB10BF1680B8BF80060FA
:10140000FFF7CCFB824607E0FFF7C8FBA0EB0A0022
:10141000404501D90320E4E6DBF800008007F3D45F
:10142000207A8BF80000A06880B1FFF7B7FB8246F6
:1014300007E0FFF7B3FBA0EB0A00404501D903200A
:10144000CFE6DBF800008007F3D50FE0FFF7A6FB3F
:10145000824607E0FFF7A2FBA0EB0A00404501D956
:101460000320BEE6DBF800008007F3D4A06940B19A
:10147000012806D0022804D040F2F511404802F0BD
:1014800075FAA069E8B3D9F80010C1F38101022907
:1014900074D0022804D03E66FFF780FB04468DE03E
:1014A000E06938B1B0F5800F04D04FF4FF713448D3
:1014B00002F05CFA206A3F2804D940F2FF1130485C
:1014C00002F054FA606AC038F02804D94FF4007171
:1014D0002B4802F04BFAA06A02280AD0042808D050
:1014E000062806D0082804D040F20121244802F042
:1014F0003DFAE06A001F0B2806D940F2022120487D
:1015000000E05EE002F032FA3E66FFF747FB064677
:1015100006E0FFF743FB801B642801D9032060E647
:1015200028688001F5D4D4E90701084347F6C07262
:1015300092FAA2F2616AB2FA82F29140A26A4FF084
:10154000FF3303EB52024FF4403393FAA3F3B3FAA1
:1015500083F39A40114308434FF0706292FAA2F26B
:10156000E16AB2FA82F2914008430649091F086015
:1015700001203866FFF712FB044614E023E0000068
:101580008C41000808380240003802400000474201
:10159000800E474200700040FFF700FB001B6428EC
:1015A00001D903201DE628688001F5D509E0FFF781
:1015B000F5FA001B642801D9032012E6286880018F
:1015C000F5D400200DE601200BE6000070B50446BE
:1015D000002C76D0606830B1B0F5827F03D0B8219E
:1015E000554802F0C3F9A06848B1B0F5806F06D045
:1015F000B0F5004F03D0B9214F4802F0B7F9E068C9
:10160000B0F5006F04D018B1BA214B4802F0AEF922
:10161000206928B1022803D0BB21474802F0A6F96F
:10162000606928B1012803D0BC21434802F09EF92B
:10163000A069B0F5007F07D030B1B0F5802F03D09E
:10164000BD213D4802F092F9E06988B108280FD029
:1016500010280DD018280BD0202809D0282807D012
:10166000302805D0382803D0BE21334802F07EF957
:10167000206A28B1802803D0BF212F4802F076F9D4
:10168000606A28B1102803D0C0212B4802F06EF9FF
:10169000A06A30B1B0F5005F03D0C121264802F046
:1016A00065F9E06A4FF6FE71401E884203D9C221F7
:1016B000214802F05BF994F85100002518B107E0C9
:1016C000FFE7012070BD84F85050204600F036F846
:1016D000022084F851002068016821F04001016077
:1016E000D4E901010843D4E90312114308436169B5
:1016F0000843218B01F400710843E1690843216A22
:101700000843A16A084321680860A069042101EA2E
:101710001040616A0843216848602168E06A0861F6
:101720002068C16921F40061C1616565012084F808
:101730005100002070BD0000D44100082DE9F041A7
:1017400086B002682D4800252D490224032605276E
:10175000DFF8B080824230D1086840F001000860B4
:10176000086800F001000090086840F0020008607E
:10177000086800F00200009021481430016841F42C
:1017800080510160006800F480500090C0200190FA
:10179000029403950496059701A91B48FFF79CF84E
:1017A00008200190029403950496059701A94046EC
:1017B000FFF792F806B0BDE8F08114488242F9D1F3
:1017C000086840F002000860086800F0020000901D
:1017D0000B481030016841F480410160006800F45A
:1017E0008040009090000190029403950496059724
:1017F00001A94046FFF770F8DCE700000030014027
:10180000303802400004024000000240003800402E
:101810002DE9F84F0446DDF82880894692461D469A
:1018200094F85100012804D0222802D00220BDE8FB
:10183000F88FB9F1000F16D0BAF1000F13D095B19F
:10184000A06820B14FF42671B74802F08FF894F8E1
:101850005000012809D0012784F8507094F85100F5
:10186000012804D006E00120E1E70220DFE7322072
:1018700084F8510000266665C4F838A0A587E5877E
:10188000C4F83090A586E586A664E664A06A4FF4A5
:101890000055A84209D12068016821F40051016077
:1018A0002068016841F40051016020680168490620
:1018B00003D4016841F040010160E0684FF4827197
:1018C000B0F5006F08D06068002875D0884202D15A
:1018D000E08E01287CD084E0606820B188420CD181
:1018E000E08E012809D1206B21680088C860206B38
:1018F000801C2063E08E401EE086E08EE8BBA06A7C
:10190000A84204D12068016841F480510160434637
:1019100000220121204601F053F908B1032086E797
:101920002068C068A16B0880A06B801CA063E08F5A
:10193000401EE087B6E0434600220221204601F027
:101940003FF908B1032072E7206B21680088C86066
:10195000206B801C2063E08E401E80B2E08638B988
:10196000A06AA84204D12068016841F48051016056
:10197000002243460121204600E00EE001F020F95C
:1019800008B1032053E72068C068A16B0880A06BF2
:10199000801CA063E08F401EE087E08E0028CAD143
:1019A000606800287ED1434600220121204601F0D4
:1019B00007F910B103203AE70AE02068C068A16B7C
:1019C0000880A06B801CA063E08F401EE08769E068
:1019D000206B411C216321680078C860E08E401EA6
:1019E000E086E08EE8BBA06AA84204D120680168C6
:1019F00041F480510160434600220121204601F05C
:101A0000DFF808B1032012E72068C068A16B0870F6
:101A1000E08F401EE08745E0434600220221204639
:101A200001F0CEF808B1032001E7206B411C2163CF
:101A300021680078C860E08E401E80B2E08638B928
:101A4000A06AA84204D12068016841F48051016075
:101A5000434600220121204601F0B2F810B10320D4
:101A6000E5E608E02068C168A06B421CA263017033
:101A7000E08F401EE087E08E0028CDD1606888B9F5
:101A8000434600220121204601F09AF808B10320C4
:101A9000CDE62068C168A06B421CA2630170E08F94
:101AA000401EE087A06AA84211D1434600220121CE
:101AB000204601F085F828B1606D40F002006065B5
:101AC0000320B4E62068C0680090BDF800004346DB
:101AD00001228021204601F073F828B1606D40F0AA
:101AE000200060650320A2E684F8517020688168B8
:101AF000C1F30011A26AAA4211D181B1616D41F016
:101B000002016165016821F40051016020680168EB
:101B100041F40051016084F85060012087E684F8A8
:101B20005060002083E60000D4410008704710B5E3
:101B3000401EB0F1807F01D3012010BD4FF0E024A2
:101B400060610F21601701F01DF80020A0610720DF
:101B50002061002010BD10B5FFF7E8FF10BD7047F1
:101B600038B5044621680868C0F30000CA6802F46A
:101B70008072002807D032B1086848680090E06B96
:101B800040F00100E0630868C0F340004A6902F0D9
:101B9000010238B132B1086848680090E06B40F04B
:101BA0000400E0630868C0F38002486900F00100A7
:101BB0003AB130B1086848680090E06B40F002002C
:101BC000E0630868C0F3C0004A6902F0010238B15E
:101BD00032B1086848680090E06B40F00800E063AC
:101BE0000868C0F34010C96801F0200118B111B1B4
:101BF000204601F07AF920680168C1F3C011C0687D
:101C000000F0800019B110B1204601F0EFFA206811
:101C10000168C1F38011C06800F0400019B110B133
:101C2000204601F043F9E06B002805D0012084F83C
:101C300039002046FFF793FF38BD000070B5044619
:101C4000002C1FD03549364A364BA069E0B12068D8
:101C5000884207D0904205D0984203D0FC213248F8
:101C600001F084FEA069D8B1B0F5807F18D0B0F53E
:101C7000007F15D0B0F5407F12D0FD212A4801F039
:101C800075FE0DE0012070BD2068884208D09042AA
:101C900006D0984204D040F20111234801F066FEBC
:101CA000A06838B1B0F5805F04D040F203111E483F
:101CB00001F05CFEE06938B1B0F5004F04D04FF49C
:101CC0008271194801F052FE94F83900002520B9BC
:101CD00084F83850204600F029F8022084F83900B2
:101CE0002068C16821F40051C160204601F056F916
:101CF0002068016921F4904101612068416921F067
:101D00002A0141612068C16841F40051C160E56366
:101D1000012084F83900002070BD0000001001404F
:101D200000440040001401401C4200082DE9F0412D
:101D300086B005462D49286800262D4C02274FF015
:101D40000308884225D1206840F001002060206807
:101D500000F00100009026491031086840F400307E
:101D60000860086800F4003000900C200190029791
:101D70000396CDF810800720059001A91D48FEF7B5
:101D8000ABFD002211462620FEF778FF2620FEF745
:101D90005FFF19492868884225D1206840F0040077
:101DA0002060206800F004000090114814300168A1
:101DB00041F020010160006800F020000090C02088
:101DC000019002970396CDF810800820059001A994
:101DD0000A48FEF781FD002211464720FEF74EFF1C
:101DE0004720FEF735FF06B0BDE8F0810044004013
:101DF0003038024000000240001401400008024058
:101E000070472DE9F04104460D46984694F8390094
:101E1000012804D0222802D00220BDE8F0819DB123
:101E200092B194F83800012810D0012684F8386067
:101E30000027E76394F83900222809D0122084F89B
:101E40003900A284E2842EE00120E6E70220E4E7E4
:101E5000322084F83900F4E7401EE084A068B0F531
:101E6000805F08D0434600228021204601F0F3F92C
:101E7000A8B10320D1E7434600228021204601F08B
:101E8000EAF908B10320C8E728882168C0F30800F0
:101E90004860206908B16D1C05E0AD1C03E02168B5
:101EA00015F8010B4860E08C0028D5D1434600228C
:101EB0004021204601F0CFF908B10320ADE794F8A6
:101EC0003900322805D084F8396084F83870002051
:101ED000A3E7222084F83900F7E7704770B50D4674
:101EE0000024182100F094F91E4A80B25268108034
:101EF0000F2D34D2DFE805F0080B0E1114171A1D50
:101F0000202326292C2F320000F0010427E0C0F303
:101F1000400424E0C0F3800421E0C0F3C0041EE0CC
:101F2000C0F300141BE0C0F3411418E0C0F3C01468
:101F300015E0C0F3002412E0C0F340240FE0C0F32A
:101F400080240CE0C0F3C02409E0C0F3003406E0B4
:101F5000C0F3403403E0C0F3803400E0C40B2046FB
:101F600070BD00009400002010B504460A463832C7
:101F700012ED090A00F090FE24F81C0F12ED080A79
:101F800000F0A0FE608012ED070A00F0E1FEA080E4
:101F900012ED060A00F0F2FEE08012ED050A00F0F4
:101FA000A7FE208152ED040A9FED6D0A12ED0E1A74
:101FB00060EE800AC0EE811AFCEEE10A10EE900A93
:101FC000A07252ED030A12ED0E1A60EE800AC0EE06
:101FD000811AFCEEE10A10EE900AE07252ED020A5C
:101FE00012ED0E1A60EE800AC0EE811AFCEEE10AD4
:101FF00010EE900A207352ED010A20EE800A52ED95
:102000000E0A80EE201ABCEEC10A10EE100A6073B0
:1020100092ED000A00F086FEE08192ED010A01F0E7
:102020005DFD207492ED020A01F02CFD607492EDCA
:10203000030A01F03DFDA074107CE07492ED050AE6
:1020400001F096FC607592ED060A01F0B9FCA075EE
:10205000107FE075507F2076D08B60831C3CA16898
:10206000A28B20780B6804219847A168E28B207826
:102070000B6805219847A168228C20780B680621FF
:102080009847A168628C20780B6807219847A1685F
:10209000A28C20780B6808219847A16894F8262024
:1020A00020780B6809219847A16894F827202078A8
:1020B0000B680A219847A16894F8282020780B68BB
:1020C0000B219847A16894F8292020780B680C21EF
:1020D0009847A168628D20780B680D219847A16808
:1020E00094F82C2020780B680E219847A16894F86A
:1020F0002D2020780B680F219847A16894F82E2096
:1021000020780B6810219847A16894F82F20207838
:102110000B6811219847A16894F8312020780B684A
:1021200013219847A16894F8322020780B68142175
:102130009847A16894F8332020780B6815219847B8
:10214000A16894F8342020780B6816219847A1687C
:10215000E28E20780B68BDE8104017211847000078
:10216000000080432DE9F84F05460E46184F4FF00A
:10217000000987F800900024DFF858804FF00A0A21
:102180000022B8F80810D8F80400FEF7EBFC06EBC4
:10219000440205EB440102230F48CDF800A0FFF7ED
:1021A00037FBB8F808100122D8F80400FEF7DAFC73
:1021B00087F8019000BF7878401CC2B27A70142A68
:1021C000F8D3641CE4B2042CDAD3BDE8F88F000025
:1021D00094000020D40300202404002070B504469D
:1021E0000020012301EB4305D61A2D5DF600B54012
:1021F00028435B1CDBB2032BF4D970BD30B5DDE99D
:10220000035401EB0010027043608560C46030BD70
:102210007CB505460C46002200920192234602221C
:102220000D49284600F02EF90C490B4800F048F9FA
:102230000A490A480831FFF795FF094A04EB84016F
:1022400002EB8100827B02B02846BDE87040034962
:102250000831FFF7C3BF0000B40300209C0000203A
:10226000083B0008192806D2044900EB800001EB66
:102270008000401C704702A070470000083B000827
:10228000000000001CB50446002100910B4601919E
:1022900012220A49204600F0F5F80949074800F0E3
:1022A0000FF9074906480831FFF75CFF044902228D
:1022B00008312046FFF792FF80B21CBDB403002016
:1022C0009C0000201CB5002100910B4601910A22C0
:1022D000064900F0D7F80649044800F0F1F8BDE8D7
:1022E0001C40034902480831FFF73CBFB4030020FB
:1022F0009C0000201CB5002100910B4601910B228F
:10230000064900F0BFF80649044800F0D9F8BDE8D6
:102310001C40034902480831FFF724BFB4030020E2
:102320009C0000201CB5B1F5800F12D20022009253
:102330000B4601920622074900F0A4F80649054819
:1023400000F0BEF8BDE81C40034903480831FFF720
:1023500009BF1CBDB40300209C0000201CB5B2F5D1
:10236000800F12D20024CDE900240B460722074932
:1023700000F088F80649054800F0A2F8BDE81C40C6
:10238000034903480831FFF7EDBE1CBDB40300202C
:102390009C0000201CB5CDE900230B46082207490C
:1023A00000F070F80649054800F08AF8BDE81C40C6
:1023B000034903480831FFF7D5BE0000B4030020ED
:1023C0009C0000201CB5002100910B4601911122B8
:1023D000064900F057F80649044800F071F8BDE8D6
:1023E0001C40034902480831FFF7BCBEB40300207B
:1023F0009C0000201CB5002100910B4601910F228A
:10240000064900F03FF80649044800F059F8BDE8D5
:102410001C40034902480831FFF7A4BEB403002062
:102420009C000020002802D0012800D0FF20704727
:102430001CB50024CDE900240B460522064900F016
:1024400021F80649044800F03BF8BDE81C40034968
:1024500002480831FFF786BEB40300209C0000202C
:1024600010B50649064800F02BF804490348083126
:10247000FFF778FE0148083010BD00009C000020E6
:10248000B40300202DE9FC478046DDE90A650F46CC
:1024900091469A46094C2078002804D101202070EA
:1024A000384600F009FACDE9006553464A463946F8
:1024B0004046FFF7A3FEBDE8FC8700009400002023
:1024C0002DE9F04F00230024002500221E465B1C4E
:1024D000DBB28D55521CD2B2022AF7D3641CE4B28F
:1024E000042CF2D30022DFF8ECC1ACF5FA7606F248
:1024F000FE2505F1120700EB02131C78C4EBC4049F
:102500000CEB4404247B8C5493F80080B8F10A0F40
:102510002AD2DFE808F0D7052A324E567284A0C6C8
:10252000D3F8048008EB880816F8288044EA0804E9
:102530008C545C6804EB840406EB840494F80E80ED
:10254000012408F1010A0DE0A8EB040BD3F8089070
:102550004FEACB0B29FA0BF902EB440B01F80B9075
:10256000641CE4B25445EFD3ACE05B6803EB830337
:1025700016F823301C438C54A4E0D3F8048008EBF5
:10258000C808A84498F8088044EA08048C54012438
:10259000C4F10309D3F808804FEAC90928FA09F8F9
:1025A00002EB440901F80980641CE4B2042CEFD367
:1025B00088E05B6803EBC3032B441B7A1C438C54F9
:1025C00080E0D3F8048008EBC808A84498F8088095
:1025D00044EA08048C540124C4F10309D3F80880A8
:1025E0004FEAC90928FA09F802EB440901F8098001
:1025F000641CE4B2042CEFD364E00124C4F10309A9
:10260000D3F804804FEAC90928FA09F802EB440913
:1026100001F80980641CE4B2042CEFD352E0D3F833
:10262000048008EBC808A84498F8088044EA080425
:102630008C540124C4F10309D3F808804FEAC90976
:1026400028FA09F802EB440901F80980641CE4B295
:10265000042CEFD336E0D3F8048008EB8808B844A4
:1026600098F8048044EAC8048C54D3F8088008EB36
:10267000C808A84498F8088044EA08048C54012447
:10268000C4F10309D3F80C804FEAC90928FA09F804
:1026900002EB440901F80980641CE4B2042CEFD376
:1026A00010E0D3F8048008EB8808B84498F8048058
:1026B00044EAC8048C549B6803EBC3032B441B7A85
:1026C0001C438C54521CD2B2022AFFF414AFBDE852
:1026D000F08F0000FC3C00080CB5002200920B4675
:1026E000019202220149FFF7CDFE0CBDB403002088
:1026F0000CB5002100910B46019112220149FFF710
:10270000C1FE0CBDB40300200CB5002100910B46A6
:1027100001910A220149FFF7B5FE0CBDB403002068
:102720000CB5002100910B4601910B220149FFF7E6
:10273000A9FE0CBDB40300200CB5002200920B468C
:10274000019206220149FFF79DFE0CBDB403002053
:102750001CB50024CDE900240B4607220149FFF7F0
:1027600091FE1CBDB40300200CB5CDE900230B463F
:1027700008220249FFF786FE0CBD0000B4030020CA
:102780000CB5002100910B46019111220149FFF780
:1027900079FE0CBDB40300200CB5002100910B465E
:1027A00001910F220149FFF76DFE0CBDB40300201B
:1027B0001CB50024CDE900240B4605220149FFF792
:1027C00061FE1CBDB40300201CB50024CDE900242B
:1027D0000B4609220149FFF755FE1CBDB40300203A
:1027E0000CB5002100910B4601910D220149FFF724
:1027F00049FE0CBDB40300200CB5002100910B462E
:1028000001910C220149FFF73DFE0CBDB4030020ED
:102810001CB50024CDE900240B4603220149FFF733
:1028200031FE1CBDB40300201CB50024CDE90024FA
:102830000B4601220149FFF725FE1CBDB403002011
:102840000CB5002100910B46019110220149FFF7C0
:1028500019FE0CBDB40300200CB5002100910B46FD
:1028600001910E220149FFF70DFE0CBDB4030020BB
:102870000CB5002200920B46019204220149FFF799
:1028800001FE0CBDB40300201CB50024CDE90024DA
:102890000B4609220649FFF7F5FD06490448FFF7F4
:1028A0000FFEBDE81C40034902480831FFF75ABC3F
:1028B000B40300209C0000200021002300EB011243
:1028C000137053609360D360491CC9B20229F5D3D9
:1028D000704700001CB5002100910B4601910D22AC
:1028E0000649FFF7CFFD06490448FFF7E9FDBDE8BB
:1028F0001C40034902480831FFF734BCB4030020F0
:102900009C0000201CB5002100910B4601910C2277
:102910000649FFF7B7FD06490448FFF7D1FDBDE8BA
:102920001C40034902480831FFF71CBCB4030020D7
:102930009C0000201CB50024CDE900240B46032296
:102940000649FFF79FFD06490448FFF7B9FDBDE8BA
:102950001C40034902480831FFF704BCB4030020BF
:102960009C0000201CB50024CDE900240B46012268
:102970000649FFF787FD06490448FFF7A1FDBDE8BA
:102980001C40034902480831FFF7ECBBB4030020A8
:102990009C0000201CB5002100910B4601911022E3
:1029A0000649FFF76FFD06490448FFF789FDBDE8BA
:1029B0001C40034902480831FFF7D4BBB403002090
:1029C0009C0000201CB5002100910B4601910E22B5
:1029D0000649FFF757FD06490448FFF771FDBDE8BA
:1029E0001C40034902480831FFF7BCBBB403002078
:1029F0009C0000201CB5002200920B46019204228C
:102A00000649FFF73FFD06490448FFF759FDBDE8B9
:102A10001C40034902480831FFF7A4BBB40300205F
:102A20009C00002010B501210020FDF7C1FEBDE88B
:102A300010400020FDF70ABE10B5204C1E48206053
:102A40004FF4827060600020A060E060022121618C
:102A5000012161614902A16120626062A062FEF70A
:102A600033FB1749B0FBF1F080B2022801D20020FD
:102A70001AE0042801D2082016E0082801D210200C
:102A800012E0102801D218200EE0202801D22020C8
:102A90000AE0402801D2282006E0802801D2302018
:102AA00002E0FF2806D83820E061BDE81040034866
:102AB000FEF78CBDFEE7000000300140240400203A
:102AC000404B4C00FFF7B8BF0848074901604FF47E
:102AD000E131416000218160C16001610C224261ED
:102AE0008161C161FFF7AAB800440040E004002002
:102AF0000848074901604FF4E131416000218160DD
:102B0000C16001610C2242618161C161FFF796B829
:102B1000001401402005002070B5FDF7B3FE0E4DF6
:102B2000686000242046FDF79FFEFDF7C3FB286088
:102B300004EB44016A6801EBC40102EB0111A960D6
:102B4000426808469047641CE4B2042CEAD3BDE80E
:102B5000704000F0F9BC0000A803002010B5FEF79B
:102B60002BF800F03DF9FFF75DFFFFF7ABFFFFF734
:102B7000ABFFFFF7BDFFBDE8104040F2EE210320A0
:102B800000F0BCBC0907090E002806DA00F00F00AF
:102B900000F1E02080F8141D704700F1E02080F87B
:102BA000001470474FF40012904205D300F5001155
:102BB000914202D200F5800070474FF480007047C8
:102BC0002DE9F05F04460F4693461D46FDF7E6FFEC
:102BD00006464FF000084FF4005A4FF00109BBF1D0
:102BE000000F26D050E0681C23D025B1FDF7D6FF9A
:102BF000801BA8421DD92068416821F0E001416096
:102C00002068016821F040010160A06A504509D1A7
:102C10002068016821F4005101602068016841F4D6
:102C20000051016084F8519084F850800320BDE881
:102C3000F09F2068806837EA0000D4D129E0681C42
:102C400022D025B1FDF7AAFF801BA8421CD920681D
:102C5000416821F0E00141602068016821F04001F5
:102C60000160A06A504509D12068016821F4005133
:102C700001602068016841F40051016084F85190BE
:102C800084F850800320D2E72068806837EA00008B
:102C9000D5D00020CBE7000010EE100A074988428B
:102CA00009DCDFED070A80EE201ABCEEC10A10EE47
:102CB000100A80B2704700207047000071C6684754
:102CC000FED4684110EE100A0749884209DCDFEDA6
:102CD000070A80EE201ABCEEC10A10EE100A80B27C
:102CE000704700207047000071C66847FED46841F5
:102CF00010EE100A094988420DDC9FED091AC0EE5A
:102D0000010AB6EE000A30EEC00ABCEEC00A10EEB0
:102D1000100A80B2704700207047000080E17346BF
:102D20000000744110EE100A0749884209DCDFED0B
:102D3000070A80EE201ABCEEC10A10EE100A80B21B
:102D4000704700207047000023207444F423743D32
:102D500010EE100A0749884209DCDFED070A80EE11
:102D6000201ABCEEC10A10EE100A80B27047002093
:102D70007047000002E773460B24744110EE100AFE
:102D80000749884209DCDFED070A80EE201ABCEE15
:102D9000C10A10EE100A80B2704700207047000090
:102DA000BF1474440124743E10EE100A0649884290
:102DB00008DCDFED060A80EE201ABCEEC10A10EE38
:102DC000100A7047002070471B2474462A24743C64
:102DD00010B5FDF7E9FEBDE81040FEF7BCBE0000EF
:102DE00030B593B01A48016841F080510160006825
:102DF00000F0805001901748016821F4404141F4EF
:102E000000410160006800F44040019002240794F2
:102E100001200A9010200B900D9400250E950F9024
:102E20004FF4A8701090042011900720129007A86A
:102E3000FEF7A0F90520029003940495E0020590A6
:102E40000695022102A8FDF771FF13B030BD000006
:102E500040380240007000401048016841F47001A1
:102E600001600F48016841F0010101600C4A002136
:102E70000832116002680B4B1A400260031D0A4AB7
:102E80001A60026822F48022026005480C3001605A
:102E900002495806803908607047000088ED00E05C
:102EA00000380240FFFFF6FE1030002410B5016824
:102EB000CA6822F04002CA6090F83910322910D056
:102EC0000168CA6822F48072CA6001684A6922F007
:102ED00001024A61012180F83910FEF7FEFF00204F
:102EE00010BD222180F83910F7E710B590F839109D
:102EF000222903D0322901D0022010BD8168B1F50A
:102F0000805F11D0016919B30168496801F07F033E
:102F1000816A4A1C82620B70C18D491E0904090C2A
:102F2000C1851CD0002010BD816A02693AB10268D7
:102F30005268D2B20A80816A491C8162ECE7026859
:102F40005268C2F308020A80816A891C8162E3E741
:102F500001684A68816A4B1C83620A70DCE7016879
:102F6000CA6822F02002CA6090F83910322910D0C5
:102F70000168CA6822F48072CA6001684A6922F056
:102F800001024A61012180F83910FEF739FF002063
:102F900010BD122180F83910F7E700002DE9F0414B
:102FA00004468E496068884204D340F236718C48EA
:102FB00000F0DCFCE06838B1B0F5005F04D040F20E
:102FC0003771874800F0D2FC206950B1B0F5806FAE
:102FD00007D0B0F5C06F04D04FF4E761804800F02F
:102FE000C5FC60694FF6F371084200D120B940F288
:102FF00039717B4800F0BAFC2068016921F4405126
:10300000E2680A4302612068C26849F20C618A439F
:103010002369A168E569194363692B431943114387
:10302000C1602068416921F44072A1691143416186
:10303000E0696C4A6C4964253226B0F5004F35D002
:103040002068884201D090427ED1FEF73DF800EB27
:10305000C00101EB001061688900B0FBF1F0B0FB2A
:10306000F5F7FEF731F800EBC00101EB00106168E5
:103070008900B0FBF1F8FEF727F800EBC00101EB87
:10308000001061688900B0FBF1F0B0FBF5F06FF063
:103090001801484308EB800006EB0010B0FBF5F088
:1030A000216867F31F108860BDE8F08120688842BE
:1030B00001D090422FD1FEF707F800EBC00101EBE1
:1030C000001061684900B0FBF1F0B0FBF5F7FDF7C7
:1030D000FBFF00EBC00101EB001061684900B0FB91
:1030E000F1F8FDF7F1FF00EBC00101EB00106168A2
:1030F0004900B0FBF1F0B0FBF5F06FF01801484368
:1031000008EB800006EB0010B0FBF5F0216867F3D8
:103110001F108860C8E7FDF7C1FF00EBC00101EB9D
:10312000001061684900B0FBF1F0B0FBF5F7FDF766
:10313000B5FF00EBC00101EB001061684900B0FB76
:10314000F1F8FDF7ABFF00E017E000EBC00101EB89
:10315000001061684900B0FBF1F0B0FBF5F06FF0D2
:103160001801484308EB800006EB0010B0FBF5F0B7
:10317000216867F31F10886096E7FDF78FFF00EB6B
:10318000C00101EB001061688900B0FBF1F0B0FBF9
:10319000F5F7FDF783FF00EBC00101EB001061685C
:1031A0008900B0FBF1F8FDF779FF00EBC00101EBFE
:1031B000001061688900B0FBF1F0B0FBF5F06FF032
:1031C0001801484308EB800006EB0010B0FBF5F057
:1031D000216867F31F10886066E70000A137A00030
:1031E0001C420008001401400010014090F8391002
:1031F000122903D0322901D0022070478168B1F52D
:10320000805F0CD0016A4A1C026202680978516032
:10321000C18C491E0904090CC18410D019E0016A4F
:1032200002680988C1F308015160016919B1016A96
:10323000491C0162ECE7016A891C0162E8E7016848
:10324000CA6822F08002CA600068C16841F040018B
:10325000C160002070472DE9F04704460F469246B2
:103260001D46FDF79BFC06464FF000084FF0010994
:10327000BAF1000F23D04AE0681C20D025B1FDF739
:103280008DFC801BA8421AD92068C16821F08001FA
:10329000C1602068C16821F02001C1602068C16858
:1032A00021F48071C1602068416921F00101416110
:1032B00084F8399084F838800320BDE8F0872068CE
:1032C000006837EA0000D7D126E0681C1FD025B17E
:1032D000FDF764FC801BA84219D92068C16821F061
:1032E0008001C1602068C16821F02001C1602068B0
:1032F000C16821F48071C1602068416921F0010139
:10330000416184F8399084F838800320D5E720683B
:10331000006837EA0000D8D00020CEE710B5044896
:10332000FEF71EFCBDE81040014800F00FB8000099
:10333000E004002010B50448FEF712FCBDE8104080
:10334000014800F003B800002005002010B5044635
:1033500020684068C1B2E08D012801D00D2923D139
:10336000401CE085A06A401EA0620021017011A1EE
:10337000204600F021F8206801688906FCD4C16865
:1033800021F02001C16094F8390032280DD0206866
:10339000C16821F48071C1602068416921F0010198
:1033A0004161012084F8390010BD122084F83900F1
:1033B00010BD00000D0A000000221346521CCB5C19
:1033C000D2B2002BF9D1521ED2B20A23FEF719BD98
:1033D00010B514A11448FFF7EFFF14A11248FFF72E
:1033E000EBFF17A11048FFF7E7FF21A10E48FFF7F9
:1033F000E3FF2BA10C48FFF7DFFF2DA10A48FFF7E1
:10340000DBFF09482EA14038FFF7D6FF06482DA163
:103410004038FFF7D1FF0448BDE810402FA14038E5
:10342000FFF7CABF0D0A00002005002020582D4ECE
:1034300055434C454F2D49484D303241310D0A001E
:10344000202D2D2D2D2D2D2D2D2D2D2D2D2D2D2DB9
:103450002D2D2D2D2D2D2D2D2D2D2D2D2D2D2D2D9C
:103460002D2D2D2D2D2D2D2D2D2D2D2D0D0A000029
:10347000204475616C204C363437302045787061BB
:103480006E73696F6E20426F61726420666F722086
:1034900053544D3332204E55434C454F0D0A0000D6
:1034A00020537461636B6564206F6E200000000020
:1034B0004E55434C454F2D463430315245000000A7
:1034C000200D0A0020582D435542452D53504E32B1
:1034D0002076312E312E310D0A0000002053544D3C
:1034E0006963726F656C656374726F6E6963732C68
:1034F00020323031350D0A0D0A00000070B5054646
:103500004E0800240DE00020FDF7DAF83046FDF704
:10351000BDF90020FDF7C6F83046FDF7B7F9641C89
:10352000E4B2AC42EFD370BD02E008C8121F08C17C
:10353000002AFAD170477047002001E001C1121F34
:10354000002AFBD1704700002DE9F0472DED028BDA
:10355000E2A1E648FFF730FFE5A1E448FFF72CFFC2
:1035600000244FF4FA7800212046FEF751FE05466C
:103570000020FEF777FE0146DC48FFF71DFF012122
:10358000204600F04FFA0146D848FFF715FFDDA1AD
:10359000D648FFF711FF0321284600F043FA014601
:1035A000D248FFF709FFD8A1D048FFF705FF4046F2
:1035B000FDF76CF9641CE4B2022CD4D90020FDF7AD
:1035C00053F90546D14E33E02846FCF773FE3060D0
:1035D000CF48FFF7E7FA81460020FEF723FF0446B5
:1035E0001FE004EB450000EB400101EBC0007168F7
:1035F00001EBC000B06030684B4600228068214675
:1036000087692846B8473068012221468068876C60
:103610002846B8470028F6D04046FDF737F9641C25
:10362000E4B20120FEF7FEFEA042DAD26D1CEDB23C
:10363000022DC9D9B7A1AD48FFF7BEFE0024474609
:1036400000212046FEF7E4FD05460020FEF70AFEB5
:103650000146A648FFF7B0FEAAA1A448FFF7ACFEBA
:103660000321284600F0DEF90146A048FFF7A4FE3A
:10367000A5A19E48FFF7A0FE3846FDF707F9641C98
:10368000E4B2022CDCD94FF47A784046FDF7FEF81C
:103690000020FDF7E9F805464FF4FA399FEDA68AB8
:1036A00060E02846FCF706FE30600020FEF7BAFE18
:1036B000044650E004EB450000EB400101EBC00084
:1036C000716801EBC000B060A5B92CB93068C06862
:1036D0008068C16E20468847012C0BD1B0EE480AA5
:1036E000FFF762FB02463068002100698068036DC5
:1036F00020469847012D12D13CB930684A46002136
:10370000C0688068836D20469847012C07D13068D7
:103710004A46012100698068836D20469847022D42
:1037200017D15CB9B0EE480AFFF73EFB024630689D
:103730000121C0688068036D20469847012C08D19C
:1037400030684FF44842012100698068836D20464B
:103750009847641CE4B2012CACD92846FCF7FEFE65
:103760006D1CEDB2022D9CD941F288352846FDF73B
:103770008DF80020FDF778F8814626E04846FCF7F2
:1037800099FD30600020FEF74DFE044614E004EB86
:10379000490000EB400101EBC000716801EBC00083
:1037A000B060306800EB8400C0688068D0F880109A
:1037B00020468847641CE4B2012CE8D94846FCF74F
:1037C000CDFE09F1010909F0FF09B9F1020FD5D9C0
:1037D000C1464846FDF75AF858A14448FFF7ECFDAA
:1037E0000020FDF741F8804625E04046FCF762FDE9
:1037F00030600020FEF716FE044613E004EB48009C
:1038000000EB400101EBC000716801EBC000B0604B
:10381000306800EB8400C0688068C16E204688472D
:10382000641CE4B2012CE9D94046FCF797FE08F18C
:10383000010808F0FF08B8F1020FD6D942A12B48C1
:10384000FFF7BAFD2846FDF721F8002400212046A5
:10385000FEF7DEFC05460020FEF704FD0146234886
:10386000FFF7AAFD27A12148FFF7A6FD032128465F
:1038700000F0D8F801461D48FFF79EFD22A11B4825
:10388000FFF79AFD3846FDF701F8641CE4B2022CFC
:10389000DCD900242046FEF7F5FC05462DA113488F
:1038A000FFF78AFD0321284600F0BCF801460F48C7
:1038B000FFF782FD14A10D48FFF77EFD4846FCF797
:1038C000E5FF641CE4B2022CE4D9BDEC028B24A118
:1038D000BDE8F0470548FFF76FBD00004143543293
:1038E00053544152540A200A0D000000E004002005
:1038F000496E697469616C2076616C7565200D0A8A
:10390000000000003A2000000D0A0000A80300207B
:10391000009CFFFF476F546F446972205245562048
:103920002D3078363430303D3D30783346394330B1
:1039300030200D0A0000000000004843536F6674F9
:1039400053746F703A0A2000676F686F6D653A0AAA
:10395000200000005374617475733A200000000069
:1039600041435432656E640A0A0D2000704700001E
:1039700010EE100A104988421CDC9FED101AC0EEB0
:10398000010ABCEEE00A10EE100AC0B201EE100A05
:10399000B8EE411A70EEC10A10EE900AB0F17C5FE9
:1039A00004DA10EE100A401EC0B2704710EE100A82
:1039B000C0B27047002070470080BB450080BB4309
:1039C00010EE100A104988421CDC9FED101AC0EE60
:1039D000010ABCEEE00A10EE100AC0B201EE100AB5
:1039E000B8EE411A70EEC10A10EE900AB0F17C5F99
:1039F00004DA10EE100A401EC0B2704710EE100A32
:103A0000C0B270470020704700007A450000FA41BC
:103A1000FFF7A4F8FCF787FCFFF7DAFCFFF77CF868
:103A2000FEE7000070B50022002906D0012906D06B
:103A3000022906D0032907D105E0012204E0022271
:103A400002E0042200E00822002100260C4C11E0D4
:103A50006654531A5B1E9B000F259D400540DD40B8
:103A6000EBB20A2B02D23033635401E03733635494
:103A7000491CC9B29142EBD36654014870BD0000A5
:103A8000D404002010EE100A0749884209DCDFED5B
:103A9000070A80EE201ABCEEC10A10EE100AC0B26E
:103AA0007047002070470000D911833B6E95833723
:103AB00010EE100A0749884209DCDFED070A80EEA4
:103AC000201ABCEEC10A10EE100AC0B270470020E6
:103AD00070470000D911833B6E95833710EE100AB2
:103AE0000749884209DCDFED070A80EE201ABCEEA8
:103AF000C10A10EE100AC0B27047002070470000E3
:103B0000D911833B6E958337014142535F504F5328
:103B100000000000001603000000000002454C5F9A
:103B2000504F530000000000000902000000000098
:103B3000034D41524B00000000000000001603003E
:103B40000000000004535045454400000000000000
:103B50000014030000000000054143430000000082
:103B600000000000000C02008A00000006444543EB
:103B70000000000000000000000C02008A000000AD
:103B8000074D41585F53504545440000000A02006C
:103B900041000000084D494E5F5350454544000028
:103BA000000D0200000000001546535F5350440012
:103BB00000000000000A020027000000094B5641E7
:103BC0004C5F484F4C4400000008010029000000F1
:103BD0000A4B56414C5F52554E0000000008010050
:103BE000290000000B4B56414C5F4143430000004D
:103BF00000080100290000000C4B56414C5F444571
:103C00004300000000080100290000000D494E5447
:103C10005F53504545440000000E020008040000B8
:103C20000E53545F534C5000000000000008010088
:103C3000190000000F464E5F534C505F4143430054
:103C4000000801002900000010464E5F534C505FF1
:103C5000444543000008010029000000114B5F5457
:103C60004845524D00000000000401000000000023
:103C7000124144435F4F555400000000000501000D
:103C800000000000134F43445F5448000000000050
:103C90000004010008000000145354414C4C5F54D0
:103CA0004800000000070100400000001653544582
:103CB000505F4D4F44450000000801000700000020
:103CC00017414C41524D5F454E0000000008010075
:103CD000FF00000018434F4E464947000000000017
:103CE00000100200882E000019535441545553000F
:103CF0000000000000100200000000004E4F5000C5
:103D000000000000000000000000534554504152E4
:103D1000414D000000000002474554504152414DC2
:103D200000000000200152554E000000000000007D
:103D30000000500253544550434C4F434B00000089
:103D400058014D4F564500000000000000004002A1
:103D5000474F544F00000000000000006001474F33
:103D6000544F5F444952000000006802474F554ECF
:103D700054494C0000000000820352454C45415319
:103D80004553570000009202474F484F4D450000F1
:103D9000000000007000474F4D41524B00000000F2
:103DA000000078005245534554504F530000000026
:103DB000D800524553455444455649434500C00038
:103DC000534F465453544F5000000000B000484138
:103DD000524453544F5000000000B800534F465413
:103DE00048495A0000000000A00048415244484998
:103DF0005A0000000000A800474554535441545550
:103E000053000000D000524556000000000000465C
:103E10005744000000000001525354000043505921
:103E2000000128002000002000000000010203041F
:103E3000010203040607080900004041000048434E
:103E40000000C03F000040400000A0410000C84307
:103E50000000C8430000A04300000000CDAC1644A1
:103E60000AD743400AD743400AD743400AD74340C2
:103E70007B147642689ACD393598283A3598283A95
:103E8000000000000060524500403F4507FF882EBB
:103E900000004041000048430000C03F0000404097
:103EA000000070430000C8430000C8430000A04366
:103EB00000000000CDAC16440AD743400AD7434067
:103EC0000AD743400AD743407B147642689ACD39DB
:103ED0003598283A3598283A00000000006052458D
:103EE00000403F4507FF882E000040410000484346
:103EF0009A99D93F0AD74340000070430000C84355
:103F00000000C8430000A04300000000CDAC1644F0
:103F10000AD743400AD743400AD743400AD7434011
:103F20007B147642689ACD393598283A3598283AE4
:103F3000000000000060524500403F4507FF882E0A
:103F400000004041000048439A99D93F0AD74340B6
:103F5000000070430000C8430000C8430000A043B5
:103F600000000000CDAC16440AD743400AD74340B6
:103F70000AD743400AD743407B147642689ACD392A
:103F80003598283A3598283A0000000000605245DC
:103F900000403F4507FF882E000040410000484395
:103FA0009A99D93F0AD74340000070430000C843A4
:103FB0000000C8430000A04300000000CDAC164440
:103FC0000AD743400AD743400AD743400AD7434061
:103FD0007B147642689ACD393598283A3598283A34
:103FE000000000000060524500403F4507FF882E5A
:103FF00000004041000048439A99D93F0AD7434006
:10400000000070430000C8430000C8430000A04304
:1040100000000000CDAC16440AD743400AD7434005
:104020000AD743400AD743407B147642689ACD3979
:104030003598283A3598283A00000000006052452B
:1040400000403F4507FF882E000010410000C84394
:104050009A99D93F0AD74340000070430000C843F3
:104060000000C8430000A04300000000CDAC16448F
:104070000AD743400AD743400AD743400AD74340B0
:104080007B147642689ACD393598283A3598283A83
:10409000000000000060524500403F4507FF882EA9
:1040A000000010410000C8439A99D93F0AD7434005
:1040B000000070430000C8430000C8430000A04354
:1040C00000000000CDAC16440AD743400AD7434055
:1040D0000AD743400AD743407B147642689ACD39C9
:1040E0003598283A3598283A00000000006052457B
:1040F00000403F4507FF882E2E2E2F2E2E2F2E2ECE
:104100002F2E2E2F2E2E2F2E2E2F44726976657273
:10411000732F53544D3332463478785F48414C5FA7
:104120004472697665722F5372632F73746D3332E4
:10413000663478785F68616C5F636F727465782E3F
:10414000630000002E2E2F2E2E2F2E2E2F2E2E2FE0
:104150002E2E2F2E2E2F447269766572732F535494
:104160004D3332463478785F48414C5F447269760B
:1041700065722F5372632F73746D3332663478789F
:104180005F68616C5F6770696F2E63002E2E2F2E43
:104190002E2F2E2E2F2E2E2F2E2E2F2E2E2F4472E0
:1041A00069766572732F53544D3332463478785F95
:1041B00048414C5F4472697665722F5372632F7366
:1041C000746D3332663478785F68616C5F726363F4
:1041D0002E6300002E2E2F2E2E2F2E2E2F2E2E2F22
:1041E0002E2E2F2E2E2F447269766572732F535404
:1041F0004D3332463478785F48414C5F447269767B
:1042000065722F5372632F73746D3332663478780E
:104210005F68616C5F7370692E6300002E2E2F2E15
:104220002E2F2E2E2F2E2E2F2E2E2F2E2E2F44724F
:1042300069766572732F53544D3332463478785F04
:1042400048414C5F4472697665722F5372632F73D5
:10425000746D3332663478785F68616C5F75617253
:10426000742E63008442000800000020B4030000A4
:10427000F4010008D0430008B40300206C060000DD
:1042800038350008136529140811221B0835081A4F
:10429000F504133124140825231B085D041A950422
:1042A0001389281B08C5201AF5041A05202AD510E1
:1042B000292C292019081AC5081A851C1A29181B27
:1042C000D9264C19081A710413B1271B0839041A8E
:1042D00051041A69041AC9041A09041A21041AF9A2
:1042E000041AE1041A59281A99081A41081A81086F
:1042F0001AF14013DD1E420822AC021620130240C0
:1043000026080240E8031BE1055812031B08C108F8
:104310001331061B083D08132D041B0849041A69B4
:10432000041A71101AFD201A150C1AA90C1A9104FE
:104330001A19281AA9101A01081A91081AE5201A40
:10434000A9041A61F8411A450C3109157C011A3289
:10435000010A35513C410A395D780A3969780A39D0
:1043600075780A3981780A398D780A399978134D28
:10437000021B08BC3C130C011B2048041339082AFB
:1043800008545A59181A84145AC01832025A651817
:104390001AFC144B38021832035A71181A74145A42
:1043A000B0182930112C0402409942042C08024014
:1043B0005C690C29202910219C0240100C292169DC
:1043C0003C2A4012590C292411031124F400000046
:040000050800019559
:00000001FF
